{
	"Project/simulated-transactions.sol": {
		"SimulatedTransactions": {
			"abi": [
				{
					"inputs": [],
					"stateMutability": "nonpayable",
					"type": "constructor"
				},
				{
					"anonymous": false,
					"inputs": [
						{
							"indexed": true,
							"internalType": "address",
							"name": "oldOwner",
							"type": "address"
						},
						{
							"indexed": true,
							"internalType": "address",
							"name": "newOwner",
							"type": "address"
						}
					],
					"name": "OwnerChanged",
					"type": "event"
				},
				{
					"anonymous": false,
					"inputs": [
						{
							"indexed": true,
							"internalType": "address",
							"name": "from",
							"type": "address"
						},
						{
							"indexed": true,
							"internalType": "address",
							"name": "to",
							"type": "address"
						},
						{
							"indexed": false,
							"internalType": "uint256",
							"name": "amount",
							"type": "uint256"
						},
						{
							"indexed": false,
							"internalType": "string",
							"name": "transactionType",
							"type": "string"
						}
					],
					"name": "SimulatedTransaction",
					"type": "event"
				},
				{
					"anonymous": false,
					"inputs": [
						{
							"indexed": false,
							"internalType": "uint256",
							"name": "oldLimit",
							"type": "uint256"
						},
						{
							"indexed": false,
							"internalType": "uint256",
							"name": "newLimit",
							"type": "uint256"
						}
					],
					"name": "TransactionLimitChanged",
					"type": "event"
				},
				{
					"stateMutability": "payable",
					"type": "fallback"
				},
				{
					"inputs": [
						{
							"internalType": "uint256",
							"name": "_amount",
							"type": "uint256"
						}
					],
					"name": "burnSimulatedEther",
					"outputs": [],
					"stateMutability": "nonpayable",
					"type": "function"
				},
				{
					"inputs": [
						{
							"internalType": "address",
							"name": "_user",
							"type": "address"
						}
					],
					"name": "checkSimulatedBalance",
					"outputs": [
						{
							"internalType": "uint256",
							"name": "",
							"type": "uint256"
						}
					],
					"stateMutability": "view",
					"type": "function"
				},
				{
					"inputs": [
						{
							"internalType": "address",
							"name": "_to",
							"type": "address"
						},
						{
							"internalType": "uint256",
							"name": "_amount",
							"type": "uint256"
						}
					],
					"name": "grantSimulatedEther",
					"outputs": [],
					"stateMutability": "nonpayable",
					"type": "function"
				},
				{
					"inputs": [
						{
							"internalType": "uint256",
							"name": "_amount",
							"type": "uint256"
						}
					],
					"name": "mintSimulatedEther",
					"outputs": [],
					"stateMutability": "nonpayable",
					"type": "function"
				},
				{
					"inputs": [],
					"name": "owner",
					"outputs": [
						{
							"internalType": "address",
							"name": "",
							"type": "address"
						}
					],
					"stateMutability": "view",
					"type": "function"
				},
				{
					"inputs": [
						{
							"internalType": "address",
							"name": "_user",
							"type": "address"
						}
					],
					"name": "resetSimulatedBalance",
					"outputs": [],
					"stateMutability": "nonpayable",
					"type": "function"
				},
				{
					"inputs": [
						{
							"internalType": "uint256",
							"name": "_newLimit",
							"type": "uint256"
						}
					],
					"name": "setTransactionLimit",
					"outputs": [],
					"stateMutability": "nonpayable",
					"type": "function"
				},
				{
					"inputs": [
						{
							"internalType": "address",
							"name": "",
							"type": "address"
						}
					],
					"name": "simulatedBalances",
					"outputs": [
						{
							"internalType": "uint256",
							"name": "",
							"type": "uint256"
						}
					],
					"stateMutability": "view",
					"type": "function"
				},
				{
					"inputs": [],
					"name": "transactionLimit",
					"outputs": [
						{
							"internalType": "uint256",
							"name": "",
							"type": "uint256"
						}
					],
					"stateMutability": "view",
					"type": "function"
				},
				{
					"inputs": [
						{
							"internalType": "address",
							"name": "_newOwner",
							"type": "address"
						}
					],
					"name": "transferOwnership",
					"outputs": [],
					"stateMutability": "nonpayable",
					"type": "function"
				},
				{
					"inputs": [
						{
							"internalType": "address",
							"name": "_to",
							"type": "address"
						},
						{
							"internalType": "uint256",
							"name": "_amount",
							"type": "uint256"
						}
					],
					"name": "transferSimulatedEther",
					"outputs": [],
					"stateMutability": "nonpayable",
					"type": "function"
				},
				{
					"stateMutability": "payable",
					"type": "receive"
				}
			],
			"devdoc": {
				"details": "A smart contract to simulate cryptocurrency transactions without using real ETH, added some basic security functions",
				"kind": "dev",
				"methods": {},
				"title": "SimulatedTransactions",
				"version": 1
			},
			"evm": {
				"assembly": "    /* \"Project/simulated-transactions.sol\":230:4368  contract SimulatedTransactions {... */\n  mstore(0x40, 0x80)\n    /* \"Project/simulated-transactions.sol\":718:722  1000 */\n  0x03e8\n    /* \"Project/simulated-transactions.sol\":684:722  uint256 public transactionLimit = 1000 */\n  0x03\n  sstore\n    /* \"Project/simulated-transactions.sol\":1338:1493  constructor() {... */\n  callvalue\n  dup1\n  iszero\n  tag_1\n  jumpi\n  0x00\n  dup1\n  revert\ntag_1:\n  pop\n    /* \"Project/simulated-transactions.sol\":1370:1380  msg.sender */\n  caller\n    /* \"Project/simulated-transactions.sol\":1362:1367  owner */\n  0x00\n  dup1\n    /* \"Project/simulated-transactions.sol\":1362:1380  owner = msg.sender */\n  0x0100\n  exp\n  dup2\n  sload\n  dup2\n  0xffffffffffffffffffffffffffffffffffffffff\n  mul\n  not\n  and\n  swap1\n  dup4\n  0xffffffffffffffffffffffffffffffffffffffff\n  and\n  mul\n  or\n  swap1\n  sstore\n  pop\n    /* \"Project/simulated-transactions.sol\":1481:1486  10000 */\n  0x2710\n    /* \"Project/simulated-transactions.sol\":1449:1466  simulatedBalances */\n  0x01\n    /* \"Project/simulated-transactions.sol\":1449:1478  simulatedBalances[msg.sender] */\n  0x00\n    /* \"Project/simulated-transactions.sol\":1467:1477  msg.sender */\n  caller\n    /* \"Project/simulated-transactions.sol\":1449:1478  simulatedBalances[msg.sender] */\n  0xffffffffffffffffffffffffffffffffffffffff\n  and\n  0xffffffffffffffffffffffffffffffffffffffff\n  and\n  dup2\n  mstore\n  0x20\n  add\n  swap1\n  dup2\n  mstore\n  0x20\n  add\n  0x00\n  keccak256\n    /* \"Project/simulated-transactions.sol\":1449:1486  simulatedBalances[msg.sender] = 10000 */\n  dup2\n  swap1\n  sstore\n  pop\n    /* \"Project/simulated-transactions.sol\":230:4368  contract SimulatedTransactions {... */\n  dataSize(sub_0)\n  dup1\n  dataOffset(sub_0)\n  0x00\n  codecopy\n  0x00\n  return\nstop\n\nsub_0: assembly {\n        /* \"Project/simulated-transactions.sol\":230:4368  contract SimulatedTransactions {... */\n      mstore(0x40, 0x80)\n      jumpi(tag_1, lt(calldatasize, 0x04))\n      shr(0xe0, calldataload(0x00))\n      dup1\n      0xe51364fd\n      gt\n      tag_14\n      jumpi\n      dup1\n      0xe51364fd\n      eq\n      tag_8\n      jumpi\n      dup1\n      0xe688996c\n      eq\n      tag_9\n      jumpi\n      dup1\n      0xf19605d6\n      eq\n      tag_10\n      jumpi\n      dup1\n      0xf2fde38b\n      eq\n      tag_11\n      jumpi\n      dup1\n      0xf8b79895\n      eq\n      tag_12\n      jumpi\n      dup1\n      0xfa59571f\n      eq\n      tag_13\n      jumpi\n      jump(tag_2)\n    tag_14:\n      dup1\n      0x3d6dde82\n      eq\n      tag_3\n      jumpi\n      dup1\n      0x3fce58ee\n      eq\n      tag_4\n      jumpi\n      dup1\n      0x64bfa546\n      eq\n      tag_5\n      jumpi\n      dup1\n      0x8da5cb5b\n      eq\n      tag_6\n      jumpi\n      dup1\n      0xdcd4f961\n      eq\n      tag_7\n      jumpi\n      jump(tag_2)\n    tag_1:\n      jumpi(tag_2, calldatasize)\n        /* \"Project/simulated-transactions.sol\":1594:1642  revert(\"No real ETH please! - this is all fake\") */\n      mload(0x40)\n      0x08c379a000000000000000000000000000000000000000000000000000000000\n      dup2\n      mstore\n      0x04\n      add\n      tag_17\n      swap1\n      tag_18\n      jump\t// in\n    tag_17:\n      mload(0x40)\n      dup1\n      swap2\n      sub\n      swap1\n      revert\n        /* \"Project/simulated-transactions.sol\":230:4368  contract SimulatedTransactions {... */\n    tag_2:\n        /* \"Project/simulated-transactions.sol\":1697:1745  revert(\"No real ETH please! - this is all fake\") */\n      mload(0x40)\n      0x08c379a000000000000000000000000000000000000000000000000000000000\n      dup2\n      mstore\n      0x04\n      add\n      tag_21\n      swap1\n      tag_18\n      jump\t// in\n    tag_21:\n      mload(0x40)\n      dup1\n      swap2\n      sub\n      swap1\n      revert\n        /* \"Project/simulated-transactions.sol\":4035:4159  function checkSimulatedBalance(address _user) public view returns (uint256) {... */\n    tag_3:\n      callvalue\n      dup1\n      iszero\n      tag_22\n      jumpi\n      0x00\n      dup1\n      revert\n    tag_22:\n      pop\n      tag_23\n      0x04\n      dup1\n      calldatasize\n      sub\n      dup2\n      add\n      swap1\n      tag_24\n      swap2\n      swap1\n      tag_25\n      jump\t// in\n    tag_24:\n      tag_26\n      jump\t// in\n    tag_23:\n      mload(0x40)\n      tag_27\n      swap2\n      swap1\n      tag_28\n      jump\t// in\n    tag_27:\n      mload(0x40)\n      dup1\n      swap2\n      sub\n      swap1\n      return\n        /* \"Project/simulated-transactions.sol\":4169:4366  function resetSimulatedBalance(address _user) public onlyOwner {... */\n    tag_4:\n      callvalue\n      dup1\n      iszero\n      tag_29\n      jumpi\n      0x00\n      dup1\n      revert\n    tag_29:\n      pop\n      tag_30\n      0x04\n      dup1\n      calldatasize\n      sub\n      dup2\n      add\n      swap1\n      tag_31\n      swap2\n      swap1\n      tag_25\n      jump\t// in\n    tag_31:\n      tag_32\n      jump\t// in\n    tag_30:\n      stop\n        /* \"Project/simulated-transactions.sol\":2062:2276  function setTransactionLimit(uint256 _newLimit) public onlyOwner {... */\n    tag_5:\n      callvalue\n      dup1\n      iszero\n      tag_33\n      jumpi\n      0x00\n      dup1\n      revert\n    tag_33:\n      pop\n      tag_34\n      0x04\n      dup1\n      calldatasize\n      sub\n      dup2\n      add\n      swap1\n      tag_35\n      swap2\n      swap1\n      tag_36\n      jump\t// in\n    tag_35:\n      tag_37\n      jump\t// in\n    tag_34:\n      stop\n        /* \"Project/simulated-transactions.sol\":267:287  address public owner */\n    tag_6:\n      callvalue\n      dup1\n      iszero\n      tag_38\n      jumpi\n      0x00\n      dup1\n      revert\n    tag_38:\n      pop\n      tag_39\n      tag_40\n      jump\t// in\n    tag_39:\n      mload(0x40)\n      tag_41\n      swap2\n      swap1\n      tag_42\n      jump\t// in\n    tag_41:\n      mload(0x40)\n      dup1\n      swap2\n      sub\n      swap1\n      return\n        /* \"Project/simulated-transactions.sol\":3698:4025  function burnSimulatedEther(uint256 _amount) public nonReentrant hasEnoughBalance(_amount) belowTransactionLimit(_amount) {... */\n    tag_7:\n      callvalue\n      dup1\n      iszero\n      tag_43\n      jumpi\n      0x00\n      dup1\n      revert\n    tag_43:\n      pop\n      tag_44\n      0x04\n      dup1\n      calldatasize\n      sub\n      dup2\n      add\n      swap1\n      tag_45\n      swap2\n      swap1\n      tag_36\n      jump\t// in\n    tag_45:\n      tag_46\n      jump\t// in\n    tag_44:\n      stop\n        /* \"Project/simulated-transactions.sol\":330:382  mapping(address => uint256) public simulatedBalances */\n    tag_8:\n      callvalue\n      dup1\n      iszero\n      tag_47\n      jumpi\n      0x00\n      dup1\n      revert\n    tag_47:\n      pop\n      tag_48\n      0x04\n      dup1\n      calldatasize\n      sub\n      dup2\n      add\n      swap1\n      tag_49\n      swap2\n      swap1\n      tag_25\n      jump\t// in\n    tag_49:\n      tag_50\n      jump\t// in\n    tag_48:\n      mload(0x40)\n      tag_51\n      swap2\n      swap1\n      tag_28\n      jump\t// in\n    tag_51:\n      mload(0x40)\n      dup1\n      swap2\n      sub\n      swap1\n      return\n        /* \"Project/simulated-transactions.sol\":2698:3081  function grantSimulatedEther(address _to, uint256 _amount) public onlyOwner nonReentrant belowTransactionLimit(_amount) {... */\n    tag_9:\n      callvalue\n      dup1\n      iszero\n      tag_52\n      jumpi\n      0x00\n      dup1\n      revert\n    tag_52:\n      pop\n      tag_53\n      0x04\n      dup1\n      calldatasize\n      sub\n      dup2\n      add\n      swap1\n      tag_54\n      swap2\n      swap1\n      tag_55\n      jump\t// in\n    tag_54:\n      tag_56\n      jump\t// in\n    tag_53:\n      stop\n        /* \"Project/simulated-transactions.sol\":684:722  uint256 public transactionLimit = 1000 */\n    tag_10:\n      callvalue\n      dup1\n      iszero\n      tag_57\n      jumpi\n      0x00\n      dup1\n      revert\n    tag_57:\n      pop\n      tag_58\n      tag_59\n      jump\t// in\n    tag_58:\n      mload(0x40)\n      tag_60\n      swap2\n      swap1\n      tag_28\n      jump\t// in\n    tag_60:\n      mload(0x40)\n      dup1\n      swap2\n      sub\n      swap1\n      return\n        /* \"Project/simulated-transactions.sol\":1796:2052  function transferOwnership(address _newOwner) public onlyOwner {... */\n    tag_11:\n      callvalue\n      dup1\n      iszero\n      tag_61\n      jumpi\n      0x00\n      dup1\n      revert\n    tag_61:\n      pop\n      tag_62\n      0x04\n      dup1\n      calldatasize\n      sub\n      dup2\n      add\n      swap1\n      tag_63\n      swap2\n      swap1\n      tag_25\n      jump\t// in\n    tag_63:\n      tag_64\n      jump\t// in\n    tag_62:\n      stop\n        /* \"Project/simulated-transactions.sol\":3137:3660  function transferSimulatedEther(address _to, uint256 _amount) public nonReentrant hasEnoughBalance(_amount) belowTransactionLimit(_amount) {... */\n    tag_12:\n      callvalue\n      dup1\n      iszero\n      tag_65\n      jumpi\n      0x00\n      dup1\n      revert\n    tag_65:\n      pop\n      tag_66\n      0x04\n      dup1\n      calldatasize\n      sub\n      dup2\n      add\n      swap1\n      tag_67\n      swap2\n      swap1\n      tag_55\n      jump\t// in\n    tag_67:\n      tag_68\n      jump\t// in\n    tag_66:\n      stop\n        /* \"Project/simulated-transactions.sol\":2347:2639  function mintSimulatedEther(uint256 _amount) public nonReentrant belowTransactionLimit(_amount) {... */\n    tag_13:\n      callvalue\n      dup1\n      iszero\n      tag_69\n      jumpi\n      0x00\n      dup1\n      revert\n    tag_69:\n      pop\n      tag_70\n      0x04\n      dup1\n      calldatasize\n      sub\n      dup2\n      add\n      swap1\n      tag_71\n      swap2\n      swap1\n      tag_36\n      jump\t// in\n    tag_71:\n      tag_72\n      jump\t// in\n    tag_70:\n      stop\n        /* \"Project/simulated-transactions.sol\":4035:4159  function checkSimulatedBalance(address _user) public view returns (uint256) {... */\n    tag_26:\n        /* \"Project/simulated-transactions.sol\":4102:4109  uint256 */\n      0x00\n        /* \"Project/simulated-transactions.sol\":4128:4145  simulatedBalances */\n      0x01\n        /* \"Project/simulated-transactions.sol\":4128:4152  simulatedBalances[_user] */\n      0x00\n        /* \"Project/simulated-transactions.sol\":4146:4151  _user */\n      dup4\n        /* \"Project/simulated-transactions.sol\":4128:4152  simulatedBalances[_user] */\n      0xffffffffffffffffffffffffffffffffffffffff\n      and\n      0xffffffffffffffffffffffffffffffffffffffff\n      and\n      dup2\n      mstore\n      0x20\n      add\n      swap1\n      dup2\n      mstore\n      0x20\n      add\n      0x00\n      keccak256\n      sload\n        /* \"Project/simulated-transactions.sol\":4121:4152  return simulatedBalances[_user] */\n      swap1\n      pop\n        /* \"Project/simulated-transactions.sol\":4035:4159  function checkSimulatedBalance(address _user) public view returns (uint256) {... */\n      swap2\n      swap1\n      pop\n      jump\t// out\n        /* \"Project/simulated-transactions.sol\":4169:4366  function resetSimulatedBalance(address _user) public onlyOwner {... */\n    tag_32:\n        /* \"Project/simulated-transactions.sol\":786:791  owner */\n      0x00\n      dup1\n      sload\n      swap1\n      0x0100\n      exp\n      swap1\n      div\n      0xffffffffffffffffffffffffffffffffffffffff\n      and\n        /* \"Project/simulated-transactions.sol\":772:791  msg.sender == owner */\n      0xffffffffffffffffffffffffffffffffffffffff\n      and\n        /* \"Project/simulated-transactions.sol\":772:782  msg.sender */\n      caller\n        /* \"Project/simulated-transactions.sol\":772:791  msg.sender == owner */\n      0xffffffffffffffffffffffffffffffffffffffff\n      and\n      eq\n        /* \"Project/simulated-transactions.sol\":764:818  require(msg.sender == owner, \"Not the contract owner\") */\n      tag_75\n      jumpi\n      mload(0x40)\n      0x08c379a000000000000000000000000000000000000000000000000000000000\n      dup2\n      mstore\n      0x04\n      add\n      tag_76\n      swap1\n      tag_77\n      jump\t// in\n    tag_76:\n      mload(0x40)\n      dup1\n      swap2\n      sub\n      swap1\n      revert\n    tag_75:\n        /* \"Project/simulated-transactions.sol\":4269:4270  0 */\n      0x00\n        /* \"Project/simulated-transactions.sol\":4242:4259  simulatedBalances */\n      0x01\n        /* \"Project/simulated-transactions.sol\":4242:4266  simulatedBalances[_user] */\n      0x00\n        /* \"Project/simulated-transactions.sol\":4260:4265  _user */\n      dup4\n        /* \"Project/simulated-transactions.sol\":4242:4266  simulatedBalances[_user] */\n      0xffffffffffffffffffffffffffffffffffffffff\n      and\n      0xffffffffffffffffffffffffffffffffffffffff\n      and\n      dup2\n      mstore\n      0x20\n      add\n      swap1\n      dup2\n      mstore\n      0x20\n      add\n      0x00\n      keccak256\n        /* \"Project/simulated-transactions.sol\":4242:4270  simulatedBalances[_user] = 0 */\n      dup2\n      swap1\n      sstore\n      pop\n        /* \"Project/simulated-transactions.sol\":4321:4322  0 */\n      0x00\n        /* \"Project/simulated-transactions.sol\":4285:4359  SimulatedTransaction(_user, address(0), simulatedBalances[_user], \"Reset\") */\n      0xffffffffffffffffffffffffffffffffffffffff\n      and\n        /* \"Project/simulated-transactions.sol\":4306:4311  _user */\n      dup2\n        /* \"Project/simulated-transactions.sol\":4285:4359  SimulatedTransaction(_user, address(0), simulatedBalances[_user], \"Reset\") */\n      0xffffffffffffffffffffffffffffffffffffffff\n      and\n      0x90e478cc849d235624f0935f41fbbe7861a594ce506e5840e92e107406a7123e\n        /* \"Project/simulated-transactions.sol\":4325:4342  simulatedBalances */\n      0x01\n        /* \"Project/simulated-transactions.sol\":4325:4349  simulatedBalances[_user] */\n      0x00\n        /* \"Project/simulated-transactions.sol\":4343:4348  _user */\n      dup6\n        /* \"Project/simulated-transactions.sol\":4325:4349  simulatedBalances[_user] */\n      0xffffffffffffffffffffffffffffffffffffffff\n      and\n      0xffffffffffffffffffffffffffffffffffffffff\n      and\n      dup2\n      mstore\n      0x20\n      add\n      swap1\n      dup2\n      mstore\n      0x20\n      add\n      0x00\n      keccak256\n      sload\n        /* \"Project/simulated-transactions.sol\":4285:4359  SimulatedTransaction(_user, address(0), simulatedBalances[_user], \"Reset\") */\n      mload(0x40)\n      tag_79\n      swap2\n      swap1\n      tag_80\n      jump\t// in\n    tag_79:\n      mload(0x40)\n      dup1\n      swap2\n      sub\n      swap1\n      log3\n        /* \"Project/simulated-transactions.sol\":4169:4366  function resetSimulatedBalance(address _user) public onlyOwner {... */\n      pop\n      jump\t// out\n        /* \"Project/simulated-transactions.sol\":2062:2276  function setTransactionLimit(uint256 _newLimit) public onlyOwner {... */\n    tag_37:\n        /* \"Project/simulated-transactions.sol\":786:791  owner */\n      0x00\n      dup1\n      sload\n      swap1\n      0x0100\n      exp\n      swap1\n      div\n      0xffffffffffffffffffffffffffffffffffffffff\n      and\n        /* \"Project/simulated-transactions.sol\":772:791  msg.sender == owner */\n      0xffffffffffffffffffffffffffffffffffffffff\n      and\n        /* \"Project/simulated-transactions.sol\":772:782  msg.sender */\n      caller\n        /* \"Project/simulated-transactions.sol\":772:791  msg.sender == owner */\n      0xffffffffffffffffffffffffffffffffffffffff\n      and\n      eq\n        /* \"Project/simulated-transactions.sol\":764:818  require(msg.sender == owner, \"Not the contract owner\") */\n      tag_82\n      jumpi\n      mload(0x40)\n      0x08c379a000000000000000000000000000000000000000000000000000000000\n      dup2\n      mstore\n      0x04\n      add\n      tag_83\n      swap1\n      tag_77\n      jump\t// in\n    tag_83:\n      mload(0x40)\n      dup1\n      swap2\n      sub\n      swap1\n      revert\n    tag_82:\n        /* \"Project/simulated-transactions.sol\":2137:2153  uint256 oldLimit */\n      0x00\n        /* \"Project/simulated-transactions.sol\":2156:2172  transactionLimit */\n      sload(0x03)\n        /* \"Project/simulated-transactions.sol\":2137:2172  uint256 oldLimit = transactionLimit */\n      swap1\n      pop\n        /* \"Project/simulated-transactions.sol\":2201:2210  _newLimit */\n      dup2\n        /* \"Project/simulated-transactions.sol\":2182:2198  transactionLimit */\n      0x03\n        /* \"Project/simulated-transactions.sol\":2182:2210  transactionLimit = _newLimit */\n      dup2\n      swap1\n      sstore\n      pop\n        /* \"Project/simulated-transactions.sol\":2225:2269  TransactionLimitChanged(oldLimit, _newLimit) */\n      0x9084289eabaa2837ead6e96e56f4e7ce025cc4d9a938c05e4f006a6520b975d8\n        /* \"Project/simulated-transactions.sol\":2249:2257  oldLimit */\n      dup2\n        /* \"Project/simulated-transactions.sol\":2259:2268  _newLimit */\n      dup4\n        /* \"Project/simulated-transactions.sol\":2225:2269  TransactionLimitChanged(oldLimit, _newLimit) */\n      mload(0x40)\n      tag_85\n      swap3\n      swap2\n      swap1\n      tag_86\n      jump\t// in\n    tag_85:\n      mload(0x40)\n      dup1\n      swap2\n      sub\n      swap1\n      log1\n        /* \"Project/simulated-transactions.sol\":2127:2276  {... */\n      pop\n        /* \"Project/simulated-transactions.sol\":2062:2276  function setTransactionLimit(uint256 _newLimit) public onlyOwner {... */\n      pop\n      jump\t// out\n        /* \"Project/simulated-transactions.sol\":267:287  address public owner */\n    tag_40:\n      0x00\n      dup1\n      sload\n      swap1\n      0x0100\n      exp\n      swap1\n      div\n      0xffffffffffffffffffffffffffffffffffffffff\n      and\n      dup2\n      jump\t// out\n        /* \"Project/simulated-transactions.sol\":3698:4025  function burnSimulatedEther(uint256 _amount) public nonReentrant hasEnoughBalance(_amount) belowTransactionLimit(_amount) {... */\n    tag_46:\n        /* \"Project/simulated-transactions.sol\":889:895  locked */\n      0x02\n      0x00\n      swap1\n      sload\n      swap1\n      0x0100\n      exp\n      swap1\n      div\n      0xff\n      and\n        /* \"Project/simulated-transactions.sol\":888:895  !locked */\n      iszero\n        /* \"Project/simulated-transactions.sol\":880:941  require(!locked, \"Reentrancy protection: contract is locked\") */\n      tag_88\n      jumpi\n      mload(0x40)\n      0x08c379a000000000000000000000000000000000000000000000000000000000\n      dup2\n      mstore\n      0x04\n      add\n      tag_89\n      swap1\n      tag_90\n      jump\t// in\n    tag_89:\n      mload(0x40)\n      dup1\n      swap2\n      sub\n      swap1\n      revert\n    tag_88:\n        /* \"Project/simulated-transactions.sol\":960:964  true */\n      0x01\n        /* \"Project/simulated-transactions.sol\":951:957  locked */\n      0x02\n      0x00\n        /* \"Project/simulated-transactions.sol\":951:964  locked = true */\n      0x0100\n      exp\n      dup2\n      sload\n      dup2\n      0xff\n      mul\n      not\n      and\n      swap1\n      dup4\n      iszero\n      iszero\n      mul\n      or\n      swap1\n      sstore\n      pop\n        /* \"Project/simulated-transactions.sol\":3780:3787  _amount */\n      dup1\n        /* \"Project/simulated-transactions.sol\":1268:1275  _amount */\n      dup1\n        /* \"Project/simulated-transactions.sol\":1235:1252  simulatedBalances */\n      0x01\n        /* \"Project/simulated-transactions.sol\":1235:1264  simulatedBalances[msg.sender] */\n      0x00\n        /* \"Project/simulated-transactions.sol\":1253:1263  msg.sender */\n      caller\n        /* \"Project/simulated-transactions.sol\":1235:1264  simulatedBalances[msg.sender] */\n      0xffffffffffffffffffffffffffffffffffffffff\n      and\n      0xffffffffffffffffffffffffffffffffffffffff\n      and\n      dup2\n      mstore\n      0x20\n      add\n      swap1\n      dup2\n      mstore\n      0x20\n      add\n      0x00\n      keccak256\n      sload\n        /* \"Project/simulated-transactions.sol\":1235:1275  simulatedBalances[msg.sender] >= _amount */\n      lt\n      iszero\n        /* \"Project/simulated-transactions.sol\":1227:1310  require(simulatedBalances[msg.sender] >= _amount, \"Insufficient simulated balance\") */\n      tag_92\n      jumpi\n      mload(0x40)\n      0x08c379a000000000000000000000000000000000000000000000000000000000\n      dup2\n      mstore\n      0x04\n      add\n      tag_93\n      swap1\n      tag_94\n      jump\t// in\n    tag_93:\n      mload(0x40)\n      dup1\n      swap2\n      sub\n      swap1\n      revert\n    tag_92:\n        /* \"Project/simulated-transactions.sol\":3811:3818  _amount */\n      dup2\n        /* \"Project/simulated-transactions.sol\":1093:1109  transactionLimit */\n      sload(0x03)\n        /* \"Project/simulated-transactions.sol\":1082:1089  _amount */\n      dup2\n        /* \"Project/simulated-transactions.sol\":1082:1109  _amount <= transactionLimit */\n      gt\n      iszero\n        /* \"Project/simulated-transactions.sol\":1074:1146  require(_amount <= transactionLimit, \"Amount exceeds transaction limit\") */\n      tag_96\n      jumpi\n      mload(0x40)\n      0x08c379a000000000000000000000000000000000000000000000000000000000\n      dup2\n      mstore\n      0x04\n      add\n      tag_97\n      swap1\n      tag_98\n      jump\t// in\n    tag_97:\n      mload(0x40)\n      dup1\n      swap2\n      sub\n      swap1\n      revert\n    tag_96:\n        /* \"Project/simulated-transactions.sol\":3848:3849  0 */\n      0x00\n        /* \"Project/simulated-transactions.sol\":3838:3845  _amount */\n      dup4\n        /* \"Project/simulated-transactions.sol\":3838:3849  _amount > 0 */\n      gt\n        /* \"Project/simulated-transactions.sol\":3830:3883  require(_amount > 0, \"Amount must be greater than 0\") */\n      tag_100\n      jumpi\n      mload(0x40)\n      0x08c379a000000000000000000000000000000000000000000000000000000000\n      dup2\n      mstore\n      0x04\n      add\n      tag_101\n      swap1\n      tag_102\n      jump\t// in\n    tag_101:\n      mload(0x40)\n      dup1\n      swap2\n      sub\n      swap1\n      revert\n    tag_100:\n        /* \"Project/simulated-transactions.sol\":3935:3942  _amount */\n      dup3\n        /* \"Project/simulated-transactions.sol\":3902:3919  simulatedBalances */\n      0x01\n        /* \"Project/simulated-transactions.sol\":3902:3931  simulatedBalances[msg.sender] */\n      0x00\n        /* \"Project/simulated-transactions.sol\":3920:3930  msg.sender */\n      caller\n        /* \"Project/simulated-transactions.sol\":3902:3931  simulatedBalances[msg.sender] */\n      0xffffffffffffffffffffffffffffffffffffffff\n      and\n      0xffffffffffffffffffffffffffffffffffffffff\n      and\n      dup2\n      mstore\n      0x20\n      add\n      swap1\n      dup2\n      mstore\n      0x20\n      add\n      0x00\n      keccak256\n      0x00\n        /* \"Project/simulated-transactions.sol\":3902:3942  simulatedBalances[msg.sender] -= _amount */\n      dup3\n      dup3\n      sload\n      tag_103\n      swap2\n      swap1\n      tag_104\n      jump\t// in\n    tag_103:\n      swap3\n      pop\n      pop\n      dup2\n      swap1\n      sstore\n      pop\n        /* \"Project/simulated-transactions.sol\":3998:3999  0 */\n      0x00\n        /* \"Project/simulated-transactions.sol\":3957:4018  SimulatedTransaction(msg.sender, address(0), _amount, \"Burn\") */\n      0xffffffffffffffffffffffffffffffffffffffff\n      and\n        /* \"Project/simulated-transactions.sol\":3978:3988  msg.sender */\n      caller\n        /* \"Project/simulated-transactions.sol\":3957:4018  SimulatedTransaction(msg.sender, address(0), _amount, \"Burn\") */\n      0xffffffffffffffffffffffffffffffffffffffff\n      and\n      0x90e478cc849d235624f0935f41fbbe7861a594ce506e5840e92e107406a7123e\n        /* \"Project/simulated-transactions.sol\":4002:4009  _amount */\n      dup6\n        /* \"Project/simulated-transactions.sol\":3957:4018  SimulatedTransaction(msg.sender, address(0), _amount, \"Burn\") */\n      mload(0x40)\n      tag_105\n      swap2\n      swap1\n      tag_106\n      jump\t// in\n    tag_105:\n      mload(0x40)\n      dup1\n      swap2\n      sub\n      swap1\n      log3\n        /* \"Project/simulated-transactions.sol\":1320:1321  _ */\n      pop\n        /* \"Project/simulated-transactions.sol\":974:975  _ */\n      pop\n        /* \"Project/simulated-transactions.sol\":994:999  false */\n      0x00\n        /* \"Project/simulated-transactions.sol\":985:991  locked */\n      0x02\n      0x00\n        /* \"Project/simulated-transactions.sol\":985:999  locked = false */\n      0x0100\n      exp\n      dup2\n      sload\n      dup2\n      0xff\n      mul\n      not\n      and\n      swap1\n      dup4\n      iszero\n      iszero\n      mul\n      or\n      swap1\n      sstore\n      pop\n        /* \"Project/simulated-transactions.sol\":3698:4025  function burnSimulatedEther(uint256 _amount) public nonReentrant hasEnoughBalance(_amount) belowTransactionLimit(_amount) {... */\n      pop\n      jump\t// out\n        /* \"Project/simulated-transactions.sol\":330:382  mapping(address => uint256) public simulatedBalances */\n    tag_50:\n      mstore(0x20, 0x01)\n      dup1\n      0x00\n      mstore\n      keccak256(0x00, 0x40)\n      0x00\n      swap2\n      pop\n      swap1\n      pop\n      sload\n      dup2\n      jump\t// out\n        /* \"Project/simulated-transactions.sol\":2698:3081  function grantSimulatedEther(address _to, uint256 _amount) public onlyOwner nonReentrant belowTransactionLimit(_amount) {... */\n    tag_56:\n        /* \"Project/simulated-transactions.sol\":786:791  owner */\n      0x00\n      dup1\n      sload\n      swap1\n      0x0100\n      exp\n      swap1\n      div\n      0xffffffffffffffffffffffffffffffffffffffff\n      and\n        /* \"Project/simulated-transactions.sol\":772:791  msg.sender == owner */\n      0xffffffffffffffffffffffffffffffffffffffff\n      and\n        /* \"Project/simulated-transactions.sol\":772:782  msg.sender */\n      caller\n        /* \"Project/simulated-transactions.sol\":772:791  msg.sender == owner */\n      0xffffffffffffffffffffffffffffffffffffffff\n      and\n      eq\n        /* \"Project/simulated-transactions.sol\":764:818  require(msg.sender == owner, \"Not the contract owner\") */\n      tag_108\n      jumpi\n      mload(0x40)\n      0x08c379a000000000000000000000000000000000000000000000000000000000\n      dup2\n      mstore\n      0x04\n      add\n      tag_109\n      swap1\n      tag_77\n      jump\t// in\n    tag_109:\n      mload(0x40)\n      dup1\n      swap2\n      sub\n      swap1\n      revert\n    tag_108:\n        /* \"Project/simulated-transactions.sol\":889:895  locked */\n      0x02\n      0x00\n      swap1\n      sload\n      swap1\n      0x0100\n      exp\n      swap1\n      div\n      0xff\n      and\n        /* \"Project/simulated-transactions.sol\":888:895  !locked */\n      iszero\n        /* \"Project/simulated-transactions.sol\":880:941  require(!locked, \"Reentrancy protection: contract is locked\") */\n      tag_111\n      jumpi\n      mload(0x40)\n      0x08c379a000000000000000000000000000000000000000000000000000000000\n      dup2\n      mstore\n      0x04\n      add\n      tag_112\n      swap1\n      tag_90\n      jump\t// in\n    tag_112:\n      mload(0x40)\n      dup1\n      swap2\n      sub\n      swap1\n      revert\n    tag_111:\n        /* \"Project/simulated-transactions.sol\":960:964  true */\n      0x01\n        /* \"Project/simulated-transactions.sol\":951:957  locked */\n      0x02\n      0x00\n        /* \"Project/simulated-transactions.sol\":951:964  locked = true */\n      0x0100\n      exp\n      dup2\n      sload\n      dup2\n      0xff\n      mul\n      not\n      and\n      swap1\n      dup4\n      iszero\n      iszero\n      mul\n      or\n      swap1\n      sstore\n      pop\n        /* \"Project/simulated-transactions.sol\":2809:2816  _amount */\n      dup1\n        /* \"Project/simulated-transactions.sol\":1093:1109  transactionLimit */\n      sload(0x03)\n        /* \"Project/simulated-transactions.sol\":1082:1089  _amount */\n      dup2\n        /* \"Project/simulated-transactions.sol\":1082:1109  _amount <= transactionLimit */\n      gt\n      iszero\n        /* \"Project/simulated-transactions.sol\":1074:1146  require(_amount <= transactionLimit, \"Amount exceeds transaction limit\") */\n      tag_114\n      jumpi\n      mload(0x40)\n      0x08c379a000000000000000000000000000000000000000000000000000000000\n      dup2\n      mstore\n      0x04\n      add\n      tag_115\n      swap1\n      tag_98\n      jump\t// in\n    tag_115:\n      mload(0x40)\n      dup1\n      swap2\n      sub\n      swap1\n      revert\n    tag_114:\n        /* \"Project/simulated-transactions.sol\":2851:2852  0 */\n      0x00\n        /* \"Project/simulated-transactions.sol\":2836:2853  _to != address(0) */\n      0xffffffffffffffffffffffffffffffffffffffff\n      and\n        /* \"Project/simulated-transactions.sol\":2836:2839  _to */\n      dup4\n        /* \"Project/simulated-transactions.sol\":2836:2853  _to != address(0) */\n      0xffffffffffffffffffffffffffffffffffffffff\n      and\n      sub\n        /* \"Project/simulated-transactions.sol\":2828:2886  require(_to != address(0), \"Cannot grant to zero address\") */\n      tag_117\n      jumpi\n      mload(0x40)\n      0x08c379a000000000000000000000000000000000000000000000000000000000\n      dup2\n      mstore\n      0x04\n      add\n      tag_118\n      swap1\n      tag_119\n      jump\t// in\n    tag_118:\n      mload(0x40)\n      dup1\n      swap2\n      sub\n      swap1\n      revert\n    tag_117:\n        /* \"Project/simulated-transactions.sol\":2914:2915  0 */\n      0x00\n        /* \"Project/simulated-transactions.sol\":2904:2911  _amount */\n      dup3\n        /* \"Project/simulated-transactions.sol\":2904:2915  _amount > 0 */\n      gt\n        /* \"Project/simulated-transactions.sol\":2896:2949  require(_amount > 0, \"Amount must be greater than 0\") */\n      tag_120\n      jumpi\n      mload(0x40)\n      0x08c379a000000000000000000000000000000000000000000000000000000000\n      dup2\n      mstore\n      0x04\n      add\n      tag_121\n      swap1\n      tag_102\n      jump\t// in\n    tag_121:\n      mload(0x40)\n      dup1\n      swap2\n      sub\n      swap1\n      revert\n    tag_120:\n        /* \"Project/simulated-transactions.sol\":2994:3001  _amount */\n      dup2\n        /* \"Project/simulated-transactions.sol\":2968:2985  simulatedBalances */\n      0x01\n        /* \"Project/simulated-transactions.sol\":2968:2990  simulatedBalances[_to] */\n      0x00\n        /* \"Project/simulated-transactions.sol\":2986:2989  _to */\n      dup6\n        /* \"Project/simulated-transactions.sol\":2968:2990  simulatedBalances[_to] */\n      0xffffffffffffffffffffffffffffffffffffffff\n      and\n      0xffffffffffffffffffffffffffffffffffffffff\n      and\n      dup2\n      mstore\n      0x20\n      add\n      swap1\n      dup2\n      mstore\n      0x20\n      add\n      0x00\n      keccak256\n      0x00\n        /* \"Project/simulated-transactions.sol\":2968:3001  simulatedBalances[_to] += _amount */\n      dup3\n      dup3\n      sload\n      tag_122\n      swap2\n      swap1\n      tag_123\n      jump\t// in\n    tag_122:\n      swap3\n      pop\n      pop\n      dup2\n      swap1\n      sstore\n      pop\n        /* \"Project/simulated-transactions.sol\":3052:3055  _to */\n      dup3\n        /* \"Project/simulated-transactions.sol\":3016:3074  SimulatedTransaction(address(this), _to, _amount, \"Grant\") */\n      0xffffffffffffffffffffffffffffffffffffffff\n      and\n        /* \"Project/simulated-transactions.sol\":3045:3049  this */\n      address\n        /* \"Project/simulated-transactions.sol\":3016:3074  SimulatedTransaction(address(this), _to, _amount, \"Grant\") */\n      0xffffffffffffffffffffffffffffffffffffffff\n      and\n      0x90e478cc849d235624f0935f41fbbe7861a594ce506e5840e92e107406a7123e\n        /* \"Project/simulated-transactions.sol\":3057:3064  _amount */\n      dup5\n        /* \"Project/simulated-transactions.sol\":3016:3074  SimulatedTransaction(address(this), _to, _amount, \"Grant\") */\n      mload(0x40)\n      tag_124\n      swap2\n      swap1\n      tag_125\n      jump\t// in\n    tag_124:\n      mload(0x40)\n      dup1\n      swap2\n      sub\n      swap1\n      log3\n        /* \"Project/simulated-transactions.sol\":974:975  _ */\n      pop\n        /* \"Project/simulated-transactions.sol\":994:999  false */\n      0x00\n        /* \"Project/simulated-transactions.sol\":985:991  locked */\n      0x02\n      0x00\n        /* \"Project/simulated-transactions.sol\":985:999  locked = false */\n      0x0100\n      exp\n      dup2\n      sload\n      dup2\n      0xff\n      mul\n      not\n      and\n      swap1\n      dup4\n      iszero\n      iszero\n      mul\n      or\n      swap1\n      sstore\n      pop\n        /* \"Project/simulated-transactions.sol\":2698:3081  function grantSimulatedEther(address _to, uint256 _amount) public onlyOwner nonReentrant belowTransactionLimit(_amount) {... */\n      pop\n      pop\n      jump\t// out\n        /* \"Project/simulated-transactions.sol\":684:722  uint256 public transactionLimit = 1000 */\n    tag_59:\n      sload(0x03)\n      dup2\n      jump\t// out\n        /* \"Project/simulated-transactions.sol\":1796:2052  function transferOwnership(address _newOwner) public onlyOwner {... */\n    tag_64:\n        /* \"Project/simulated-transactions.sol\":786:791  owner */\n      0x00\n      dup1\n      sload\n      swap1\n      0x0100\n      exp\n      swap1\n      div\n      0xffffffffffffffffffffffffffffffffffffffff\n      and\n        /* \"Project/simulated-transactions.sol\":772:791  msg.sender == owner */\n      0xffffffffffffffffffffffffffffffffffffffff\n      and\n        /* \"Project/simulated-transactions.sol\":772:782  msg.sender */\n      caller\n        /* \"Project/simulated-transactions.sol\":772:791  msg.sender == owner */\n      0xffffffffffffffffffffffffffffffffffffffff\n      and\n      eq\n        /* \"Project/simulated-transactions.sol\":764:818  require(msg.sender == owner, \"Not the contract owner\") */\n      tag_127\n      jumpi\n      mload(0x40)\n      0x08c379a000000000000000000000000000000000000000000000000000000000\n      dup2\n      mstore\n      0x04\n      add\n      tag_128\n      swap1\n      tag_77\n      jump\t// in\n    tag_128:\n      mload(0x40)\n      dup1\n      swap2\n      sub\n      swap1\n      revert\n    tag_127:\n        /* \"Project/simulated-transactions.sol\":1898:1899  0 */\n      0x00\n        /* \"Project/simulated-transactions.sol\":1877:1900  _newOwner != address(0) */\n      0xffffffffffffffffffffffffffffffffffffffff\n      and\n        /* \"Project/simulated-transactions.sol\":1877:1886  _newOwner */\n      dup2\n        /* \"Project/simulated-transactions.sol\":1877:1900  _newOwner != address(0) */\n      0xffffffffffffffffffffffffffffffffffffffff\n      and\n      sub\n        /* \"Project/simulated-transactions.sol\":1869:1936  require(_newOwner != address(0), \"Cannot transfer to zero address\") */\n      tag_130\n      jumpi\n      mload(0x40)\n      0x08c379a000000000000000000000000000000000000000000000000000000000\n      dup2\n      mstore\n      0x04\n      add\n      tag_131\n      swap1\n      tag_132\n      jump\t// in\n    tag_131:\n      mload(0x40)\n      dup1\n      swap2\n      sub\n      swap1\n      revert\n    tag_130:\n        /* \"Project/simulated-transactions.sol\":1946:1962  address oldOwner */\n      0x00\n        /* \"Project/simulated-transactions.sol\":1965:1970  owner */\n      dup1\n      0x00\n      swap1\n      sload\n      swap1\n      0x0100\n      exp\n      swap1\n      div\n      0xffffffffffffffffffffffffffffffffffffffff\n      and\n        /* \"Project/simulated-transactions.sol\":1946:1970  address oldOwner = owner */\n      swap1\n      pop\n        /* \"Project/simulated-transactions.sol\":1988:1997  _newOwner */\n      dup2\n        /* \"Project/simulated-transactions.sol\":1980:1985  owner */\n      0x00\n      dup1\n        /* \"Project/simulated-transactions.sol\":1980:1997  owner = _newOwner */\n      0x0100\n      exp\n      dup2\n      sload\n      dup2\n      0xffffffffffffffffffffffffffffffffffffffff\n      mul\n      not\n      and\n      swap1\n      dup4\n      0xffffffffffffffffffffffffffffffffffffffff\n      and\n      mul\n      or\n      swap1\n      sstore\n      pop\n        /* \"Project/simulated-transactions.sol\":2035:2044  _newOwner */\n      dup2\n        /* \"Project/simulated-transactions.sol\":2012:2045  OwnerChanged(oldOwner, _newOwner) */\n      0xffffffffffffffffffffffffffffffffffffffff\n      and\n        /* \"Project/simulated-transactions.sol\":2025:2033  oldOwner */\n      dup2\n        /* \"Project/simulated-transactions.sol\":2012:2045  OwnerChanged(oldOwner, _newOwner) */\n      0xffffffffffffffffffffffffffffffffffffffff\n      and\n      0xb532073b38c83145e3e5135377a08bf9aab55bc0fd7c1179cd4fb995d2a5159c\n      mload(0x40)\n      mload(0x40)\n      dup1\n      swap2\n      sub\n      swap1\n      log3\n        /* \"Project/simulated-transactions.sol\":1859:2052  {... */\n      pop\n        /* \"Project/simulated-transactions.sol\":1796:2052  function transferOwnership(address _newOwner) public onlyOwner {... */\n      pop\n      jump\t// out\n        /* \"Project/simulated-transactions.sol\":3137:3660  function transferSimulatedEther(address _to, uint256 _amount) public nonReentrant hasEnoughBalance(_amount) belowTransactionLimit(_amount) {... */\n    tag_68:\n        /* \"Project/simulated-transactions.sol\":889:895  locked */\n      0x02\n      0x00\n      swap1\n      sload\n      swap1\n      0x0100\n      exp\n      swap1\n      div\n      0xff\n      and\n        /* \"Project/simulated-transactions.sol\":888:895  !locked */\n      iszero\n        /* \"Project/simulated-transactions.sol\":880:941  require(!locked, \"Reentrancy protection: contract is locked\") */\n      tag_134\n      jumpi\n      mload(0x40)\n      0x08c379a000000000000000000000000000000000000000000000000000000000\n      dup2\n      mstore\n      0x04\n      add\n      tag_135\n      swap1\n      tag_90\n      jump\t// in\n    tag_135:\n      mload(0x40)\n      dup1\n      swap2\n      sub\n      swap1\n      revert\n    tag_134:\n        /* \"Project/simulated-transactions.sol\":960:964  true */\n      0x01\n        /* \"Project/simulated-transactions.sol\":951:957  locked */\n      0x02\n      0x00\n        /* \"Project/simulated-transactions.sol\":951:964  locked = true */\n      0x0100\n      exp\n      dup2\n      sload\n      dup2\n      0xff\n      mul\n      not\n      and\n      swap1\n      dup4\n      iszero\n      iszero\n      mul\n      or\n      swap1\n      sstore\n      pop\n        /* \"Project/simulated-transactions.sol\":3236:3243  _amount */\n      dup1\n        /* \"Project/simulated-transactions.sol\":1268:1275  _amount */\n      dup1\n        /* \"Project/simulated-transactions.sol\":1235:1252  simulatedBalances */\n      0x01\n        /* \"Project/simulated-transactions.sol\":1235:1264  simulatedBalances[msg.sender] */\n      0x00\n        /* \"Project/simulated-transactions.sol\":1253:1263  msg.sender */\n      caller\n        /* \"Project/simulated-transactions.sol\":1235:1264  simulatedBalances[msg.sender] */\n      0xffffffffffffffffffffffffffffffffffffffff\n      and\n      0xffffffffffffffffffffffffffffffffffffffff\n      and\n      dup2\n      mstore\n      0x20\n      add\n      swap1\n      dup2\n      mstore\n      0x20\n      add\n      0x00\n      keccak256\n      sload\n        /* \"Project/simulated-transactions.sol\":1235:1275  simulatedBalances[msg.sender] >= _amount */\n      lt\n      iszero\n        /* \"Project/simulated-transactions.sol\":1227:1310  require(simulatedBalances[msg.sender] >= _amount, \"Insufficient simulated balance\") */\n      tag_137\n      jumpi\n      mload(0x40)\n      0x08c379a000000000000000000000000000000000000000000000000000000000\n      dup2\n      mstore\n      0x04\n      add\n      tag_138\n      swap1\n      tag_94\n      jump\t// in\n    tag_138:\n      mload(0x40)\n      dup1\n      swap2\n      sub\n      swap1\n      revert\n    tag_137:\n        /* \"Project/simulated-transactions.sol\":3267:3274  _amount */\n      dup2\n        /* \"Project/simulated-transactions.sol\":1093:1109  transactionLimit */\n      sload(0x03)\n        /* \"Project/simulated-transactions.sol\":1082:1089  _amount */\n      dup2\n        /* \"Project/simulated-transactions.sol\":1082:1109  _amount <= transactionLimit */\n      gt\n      iszero\n        /* \"Project/simulated-transactions.sol\":1074:1146  require(_amount <= transactionLimit, \"Amount exceeds transaction limit\") */\n      tag_140\n      jumpi\n      mload(0x40)\n      0x08c379a000000000000000000000000000000000000000000000000000000000\n      dup2\n      mstore\n      0x04\n      add\n      tag_141\n      swap1\n      tag_98\n      jump\t// in\n    tag_141:\n      mload(0x40)\n      dup1\n      swap2\n      sub\n      swap1\n      revert\n    tag_140:\n        /* \"Project/simulated-transactions.sol\":3309:3310  0 */\n      0x00\n        /* \"Project/simulated-transactions.sol\":3294:3311  _to != address(0) */\n      0xffffffffffffffffffffffffffffffffffffffff\n      and\n        /* \"Project/simulated-transactions.sol\":3294:3297  _to */\n      dup5\n        /* \"Project/simulated-transactions.sol\":3294:3311  _to != address(0) */\n      0xffffffffffffffffffffffffffffffffffffffff\n      and\n      sub\n        /* \"Project/simulated-transactions.sol\":3286:3343  require(_to != address(0), \"Cannot send to zero address\") */\n      tag_143\n      jumpi\n      mload(0x40)\n      0x08c379a000000000000000000000000000000000000000000000000000000000\n      dup2\n      mstore\n      0x04\n      add\n      tag_144\n      swap1\n      tag_145\n      jump\t// in\n    tag_144:\n      mload(0x40)\n      dup1\n      swap2\n      sub\n      swap1\n      revert\n    tag_143:\n        /* \"Project/simulated-transactions.sol\":3368:3378  msg.sender */\n      caller\n        /* \"Project/simulated-transactions.sol\":3361:3378  _to != msg.sender */\n      0xffffffffffffffffffffffffffffffffffffffff\n      and\n        /* \"Project/simulated-transactions.sol\":3361:3364  _to */\n      dup5\n        /* \"Project/simulated-transactions.sol\":3361:3378  _to != msg.sender */\n      0xffffffffffffffffffffffffffffffffffffffff\n      and\n      sub\n        /* \"Project/simulated-transactions.sol\":3353:3406  require(_to != msg.sender, \"Cannot send to yourself\") */\n      tag_146\n      jumpi\n      mload(0x40)\n      0x08c379a000000000000000000000000000000000000000000000000000000000\n      dup2\n      mstore\n      0x04\n      add\n      tag_147\n      swap1\n      tag_148\n      jump\t// in\n    tag_147:\n      mload(0x40)\n      dup1\n      swap2\n      sub\n      swap1\n      revert\n    tag_146:\n        /* \"Project/simulated-transactions.sol\":3434:3435  0 */\n      0x00\n        /* \"Project/simulated-transactions.sol\":3424:3431  _amount */\n      dup4\n        /* \"Project/simulated-transactions.sol\":3424:3435  _amount > 0 */\n      gt\n        /* \"Project/simulated-transactions.sol\":3416:3469  require(_amount > 0, \"Amount must be greater than 0\") */\n      tag_149\n      jumpi\n      mload(0x40)\n      0x08c379a000000000000000000000000000000000000000000000000000000000\n      dup2\n      mstore\n      0x04\n      add\n      tag_150\n      swap1\n      tag_102\n      jump\t// in\n    tag_150:\n      mload(0x40)\n      dup1\n      swap2\n      sub\n      swap1\n      revert\n    tag_149:\n        /* \"Project/simulated-transactions.sol\":3521:3528  _amount */\n      dup3\n        /* \"Project/simulated-transactions.sol\":3488:3505  simulatedBalances */\n      0x01\n        /* \"Project/simulated-transactions.sol\":3488:3517  simulatedBalances[msg.sender] */\n      0x00\n        /* \"Project/simulated-transactions.sol\":3506:3516  msg.sender */\n      caller\n        /* \"Project/simulated-transactions.sol\":3488:3517  simulatedBalances[msg.sender] */\n      0xffffffffffffffffffffffffffffffffffffffff\n      and\n      0xffffffffffffffffffffffffffffffffffffffff\n      and\n      dup2\n      mstore\n      0x20\n      add\n      swap1\n      dup2\n      mstore\n      0x20\n      add\n      0x00\n      keccak256\n      0x00\n        /* \"Project/simulated-transactions.sol\":3488:3528  simulatedBalances[msg.sender] -= _amount */\n      dup3\n      dup3\n      sload\n      tag_151\n      swap2\n      swap1\n      tag_104\n      jump\t// in\n    tag_151:\n      swap3\n      pop\n      pop\n      dup2\n      swap1\n      sstore\n      pop\n        /* \"Project/simulated-transactions.sol\":3564:3571  _amount */\n      dup3\n        /* \"Project/simulated-transactions.sol\":3538:3555  simulatedBalances */\n      0x01\n        /* \"Project/simulated-transactions.sol\":3538:3560  simulatedBalances[_to] */\n      0x00\n        /* \"Project/simulated-transactions.sol\":3556:3559  _to */\n      dup7\n        /* \"Project/simulated-transactions.sol\":3538:3560  simulatedBalances[_to] */\n      0xffffffffffffffffffffffffffffffffffffffff\n      and\n      0xffffffffffffffffffffffffffffffffffffffff\n      and\n      dup2\n      mstore\n      0x20\n      add\n      swap1\n      dup2\n      mstore\n      0x20\n      add\n      0x00\n      keccak256\n      0x00\n        /* \"Project/simulated-transactions.sol\":3538:3571  simulatedBalances[_to] += _amount */\n      dup3\n      dup3\n      sload\n      tag_152\n      swap2\n      swap1\n      tag_123\n      jump\t// in\n    tag_152:\n      swap3\n      pop\n      pop\n      dup2\n      swap1\n      sstore\n      pop\n        /* \"Project/simulated-transactions.sol\":3628:3631  _to */\n      dup4\n        /* \"Project/simulated-transactions.sol\":3595:3653  SimulatedTransaction(msg.sender, _to, _amount, \"Transfer\") */\n      0xffffffffffffffffffffffffffffffffffffffff\n      and\n        /* \"Project/simulated-transactions.sol\":3616:3626  msg.sender */\n      caller\n        /* \"Project/simulated-transactions.sol\":3595:3653  SimulatedTransaction(msg.sender, _to, _amount, \"Transfer\") */\n      0xffffffffffffffffffffffffffffffffffffffff\n      and\n      0x90e478cc849d235624f0935f41fbbe7861a594ce506e5840e92e107406a7123e\n        /* \"Project/simulated-transactions.sol\":3633:3640  _amount */\n      dup6\n        /* \"Project/simulated-transactions.sol\":3595:3653  SimulatedTransaction(msg.sender, _to, _amount, \"Transfer\") */\n      mload(0x40)\n      tag_153\n      swap2\n      swap1\n      tag_154\n      jump\t// in\n    tag_153:\n      mload(0x40)\n      dup1\n      swap2\n      sub\n      swap1\n      log3\n        /* \"Project/simulated-transactions.sol\":1320:1321  _ */\n      pop\n        /* \"Project/simulated-transactions.sol\":974:975  _ */\n      pop\n        /* \"Project/simulated-transactions.sol\":994:999  false */\n      0x00\n        /* \"Project/simulated-transactions.sol\":985:991  locked */\n      0x02\n      0x00\n        /* \"Project/simulated-transactions.sol\":985:999  locked = false */\n      0x0100\n      exp\n      dup2\n      sload\n      dup2\n      0xff\n      mul\n      not\n      and\n      swap1\n      dup4\n      iszero\n      iszero\n      mul\n      or\n      swap1\n      sstore\n      pop\n        /* \"Project/simulated-transactions.sol\":3137:3660  function transferSimulatedEther(address _to, uint256 _amount) public nonReentrant hasEnoughBalance(_amount) belowTransactionLimit(_amount) {... */\n      pop\n      pop\n      jump\t// out\n        /* \"Project/simulated-transactions.sol\":2347:2639  function mintSimulatedEther(uint256 _amount) public nonReentrant belowTransactionLimit(_amount) {... */\n    tag_72:\n        /* \"Project/simulated-transactions.sol\":889:895  locked */\n      0x02\n      0x00\n      swap1\n      sload\n      swap1\n      0x0100\n      exp\n      swap1\n      div\n      0xff\n      and\n        /* \"Project/simulated-transactions.sol\":888:895  !locked */\n      iszero\n        /* \"Project/simulated-transactions.sol\":880:941  require(!locked, \"Reentrancy protection: contract is locked\") */\n      tag_156\n      jumpi\n      mload(0x40)\n      0x08c379a000000000000000000000000000000000000000000000000000000000\n      dup2\n      mstore\n      0x04\n      add\n      tag_157\n      swap1\n      tag_90\n      jump\t// in\n    tag_157:\n      mload(0x40)\n      dup1\n      swap2\n      sub\n      swap1\n      revert\n    tag_156:\n        /* \"Project/simulated-transactions.sol\":960:964  true */\n      0x01\n        /* \"Project/simulated-transactions.sol\":951:957  locked */\n      0x02\n      0x00\n        /* \"Project/simulated-transactions.sol\":951:964  locked = true */\n      0x0100\n      exp\n      dup2\n      sload\n      dup2\n      0xff\n      mul\n      not\n      and\n      swap1\n      dup4\n      iszero\n      iszero\n      mul\n      or\n      swap1\n      sstore\n      pop\n        /* \"Project/simulated-transactions.sol\":2434:2441  _amount */\n      dup1\n        /* \"Project/simulated-transactions.sol\":1093:1109  transactionLimit */\n      sload(0x03)\n        /* \"Project/simulated-transactions.sol\":1082:1089  _amount */\n      dup2\n        /* \"Project/simulated-transactions.sol\":1082:1109  _amount <= transactionLimit */\n      gt\n      iszero\n        /* \"Project/simulated-transactions.sol\":1074:1146  require(_amount <= transactionLimit, \"Amount exceeds transaction limit\") */\n      tag_159\n      jumpi\n      mload(0x40)\n      0x08c379a000000000000000000000000000000000000000000000000000000000\n      dup2\n      mstore\n      0x04\n      add\n      tag_160\n      swap1\n      tag_98\n      jump\t// in\n    tag_160:\n      mload(0x40)\n      dup1\n      swap2\n      sub\n      swap1\n      revert\n    tag_159:\n        /* \"Project/simulated-transactions.sol\":2471:2472  0 */\n      0x00\n        /* \"Project/simulated-transactions.sol\":2461:2468  _amount */\n      dup3\n        /* \"Project/simulated-transactions.sol\":2461:2472  _amount > 0 */\n      gt\n        /* \"Project/simulated-transactions.sol\":2453:2506  require(_amount > 0, \"Amount must be greater than 0\") */\n      tag_162\n      jumpi\n      mload(0x40)\n      0x08c379a000000000000000000000000000000000000000000000000000000000\n      dup2\n      mstore\n      0x04\n      add\n      tag_163\n      swap1\n      tag_102\n      jump\t// in\n    tag_163:\n      mload(0x40)\n      dup1\n      swap2\n      sub\n      swap1\n      revert\n    tag_162:\n        /* \"Project/simulated-transactions.sol\":2549:2556  _amount */\n      dup2\n        /* \"Project/simulated-transactions.sol\":2516:2533  simulatedBalances */\n      0x01\n        /* \"Project/simulated-transactions.sol\":2516:2545  simulatedBalances[msg.sender] */\n      0x00\n        /* \"Project/simulated-transactions.sol\":2534:2544  msg.sender */\n      caller\n        /* \"Project/simulated-transactions.sol\":2516:2545  simulatedBalances[msg.sender] */\n      0xffffffffffffffffffffffffffffffffffffffff\n      and\n      0xffffffffffffffffffffffffffffffffffffffff\n      and\n      dup2\n      mstore\n      0x20\n      add\n      swap1\n      dup2\n      mstore\n      0x20\n      add\n      0x00\n      keccak256\n      0x00\n        /* \"Project/simulated-transactions.sol\":2516:2556  simulatedBalances[msg.sender] += _amount */\n      dup3\n      dup3\n      sload\n      tag_164\n      swap2\n      swap1\n      tag_123\n      jump\t// in\n    tag_164:\n      swap3\n      pop\n      pop\n      dup2\n      swap1\n      sstore\n      pop\n        /* \"Project/simulated-transactions.sol\":2604:2614  msg.sender */\n      caller\n        /* \"Project/simulated-transactions.sol\":2571:2632  SimulatedTransaction(address(0), msg.sender, _amount, \"Mint\") */\n      0xffffffffffffffffffffffffffffffffffffffff\n      and\n        /* \"Project/simulated-transactions.sol\":2600:2601  0 */\n      0x00\n        /* \"Project/simulated-transactions.sol\":2571:2632  SimulatedTransaction(address(0), msg.sender, _amount, \"Mint\") */\n      0xffffffffffffffffffffffffffffffffffffffff\n      and\n      0x90e478cc849d235624f0935f41fbbe7861a594ce506e5840e92e107406a7123e\n        /* \"Project/simulated-transactions.sol\":2616:2623  _amount */\n      dup5\n        /* \"Project/simulated-transactions.sol\":2571:2632  SimulatedTransaction(address(0), msg.sender, _amount, \"Mint\") */\n      mload(0x40)\n      tag_165\n      swap2\n      swap1\n      tag_166\n      jump\t// in\n    tag_165:\n      mload(0x40)\n      dup1\n      swap2\n      sub\n      swap1\n      log3\n        /* \"Project/simulated-transactions.sol\":974:975  _ */\n      pop\n        /* \"Project/simulated-transactions.sol\":994:999  false */\n      0x00\n        /* \"Project/simulated-transactions.sol\":985:991  locked */\n      0x02\n      0x00\n        /* \"Project/simulated-transactions.sol\":985:999  locked = false */\n      0x0100\n      exp\n      dup2\n      sload\n      dup2\n      0xff\n      mul\n      not\n      and\n      swap1\n      dup4\n      iszero\n      iszero\n      mul\n      or\n      swap1\n      sstore\n      pop\n        /* \"Project/simulated-transactions.sol\":2347:2639  function mintSimulatedEther(uint256 _amount) public nonReentrant belowTransactionLimit(_amount) {... */\n      pop\n      jump\t// out\n        /* \"#utility.yul\":7:176   */\n    tag_167:\n        /* \"#utility.yul\":91:102   */\n      0x00\n        /* \"#utility.yul\":125:131   */\n      dup3\n        /* \"#utility.yul\":120:123   */\n      dup3\n        /* \"#utility.yul\":113:132   */\n      mstore\n        /* \"#utility.yul\":165:169   */\n      0x20\n        /* \"#utility.yul\":160:163   */\n      dup3\n        /* \"#utility.yul\":156:170   */\n      add\n        /* \"#utility.yul\":141:170   */\n      swap1\n      pop\n        /* \"#utility.yul\":7:176   */\n      swap3\n      swap2\n      pop\n      pop\n      jump\t// out\n        /* \"#utility.yul\":182:407   */\n    tag_168:\n        /* \"#utility.yul\":322:356   */\n      0x4e6f207265616c2045544820706c6561736521202d207468697320697320616c\n        /* \"#utility.yul\":318:319   */\n      0x00\n        /* \"#utility.yul\":310:316   */\n      dup3\n        /* \"#utility.yul\":306:320   */\n      add\n        /* \"#utility.yul\":299:357   */\n      mstore\n        /* \"#utility.yul\":391:399   */\n      0x6c2066616b650000000000000000000000000000000000000000000000000000\n        /* \"#utility.yul\":386:388   */\n      0x20\n        /* \"#utility.yul\":378:384   */\n      dup3\n        /* \"#utility.yul\":374:389   */\n      add\n        /* \"#utility.yul\":367:400   */\n      mstore\n        /* \"#utility.yul\":182:407   */\n      pop\n      jump\t// out\n        /* \"#utility.yul\":413:779   */\n    tag_169:\n        /* \"#utility.yul\":555:558   */\n      0x00\n        /* \"#utility.yul\":576:643   */\n      tag_215\n        /* \"#utility.yul\":640:642   */\n      0x26\n        /* \"#utility.yul\":635:638   */\n      dup4\n        /* \"#utility.yul\":576:643   */\n      tag_167\n      jump\t// in\n    tag_215:\n        /* \"#utility.yul\":569:643   */\n      swap2\n      pop\n        /* \"#utility.yul\":652:745   */\n      tag_216\n        /* \"#utility.yul\":741:744   */\n      dup3\n        /* \"#utility.yul\":652:745   */\n      tag_168\n      jump\t// in\n    tag_216:\n        /* \"#utility.yul\":770:772   */\n      0x40\n        /* \"#utility.yul\":765:768   */\n      dup3\n        /* \"#utility.yul\":761:773   */\n      add\n        /* \"#utility.yul\":754:773   */\n      swap1\n      pop\n        /* \"#utility.yul\":413:779   */\n      swap2\n      swap1\n      pop\n      jump\t// out\n        /* \"#utility.yul\":785:1204   */\n    tag_18:\n        /* \"#utility.yul\":951:955   */\n      0x00\n        /* \"#utility.yul\":989:991   */\n      0x20\n        /* \"#utility.yul\":978:987   */\n      dup3\n        /* \"#utility.yul\":974:992   */\n      add\n        /* \"#utility.yul\":966:992   */\n      swap1\n      pop\n        /* \"#utility.yul\":1038:1047   */\n      dup2\n        /* \"#utility.yul\":1032:1036   */\n      dup2\n        /* \"#utility.yul\":1028:1048   */\n      sub\n        /* \"#utility.yul\":1024:1025   */\n      0x00\n        /* \"#utility.yul\":1013:1022   */\n      dup4\n        /* \"#utility.yul\":1009:1026   */\n      add\n        /* \"#utility.yul\":1002:1049   */\n      mstore\n        /* \"#utility.yul\":1066:1197   */\n      tag_218\n        /* \"#utility.yul\":1192:1196   */\n      dup2\n        /* \"#utility.yul\":1066:1197   */\n      tag_169\n      jump\t// in\n    tag_218:\n        /* \"#utility.yul\":1058:1197   */\n      swap1\n      pop\n        /* \"#utility.yul\":785:1204   */\n      swap2\n      swap1\n      pop\n      jump\t// out\n        /* \"#utility.yul\":1291:1408   */\n    tag_171:\n        /* \"#utility.yul\":1400:1401   */\n      0x00\n        /* \"#utility.yul\":1397:1398   */\n      dup1\n        /* \"#utility.yul\":1390:1402   */\n      revert\n        /* \"#utility.yul\":1537:1663   */\n    tag_173:\n        /* \"#utility.yul\":1574:1581   */\n      0x00\n        /* \"#utility.yul\":1614:1656   */\n      0xffffffffffffffffffffffffffffffffffffffff\n        /* \"#utility.yul\":1607:1612   */\n      dup3\n        /* \"#utility.yul\":1603:1657   */\n      and\n        /* \"#utility.yul\":1592:1657   */\n      swap1\n      pop\n        /* \"#utility.yul\":1537:1663   */\n      swap2\n      swap1\n      pop\n      jump\t// out\n        /* \"#utility.yul\":1669:1765   */\n    tag_174:\n        /* \"#utility.yul\":1706:1713   */\n      0x00\n        /* \"#utility.yul\":1735:1759   */\n      tag_224\n        /* \"#utility.yul\":1753:1758   */\n      dup3\n        /* \"#utility.yul\":1735:1759   */\n      tag_173\n      jump\t// in\n    tag_224:\n        /* \"#utility.yul\":1724:1759   */\n      swap1\n      pop\n        /* \"#utility.yul\":1669:1765   */\n      swap2\n      swap1\n      pop\n      jump\t// out\n        /* \"#utility.yul\":1771:1893   */\n    tag_175:\n        /* \"#utility.yul\":1844:1868   */\n      tag_226\n        /* \"#utility.yul\":1862:1867   */\n      dup2\n        /* \"#utility.yul\":1844:1868   */\n      tag_174\n      jump\t// in\n    tag_226:\n        /* \"#utility.yul\":1837:1842   */\n      dup2\n        /* \"#utility.yul\":1834:1869   */\n      eq\n        /* \"#utility.yul\":1824:1887   */\n      tag_227\n      jumpi\n        /* \"#utility.yul\":1883:1884   */\n      0x00\n        /* \"#utility.yul\":1880:1881   */\n      dup1\n        /* \"#utility.yul\":1873:1885   */\n      revert\n        /* \"#utility.yul\":1824:1887   */\n    tag_227:\n        /* \"#utility.yul\":1771:1893   */\n      pop\n      jump\t// out\n        /* \"#utility.yul\":1899:2038   */\n    tag_176:\n        /* \"#utility.yul\":1945:1950   */\n      0x00\n        /* \"#utility.yul\":1983:1989   */\n      dup2\n        /* \"#utility.yul\":1970:1990   */\n      calldataload\n        /* \"#utility.yul\":1961:1990   */\n      swap1\n      pop\n        /* \"#utility.yul\":1999:2032   */\n      tag_229\n        /* \"#utility.yul\":2026:2031   */\n      dup2\n        /* \"#utility.yul\":1999:2032   */\n      tag_175\n      jump\t// in\n    tag_229:\n        /* \"#utility.yul\":1899:2038   */\n      swap3\n      swap2\n      pop\n      pop\n      jump\t// out\n        /* \"#utility.yul\":2044:2373   */\n    tag_25:\n        /* \"#utility.yul\":2103:2109   */\n      0x00\n        /* \"#utility.yul\":2152:2154   */\n      0x20\n        /* \"#utility.yul\":2140:2149   */\n      dup3\n        /* \"#utility.yul\":2131:2138   */\n      dup5\n        /* \"#utility.yul\":2127:2150   */\n      sub\n        /* \"#utility.yul\":2123:2155   */\n      slt\n        /* \"#utility.yul\":2120:2239   */\n      iszero\n      tag_231\n      jumpi\n        /* \"#utility.yul\":2158:2237   */\n      tag_232\n      tag_171\n      jump\t// in\n    tag_232:\n        /* \"#utility.yul\":2120:2239   */\n    tag_231:\n        /* \"#utility.yul\":2278:2279   */\n      0x00\n        /* \"#utility.yul\":2303:2356   */\n      tag_233\n        /* \"#utility.yul\":2348:2355   */\n      dup5\n        /* \"#utility.yul\":2339:2345   */\n      dup3\n        /* \"#utility.yul\":2328:2337   */\n      dup6\n        /* \"#utility.yul\":2324:2346   */\n      add\n        /* \"#utility.yul\":2303:2356   */\n      tag_176\n      jump\t// in\n    tag_233:\n        /* \"#utility.yul\":2293:2356   */\n      swap2\n      pop\n        /* \"#utility.yul\":2249:2366   */\n      pop\n        /* \"#utility.yul\":2044:2373   */\n      swap3\n      swap2\n      pop\n      pop\n      jump\t// out\n        /* \"#utility.yul\":2379:2456   */\n    tag_177:\n        /* \"#utility.yul\":2416:2423   */\n      0x00\n        /* \"#utility.yul\":2445:2450   */\n      dup2\n        /* \"#utility.yul\":2434:2450   */\n      swap1\n      pop\n        /* \"#utility.yul\":2379:2456   */\n      swap2\n      swap1\n      pop\n      jump\t// out\n        /* \"#utility.yul\":2462:2580   */\n    tag_178:\n        /* \"#utility.yul\":2549:2573   */\n      tag_236\n        /* \"#utility.yul\":2567:2572   */\n      dup2\n        /* \"#utility.yul\":2549:2573   */\n      tag_177\n      jump\t// in\n    tag_236:\n        /* \"#utility.yul\":2544:2547   */\n      dup3\n        /* \"#utility.yul\":2537:2574   */\n      mstore\n        /* \"#utility.yul\":2462:2580   */\n      pop\n      pop\n      jump\t// out\n        /* \"#utility.yul\":2586:2808   */\n    tag_28:\n        /* \"#utility.yul\":2679:2683   */\n      0x00\n        /* \"#utility.yul\":2717:2719   */\n      0x20\n        /* \"#utility.yul\":2706:2715   */\n      dup3\n        /* \"#utility.yul\":2702:2720   */\n      add\n        /* \"#utility.yul\":2694:2720   */\n      swap1\n      pop\n        /* \"#utility.yul\":2730:2801   */\n      tag_238\n        /* \"#utility.yul\":2798:2799   */\n      0x00\n        /* \"#utility.yul\":2787:2796   */\n      dup4\n        /* \"#utility.yul\":2783:2800   */\n      add\n        /* \"#utility.yul\":2774:2780   */\n      dup5\n        /* \"#utility.yul\":2730:2801   */\n      tag_178\n      jump\t// in\n    tag_238:\n        /* \"#utility.yul\":2586:2808   */\n      swap3\n      swap2\n      pop\n      pop\n      jump\t// out\n        /* \"#utility.yul\":2814:2936   */\n    tag_179:\n        /* \"#utility.yul\":2887:2911   */\n      tag_240\n        /* \"#utility.yul\":2905:2910   */\n      dup2\n        /* \"#utility.yul\":2887:2911   */\n      tag_177\n      jump\t// in\n    tag_240:\n        /* \"#utility.yul\":2880:2885   */\n      dup2\n        /* \"#utility.yul\":2877:2912   */\n      eq\n        /* \"#utility.yul\":2867:2930   */\n      tag_241\n      jumpi\n        /* \"#utility.yul\":2926:2927   */\n      0x00\n        /* \"#utility.yul\":2923:2924   */\n      dup1\n        /* \"#utility.yul\":2916:2928   */\n      revert\n        /* \"#utility.yul\":2867:2930   */\n    tag_241:\n        /* \"#utility.yul\":2814:2936   */\n      pop\n      jump\t// out\n        /* \"#utility.yul\":2942:3081   */\n    tag_180:\n        /* \"#utility.yul\":2988:2993   */\n      0x00\n        /* \"#utility.yul\":3026:3032   */\n      dup2\n        /* \"#utility.yul\":3013:3033   */\n      calldataload\n        /* \"#utility.yul\":3004:3033   */\n      swap1\n      pop\n        /* \"#utility.yul\":3042:3075   */\n      tag_243\n        /* \"#utility.yul\":3069:3074   */\n      dup2\n        /* \"#utility.yul\":3042:3075   */\n      tag_179\n      jump\t// in\n    tag_243:\n        /* \"#utility.yul\":2942:3081   */\n      swap3\n      swap2\n      pop\n      pop\n      jump\t// out\n        /* \"#utility.yul\":3087:3416   */\n    tag_36:\n        /* \"#utility.yul\":3146:3152   */\n      0x00\n        /* \"#utility.yul\":3195:3197   */\n      0x20\n        /* \"#utility.yul\":3183:3192   */\n      dup3\n        /* \"#utility.yul\":3174:3181   */\n      dup5\n        /* \"#utility.yul\":3170:3193   */\n      sub\n        /* \"#utility.yul\":3166:3198   */\n      slt\n        /* \"#utility.yul\":3163:3282   */\n      iszero\n      tag_245\n      jumpi\n        /* \"#utility.yul\":3201:3280   */\n      tag_246\n      tag_171\n      jump\t// in\n    tag_246:\n        /* \"#utility.yul\":3163:3282   */\n    tag_245:\n        /* \"#utility.yul\":3321:3322   */\n      0x00\n        /* \"#utility.yul\":3346:3399   */\n      tag_247\n        /* \"#utility.yul\":3391:3398   */\n      dup5\n        /* \"#utility.yul\":3382:3388   */\n      dup3\n        /* \"#utility.yul\":3371:3380   */\n      dup6\n        /* \"#utility.yul\":3367:3389   */\n      add\n        /* \"#utility.yul\":3346:3399   */\n      tag_180\n      jump\t// in\n    tag_247:\n        /* \"#utility.yul\":3336:3399   */\n      swap2\n      pop\n        /* \"#utility.yul\":3292:3409   */\n      pop\n        /* \"#utility.yul\":3087:3416   */\n      swap3\n      swap2\n      pop\n      pop\n      jump\t// out\n        /* \"#utility.yul\":3422:3540   */\n    tag_181:\n        /* \"#utility.yul\":3509:3533   */\n      tag_249\n        /* \"#utility.yul\":3527:3532   */\n      dup2\n        /* \"#utility.yul\":3509:3533   */\n      tag_174\n      jump\t// in\n    tag_249:\n        /* \"#utility.yul\":3504:3507   */\n      dup3\n        /* \"#utility.yul\":3497:3534   */\n      mstore\n        /* \"#utility.yul\":3422:3540   */\n      pop\n      pop\n      jump\t// out\n        /* \"#utility.yul\":3546:3768   */\n    tag_42:\n        /* \"#utility.yul\":3639:3643   */\n      0x00\n        /* \"#utility.yul\":3677:3679   */\n      0x20\n        /* \"#utility.yul\":3666:3675   */\n      dup3\n        /* \"#utility.yul\":3662:3680   */\n      add\n        /* \"#utility.yul\":3654:3680   */\n      swap1\n      pop\n        /* \"#utility.yul\":3690:3761   */\n      tag_251\n        /* \"#utility.yul\":3758:3759   */\n      0x00\n        /* \"#utility.yul\":3747:3756   */\n      dup4\n        /* \"#utility.yul\":3743:3760   */\n      add\n        /* \"#utility.yul\":3734:3740   */\n      dup5\n        /* \"#utility.yul\":3690:3761   */\n      tag_181\n      jump\t// in\n    tag_251:\n        /* \"#utility.yul\":3546:3768   */\n      swap3\n      swap2\n      pop\n      pop\n      jump\t// out\n        /* \"#utility.yul\":3774:4248   */\n    tag_55:\n        /* \"#utility.yul\":3842:3848   */\n      0x00\n        /* \"#utility.yul\":3850:3856   */\n      dup1\n        /* \"#utility.yul\":3899:3901   */\n      0x40\n        /* \"#utility.yul\":3887:3896   */\n      dup4\n        /* \"#utility.yul\":3878:3885   */\n      dup6\n        /* \"#utility.yul\":3874:3897   */\n      sub\n        /* \"#utility.yul\":3870:3902   */\n      slt\n        /* \"#utility.yul\":3867:3986   */\n      iszero\n      tag_253\n      jumpi\n        /* \"#utility.yul\":3905:3984   */\n      tag_254\n      tag_171\n      jump\t// in\n    tag_254:\n        /* \"#utility.yul\":3867:3986   */\n    tag_253:\n        /* \"#utility.yul\":4025:4026   */\n      0x00\n        /* \"#utility.yul\":4050:4103   */\n      tag_255\n        /* \"#utility.yul\":4095:4102   */\n      dup6\n        /* \"#utility.yul\":4086:4092   */\n      dup3\n        /* \"#utility.yul\":4075:4084   */\n      dup7\n        /* \"#utility.yul\":4071:4093   */\n      add\n        /* \"#utility.yul\":4050:4103   */\n      tag_176\n      jump\t// in\n    tag_255:\n        /* \"#utility.yul\":4040:4103   */\n      swap3\n      pop\n        /* \"#utility.yul\":3996:4113   */\n      pop\n        /* \"#utility.yul\":4152:4154   */\n      0x20\n        /* \"#utility.yul\":4178:4231   */\n      tag_256\n        /* \"#utility.yul\":4223:4230   */\n      dup6\n        /* \"#utility.yul\":4214:4220   */\n      dup3\n        /* \"#utility.yul\":4203:4212   */\n      dup7\n        /* \"#utility.yul\":4199:4221   */\n      add\n        /* \"#utility.yul\":4178:4231   */\n      tag_180\n      jump\t// in\n    tag_256:\n        /* \"#utility.yul\":4168:4231   */\n      swap2\n      pop\n        /* \"#utility.yul\":4123:4241   */\n      pop\n        /* \"#utility.yul\":3774:4248   */\n      swap3\n      pop\n      swap3\n      swap1\n      pop\n      jump\t// out\n        /* \"#utility.yul\":4254:4426   */\n    tag_182:\n        /* \"#utility.yul\":4394:4418   */\n      0x4e6f742074686520636f6e7472616374206f776e657200000000000000000000\n        /* \"#utility.yul\":4390:4391   */\n      0x00\n        /* \"#utility.yul\":4382:4388   */\n      dup3\n        /* \"#utility.yul\":4378:4392   */\n      add\n        /* \"#utility.yul\":4371:4419   */\n      mstore\n        /* \"#utility.yul\":4254:4426   */\n      pop\n      jump\t// out\n        /* \"#utility.yul\":4432:4798   */\n    tag_183:\n        /* \"#utility.yul\":4574:4577   */\n      0x00\n        /* \"#utility.yul\":4595:4662   */\n      tag_259\n        /* \"#utility.yul\":4659:4661   */\n      0x16\n        /* \"#utility.yul\":4654:4657   */\n      dup4\n        /* \"#utility.yul\":4595:4662   */\n      tag_167\n      jump\t// in\n    tag_259:\n        /* \"#utility.yul\":4588:4662   */\n      swap2\n      pop\n        /* \"#utility.yul\":4671:4764   */\n      tag_260\n        /* \"#utility.yul\":4760:4763   */\n      dup3\n        /* \"#utility.yul\":4671:4764   */\n      tag_182\n      jump\t// in\n    tag_260:\n        /* \"#utility.yul\":4789:4791   */\n      0x20\n        /* \"#utility.yul\":4784:4787   */\n      dup3\n        /* \"#utility.yul\":4780:4792   */\n      add\n        /* \"#utility.yul\":4773:4792   */\n      swap1\n      pop\n        /* \"#utility.yul\":4432:4798   */\n      swap2\n      swap1\n      pop\n      jump\t// out\n        /* \"#utility.yul\":4804:5223   */\n    tag_77:\n        /* \"#utility.yul\":4970:4974   */\n      0x00\n        /* \"#utility.yul\":5008:5010   */\n      0x20\n        /* \"#utility.yul\":4997:5006   */\n      dup3\n        /* \"#utility.yul\":4993:5011   */\n      add\n        /* \"#utility.yul\":4985:5011   */\n      swap1\n      pop\n        /* \"#utility.yul\":5057:5066   */\n      dup2\n        /* \"#utility.yul\":5051:5055   */\n      dup2\n        /* \"#utility.yul\":5047:5067   */\n      sub\n        /* \"#utility.yul\":5043:5044   */\n      0x00\n        /* \"#utility.yul\":5032:5041   */\n      dup4\n        /* \"#utility.yul\":5028:5045   */\n      add\n        /* \"#utility.yul\":5021:5068   */\n      mstore\n        /* \"#utility.yul\":5085:5216   */\n      tag_262\n        /* \"#utility.yul\":5211:5215   */\n      dup2\n        /* \"#utility.yul\":5085:5216   */\n      tag_183\n      jump\t// in\n    tag_262:\n        /* \"#utility.yul\":5077:5216   */\n      swap1\n      pop\n        /* \"#utility.yul\":4804:5223   */\n      swap2\n      swap1\n      pop\n      jump\t// out\n        /* \"#utility.yul\":5229:5384   */\n    tag_184:\n        /* \"#utility.yul\":5369:5376   */\n      0x5265736574000000000000000000000000000000000000000000000000000000\n        /* \"#utility.yul\":5365:5366   */\n      0x00\n        /* \"#utility.yul\":5357:5363   */\n      dup3\n        /* \"#utility.yul\":5353:5367   */\n      add\n        /* \"#utility.yul\":5346:5377   */\n      mstore\n        /* \"#utility.yul\":5229:5384   */\n      pop\n      jump\t// out\n        /* \"#utility.yul\":5390:5755   */\n    tag_185:\n        /* \"#utility.yul\":5532:5535   */\n      0x00\n        /* \"#utility.yul\":5553:5619   */\n      tag_265\n        /* \"#utility.yul\":5617:5618   */\n      0x05\n        /* \"#utility.yul\":5612:5615   */\n      dup4\n        /* \"#utility.yul\":5553:5619   */\n      tag_167\n      jump\t// in\n    tag_265:\n        /* \"#utility.yul\":5546:5619   */\n      swap2\n      pop\n        /* \"#utility.yul\":5628:5721   */\n      tag_266\n        /* \"#utility.yul\":5717:5720   */\n      dup3\n        /* \"#utility.yul\":5628:5721   */\n      tag_184\n      jump\t// in\n    tag_266:\n        /* \"#utility.yul\":5746:5748   */\n      0x20\n        /* \"#utility.yul\":5741:5744   */\n      dup3\n        /* \"#utility.yul\":5737:5749   */\n      add\n        /* \"#utility.yul\":5730:5749   */\n      swap1\n      pop\n        /* \"#utility.yul\":5390:5755   */\n      swap2\n      swap1\n      pop\n      jump\t// out\n        /* \"#utility.yul\":5761:6290   */\n    tag_80:\n        /* \"#utility.yul\":5955:5959   */\n      0x00\n        /* \"#utility.yul\":5993:5995   */\n      0x40\n        /* \"#utility.yul\":5982:5991   */\n      dup3\n        /* \"#utility.yul\":5978:5996   */\n      add\n        /* \"#utility.yul\":5970:5996   */\n      swap1\n      pop\n        /* \"#utility.yul\":6006:6077   */\n      tag_268\n        /* \"#utility.yul\":6074:6075   */\n      0x00\n        /* \"#utility.yul\":6063:6072   */\n      dup4\n        /* \"#utility.yul\":6059:6076   */\n      add\n        /* \"#utility.yul\":6050:6056   */\n      dup5\n        /* \"#utility.yul\":6006:6077   */\n      tag_178\n      jump\t// in\n    tag_268:\n        /* \"#utility.yul\":6124:6133   */\n      dup2\n        /* \"#utility.yul\":6118:6122   */\n      dup2\n        /* \"#utility.yul\":6114:6134   */\n      sub\n        /* \"#utility.yul\":6109:6111   */\n      0x20\n        /* \"#utility.yul\":6098:6107   */\n      dup4\n        /* \"#utility.yul\":6094:6112   */\n      add\n        /* \"#utility.yul\":6087:6135   */\n      mstore\n        /* \"#utility.yul\":6152:6283   */\n      tag_269\n        /* \"#utility.yul\":6278:6282   */\n      dup2\n        /* \"#utility.yul\":6152:6283   */\n      tag_185\n      jump\t// in\n    tag_269:\n        /* \"#utility.yul\":6144:6283   */\n      swap1\n      pop\n        /* \"#utility.yul\":5761:6290   */\n      swap3\n      swap2\n      pop\n      pop\n      jump\t// out\n        /* \"#utility.yul\":6296:6628   */\n    tag_86:\n        /* \"#utility.yul\":6417:6421   */\n      0x00\n        /* \"#utility.yul\":6455:6457   */\n      0x40\n        /* \"#utility.yul\":6444:6453   */\n      dup3\n        /* \"#utility.yul\":6440:6458   */\n      add\n        /* \"#utility.yul\":6432:6458   */\n      swap1\n      pop\n        /* \"#utility.yul\":6468:6539   */\n      tag_271\n        /* \"#utility.yul\":6536:6537   */\n      0x00\n        /* \"#utility.yul\":6525:6534   */\n      dup4\n        /* \"#utility.yul\":6521:6538   */\n      add\n        /* \"#utility.yul\":6512:6518   */\n      dup6\n        /* \"#utility.yul\":6468:6539   */\n      tag_178\n      jump\t// in\n    tag_271:\n        /* \"#utility.yul\":6549:6621   */\n      tag_272\n        /* \"#utility.yul\":6617:6619   */\n      0x20\n        /* \"#utility.yul\":6606:6615   */\n      dup4\n        /* \"#utility.yul\":6602:6620   */\n      add\n        /* \"#utility.yul\":6593:6599   */\n      dup5\n        /* \"#utility.yul\":6549:6621   */\n      tag_178\n      jump\t// in\n    tag_272:\n        /* \"#utility.yul\":6296:6628   */\n      swap4\n      swap3\n      pop\n      pop\n      pop\n      jump\t// out\n        /* \"#utility.yul\":6634:6862   */\n    tag_186:\n        /* \"#utility.yul\":6774:6808   */\n      0x5265656e7472616e63792070726f74656374696f6e3a20636f6e747261637420\n        /* \"#utility.yul\":6770:6771   */\n      0x00\n        /* \"#utility.yul\":6762:6768   */\n      dup3\n        /* \"#utility.yul\":6758:6772   */\n      add\n        /* \"#utility.yul\":6751:6809   */\n      mstore\n        /* \"#utility.yul\":6843:6854   */\n      0x6973206c6f636b65640000000000000000000000000000000000000000000000\n        /* \"#utility.yul\":6838:6840   */\n      0x20\n        /* \"#utility.yul\":6830:6836   */\n      dup3\n        /* \"#utility.yul\":6826:6841   */\n      add\n        /* \"#utility.yul\":6819:6855   */\n      mstore\n        /* \"#utility.yul\":6634:6862   */\n      pop\n      jump\t// out\n        /* \"#utility.yul\":6868:7234   */\n    tag_187:\n        /* \"#utility.yul\":7010:7013   */\n      0x00\n        /* \"#utility.yul\":7031:7098   */\n      tag_275\n        /* \"#utility.yul\":7095:7097   */\n      0x29\n        /* \"#utility.yul\":7090:7093   */\n      dup4\n        /* \"#utility.yul\":7031:7098   */\n      tag_167\n      jump\t// in\n    tag_275:\n        /* \"#utility.yul\":7024:7098   */\n      swap2\n      pop\n        /* \"#utility.yul\":7107:7200   */\n      tag_276\n        /* \"#utility.yul\":7196:7199   */\n      dup3\n        /* \"#utility.yul\":7107:7200   */\n      tag_186\n      jump\t// in\n    tag_276:\n        /* \"#utility.yul\":7225:7227   */\n      0x40\n        /* \"#utility.yul\":7220:7223   */\n      dup3\n        /* \"#utility.yul\":7216:7228   */\n      add\n        /* \"#utility.yul\":7209:7228   */\n      swap1\n      pop\n        /* \"#utility.yul\":6868:7234   */\n      swap2\n      swap1\n      pop\n      jump\t// out\n        /* \"#utility.yul\":7240:7659   */\n    tag_90:\n        /* \"#utility.yul\":7406:7410   */\n      0x00\n        /* \"#utility.yul\":7444:7446   */\n      0x20\n        /* \"#utility.yul\":7433:7442   */\n      dup3\n        /* \"#utility.yul\":7429:7447   */\n      add\n        /* \"#utility.yul\":7421:7447   */\n      swap1\n      pop\n        /* \"#utility.yul\":7493:7502   */\n      dup2\n        /* \"#utility.yul\":7487:7491   */\n      dup2\n        /* \"#utility.yul\":7483:7503   */\n      sub\n        /* \"#utility.yul\":7479:7480   */\n      0x00\n        /* \"#utility.yul\":7468:7477   */\n      dup4\n        /* \"#utility.yul\":7464:7481   */\n      add\n        /* \"#utility.yul\":7457:7504   */\n      mstore\n        /* \"#utility.yul\":7521:7652   */\n      tag_278\n        /* \"#utility.yul\":7647:7651   */\n      dup2\n        /* \"#utility.yul\":7521:7652   */\n      tag_187\n      jump\t// in\n    tag_278:\n        /* \"#utility.yul\":7513:7652   */\n      swap1\n      pop\n        /* \"#utility.yul\":7240:7659   */\n      swap2\n      swap1\n      pop\n      jump\t// out\n        /* \"#utility.yul\":7665:7845   */\n    tag_188:\n        /* \"#utility.yul\":7805:7837   */\n      0x496e73756666696369656e742073696d756c617465642062616c616e63650000\n        /* \"#utility.yul\":7801:7802   */\n      0x00\n        /* \"#utility.yul\":7793:7799   */\n      dup3\n        /* \"#utility.yul\":7789:7803   */\n      add\n        /* \"#utility.yul\":7782:7838   */\n      mstore\n        /* \"#utility.yul\":7665:7845   */\n      pop\n      jump\t// out\n        /* \"#utility.yul\":7851:8217   */\n    tag_189:\n        /* \"#utility.yul\":7993:7996   */\n      0x00\n        /* \"#utility.yul\":8014:8081   */\n      tag_281\n        /* \"#utility.yul\":8078:8080   */\n      0x1e\n        /* \"#utility.yul\":8073:8076   */\n      dup4\n        /* \"#utility.yul\":8014:8081   */\n      tag_167\n      jump\t// in\n    tag_281:\n        /* \"#utility.yul\":8007:8081   */\n      swap2\n      pop\n        /* \"#utility.yul\":8090:8183   */\n      tag_282\n        /* \"#utility.yul\":8179:8182   */\n      dup3\n        /* \"#utility.yul\":8090:8183   */\n      tag_188\n      jump\t// in\n    tag_282:\n        /* \"#utility.yul\":8208:8210   */\n      0x20\n        /* \"#utility.yul\":8203:8206   */\n      dup3\n        /* \"#utility.yul\":8199:8211   */\n      add\n        /* \"#utility.yul\":8192:8211   */\n      swap1\n      pop\n        /* \"#utility.yul\":7851:8217   */\n      swap2\n      swap1\n      pop\n      jump\t// out\n        /* \"#utility.yul\":8223:8642   */\n    tag_94:\n        /* \"#utility.yul\":8389:8393   */\n      0x00\n        /* \"#utility.yul\":8427:8429   */\n      0x20\n        /* \"#utility.yul\":8416:8425   */\n      dup3\n        /* \"#utility.yul\":8412:8430   */\n      add\n        /* \"#utility.yul\":8404:8430   */\n      swap1\n      pop\n        /* \"#utility.yul\":8476:8485   */\n      dup2\n        /* \"#utility.yul\":8470:8474   */\n      dup2\n        /* \"#utility.yul\":8466:8486   */\n      sub\n        /* \"#utility.yul\":8462:8463   */\n      0x00\n        /* \"#utility.yul\":8451:8460   */\n      dup4\n        /* \"#utility.yul\":8447:8464   */\n      add\n        /* \"#utility.yul\":8440:8487   */\n      mstore\n        /* \"#utility.yul\":8504:8635   */\n      tag_284\n        /* \"#utility.yul\":8630:8634   */\n      dup2\n        /* \"#utility.yul\":8504:8635   */\n      tag_189\n      jump\t// in\n    tag_284:\n        /* \"#utility.yul\":8496:8635   */\n      swap1\n      pop\n        /* \"#utility.yul\":8223:8642   */\n      swap2\n      swap1\n      pop\n      jump\t// out\n        /* \"#utility.yul\":8648:8830   */\n    tag_190:\n        /* \"#utility.yul\":8788:8822   */\n      0x416d6f756e742065786365656473207472616e73616374696f6e206c696d6974\n        /* \"#utility.yul\":8784:8785   */\n      0x00\n        /* \"#utility.yul\":8776:8782   */\n      dup3\n        /* \"#utility.yul\":8772:8786   */\n      add\n        /* \"#utility.yul\":8765:8823   */\n      mstore\n        /* \"#utility.yul\":8648:8830   */\n      pop\n      jump\t// out\n        /* \"#utility.yul\":8836:9202   */\n    tag_191:\n        /* \"#utility.yul\":8978:8981   */\n      0x00\n        /* \"#utility.yul\":8999:9066   */\n      tag_287\n        /* \"#utility.yul\":9063:9065   */\n      0x20\n        /* \"#utility.yul\":9058:9061   */\n      dup4\n        /* \"#utility.yul\":8999:9066   */\n      tag_167\n      jump\t// in\n    tag_287:\n        /* \"#utility.yul\":8992:9066   */\n      swap2\n      pop\n        /* \"#utility.yul\":9075:9168   */\n      tag_288\n        /* \"#utility.yul\":9164:9167   */\n      dup3\n        /* \"#utility.yul\":9075:9168   */\n      tag_190\n      jump\t// in\n    tag_288:\n        /* \"#utility.yul\":9193:9195   */\n      0x20\n        /* \"#utility.yul\":9188:9191   */\n      dup3\n        /* \"#utility.yul\":9184:9196   */\n      add\n        /* \"#utility.yul\":9177:9196   */\n      swap1\n      pop\n        /* \"#utility.yul\":8836:9202   */\n      swap2\n      swap1\n      pop\n      jump\t// out\n        /* \"#utility.yul\":9208:9627   */\n    tag_98:\n        /* \"#utility.yul\":9374:9378   */\n      0x00\n        /* \"#utility.yul\":9412:9414   */\n      0x20\n        /* \"#utility.yul\":9401:9410   */\n      dup3\n        /* \"#utility.yul\":9397:9415   */\n      add\n        /* \"#utility.yul\":9389:9415   */\n      swap1\n      pop\n        /* \"#utility.yul\":9461:9470   */\n      dup2\n        /* \"#utility.yul\":9455:9459   */\n      dup2\n        /* \"#utility.yul\":9451:9471   */\n      sub\n        /* \"#utility.yul\":9447:9448   */\n      0x00\n        /* \"#utility.yul\":9436:9445   */\n      dup4\n        /* \"#utility.yul\":9432:9449   */\n      add\n        /* \"#utility.yul\":9425:9472   */\n      mstore\n        /* \"#utility.yul\":9489:9620   */\n      tag_290\n        /* \"#utility.yul\":9615:9619   */\n      dup2\n        /* \"#utility.yul\":9489:9620   */\n      tag_191\n      jump\t// in\n    tag_290:\n        /* \"#utility.yul\":9481:9620   */\n      swap1\n      pop\n        /* \"#utility.yul\":9208:9627   */\n      swap2\n      swap1\n      pop\n      jump\t// out\n        /* \"#utility.yul\":9633:9812   */\n    tag_192:\n        /* \"#utility.yul\":9773:9804   */\n      0x416d6f756e74206d7573742062652067726561746572207468616e2030000000\n        /* \"#utility.yul\":9769:9770   */\n      0x00\n        /* \"#utility.yul\":9761:9767   */\n      dup3\n        /* \"#utility.yul\":9757:9771   */\n      add\n        /* \"#utility.yul\":9750:9805   */\n      mstore\n        /* \"#utility.yul\":9633:9812   */\n      pop\n      jump\t// out\n        /* \"#utility.yul\":9818:10184   */\n    tag_193:\n        /* \"#utility.yul\":9960:9963   */\n      0x00\n        /* \"#utility.yul\":9981:10048   */\n      tag_293\n        /* \"#utility.yul\":10045:10047   */\n      0x1d\n        /* \"#utility.yul\":10040:10043   */\n      dup4\n        /* \"#utility.yul\":9981:10048   */\n      tag_167\n      jump\t// in\n    tag_293:\n        /* \"#utility.yul\":9974:10048   */\n      swap2\n      pop\n        /* \"#utility.yul\":10057:10150   */\n      tag_294\n        /* \"#utility.yul\":10146:10149   */\n      dup3\n        /* \"#utility.yul\":10057:10150   */\n      tag_192\n      jump\t// in\n    tag_294:\n        /* \"#utility.yul\":10175:10177   */\n      0x20\n        /* \"#utility.yul\":10170:10173   */\n      dup3\n        /* \"#utility.yul\":10166:10178   */\n      add\n        /* \"#utility.yul\":10159:10178   */\n      swap1\n      pop\n        /* \"#utility.yul\":9818:10184   */\n      swap2\n      swap1\n      pop\n      jump\t// out\n        /* \"#utility.yul\":10190:10609   */\n    tag_102:\n        /* \"#utility.yul\":10356:10360   */\n      0x00\n        /* \"#utility.yul\":10394:10396   */\n      0x20\n        /* \"#utility.yul\":10383:10392   */\n      dup3\n        /* \"#utility.yul\":10379:10397   */\n      add\n        /* \"#utility.yul\":10371:10397   */\n      swap1\n      pop\n        /* \"#utility.yul\":10443:10452   */\n      dup2\n        /* \"#utility.yul\":10437:10441   */\n      dup2\n        /* \"#utility.yul\":10433:10453   */\n      sub\n        /* \"#utility.yul\":10429:10430   */\n      0x00\n        /* \"#utility.yul\":10418:10427   */\n      dup4\n        /* \"#utility.yul\":10414:10431   */\n      add\n        /* \"#utility.yul\":10407:10454   */\n      mstore\n        /* \"#utility.yul\":10471:10602   */\n      tag_296\n        /* \"#utility.yul\":10597:10601   */\n      dup2\n        /* \"#utility.yul\":10471:10602   */\n      tag_193\n      jump\t// in\n    tag_296:\n        /* \"#utility.yul\":10463:10602   */\n      swap1\n      pop\n        /* \"#utility.yul\":10190:10609   */\n      swap2\n      swap1\n      pop\n      jump\t// out\n        /* \"#utility.yul\":10615:10795   */\n    tag_194:\n        /* \"#utility.yul\":10663:10740   */\n      0x4e487b7100000000000000000000000000000000000000000000000000000000\n        /* \"#utility.yul\":10660:10661   */\n      0x00\n        /* \"#utility.yul\":10653:10741   */\n      mstore\n        /* \"#utility.yul\":10760:10764   */\n      0x11\n        /* \"#utility.yul\":10757:10758   */\n      0x04\n        /* \"#utility.yul\":10750:10765   */\n      mstore\n        /* \"#utility.yul\":10784:10788   */\n      0x24\n        /* \"#utility.yul\":10781:10782   */\n      0x00\n        /* \"#utility.yul\":10774:10789   */\n      revert\n        /* \"#utility.yul\":10801:10995   */\n    tag_104:\n        /* \"#utility.yul\":10841:10845   */\n      0x00\n        /* \"#utility.yul\":10861:10881   */\n      tag_299\n        /* \"#utility.yul\":10879:10880   */\n      dup3\n        /* \"#utility.yul\":10861:10881   */\n      tag_177\n      jump\t// in\n    tag_299:\n        /* \"#utility.yul\":10856:10881   */\n      swap2\n      pop\n        /* \"#utility.yul\":10895:10915   */\n      tag_300\n        /* \"#utility.yul\":10913:10914   */\n      dup4\n        /* \"#utility.yul\":10895:10915   */\n      tag_177\n      jump\t// in\n    tag_300:\n        /* \"#utility.yul\":10890:10915   */\n      swap3\n      pop\n        /* \"#utility.yul\":10939:10940   */\n      dup3\n        /* \"#utility.yul\":10936:10937   */\n      dup3\n        /* \"#utility.yul\":10932:10941   */\n      sub\n        /* \"#utility.yul\":10924:10941   */\n      swap1\n      pop\n        /* \"#utility.yul\":10963:10964   */\n      dup2\n        /* \"#utility.yul\":10957:10961   */\n      dup2\n        /* \"#utility.yul\":10954:10965   */\n      gt\n        /* \"#utility.yul\":10951:10988   */\n      iszero\n      tag_301\n      jumpi\n        /* \"#utility.yul\":10968:10986   */\n      tag_302\n      tag_194\n      jump\t// in\n    tag_302:\n        /* \"#utility.yul\":10951:10988   */\n    tag_301:\n        /* \"#utility.yul\":10801:10995   */\n      swap3\n      swap2\n      pop\n      pop\n      jump\t// out\n        /* \"#utility.yul\":11001:11155   */\n    tag_195:\n        /* \"#utility.yul\":11141:11147   */\n      0x4275726e00000000000000000000000000000000000000000000000000000000\n        /* \"#utility.yul\":11137:11138   */\n      0x00\n        /* \"#utility.yul\":11129:11135   */\n      dup3\n        /* \"#utility.yul\":11125:11139   */\n      add\n        /* \"#utility.yul\":11118:11148   */\n      mstore\n        /* \"#utility.yul\":11001:11155   */\n      pop\n      jump\t// out\n        /* \"#utility.yul\":11161:11526   */\n    tag_196:\n        /* \"#utility.yul\":11303:11306   */\n      0x00\n        /* \"#utility.yul\":11324:11390   */\n      tag_305\n        /* \"#utility.yul\":11388:11389   */\n      0x04\n        /* \"#utility.yul\":11383:11386   */\n      dup4\n        /* \"#utility.yul\":11324:11390   */\n      tag_167\n      jump\t// in\n    tag_305:\n        /* \"#utility.yul\":11317:11390   */\n      swap2\n      pop\n        /* \"#utility.yul\":11399:11492   */\n      tag_306\n        /* \"#utility.yul\":11488:11491   */\n      dup3\n        /* \"#utility.yul\":11399:11492   */\n      tag_195\n      jump\t// in\n    tag_306:\n        /* \"#utility.yul\":11517:11519   */\n      0x20\n        /* \"#utility.yul\":11512:11515   */\n      dup3\n        /* \"#utility.yul\":11508:11520   */\n      add\n        /* \"#utility.yul\":11501:11520   */\n      swap1\n      pop\n        /* \"#utility.yul\":11161:11526   */\n      swap2\n      swap1\n      pop\n      jump\t// out\n        /* \"#utility.yul\":11532:12061   */\n    tag_106:\n        /* \"#utility.yul\":11726:11730   */\n      0x00\n        /* \"#utility.yul\":11764:11766   */\n      0x40\n        /* \"#utility.yul\":11753:11762   */\n      dup3\n        /* \"#utility.yul\":11749:11767   */\n      add\n        /* \"#utility.yul\":11741:11767   */\n      swap1\n      pop\n        /* \"#utility.yul\":11777:11848   */\n      tag_308\n        /* \"#utility.yul\":11845:11846   */\n      0x00\n        /* \"#utility.yul\":11834:11843   */\n      dup4\n        /* \"#utility.yul\":11830:11847   */\n      add\n        /* \"#utility.yul\":11821:11827   */\n      dup5\n        /* \"#utility.yul\":11777:11848   */\n      tag_178\n      jump\t// in\n    tag_308:\n        /* \"#utility.yul\":11895:11904   */\n      dup2\n        /* \"#utility.yul\":11889:11893   */\n      dup2\n        /* \"#utility.yul\":11885:11905   */\n      sub\n        /* \"#utility.yul\":11880:11882   */\n      0x20\n        /* \"#utility.yul\":11869:11878   */\n      dup4\n        /* \"#utility.yul\":11865:11883   */\n      add\n        /* \"#utility.yul\":11858:11906   */\n      mstore\n        /* \"#utility.yul\":11923:12054   */\n      tag_309\n        /* \"#utility.yul\":12049:12053   */\n      dup2\n        /* \"#utility.yul\":11923:12054   */\n      tag_196\n      jump\t// in\n    tag_309:\n        /* \"#utility.yul\":11915:12054   */\n      swap1\n      pop\n        /* \"#utility.yul\":11532:12061   */\n      swap3\n      swap2\n      pop\n      pop\n      jump\t// out\n        /* \"#utility.yul\":12067:12245   */\n    tag_197:\n        /* \"#utility.yul\":12207:12237   */\n      0x43616e6e6f74206772616e7420746f207a65726f206164647265737300000000\n        /* \"#utility.yul\":12203:12204   */\n      0x00\n        /* \"#utility.yul\":12195:12201   */\n      dup3\n        /* \"#utility.yul\":12191:12205   */\n      add\n        /* \"#utility.yul\":12184:12238   */\n      mstore\n        /* \"#utility.yul\":12067:12245   */\n      pop\n      jump\t// out\n        /* \"#utility.yul\":12251:12617   */\n    tag_198:\n        /* \"#utility.yul\":12393:12396   */\n      0x00\n        /* \"#utility.yul\":12414:12481   */\n      tag_312\n        /* \"#utility.yul\":12478:12480   */\n      0x1c\n        /* \"#utility.yul\":12473:12476   */\n      dup4\n        /* \"#utility.yul\":12414:12481   */\n      tag_167\n      jump\t// in\n    tag_312:\n        /* \"#utility.yul\":12407:12481   */\n      swap2\n      pop\n        /* \"#utility.yul\":12490:12583   */\n      tag_313\n        /* \"#utility.yul\":12579:12582   */\n      dup3\n        /* \"#utility.yul\":12490:12583   */\n      tag_197\n      jump\t// in\n    tag_313:\n        /* \"#utility.yul\":12608:12610   */\n      0x20\n        /* \"#utility.yul\":12603:12606   */\n      dup3\n        /* \"#utility.yul\":12599:12611   */\n      add\n        /* \"#utility.yul\":12592:12611   */\n      swap1\n      pop\n        /* \"#utility.yul\":12251:12617   */\n      swap2\n      swap1\n      pop\n      jump\t// out\n        /* \"#utility.yul\":12623:13042   */\n    tag_119:\n        /* \"#utility.yul\":12789:12793   */\n      0x00\n        /* \"#utility.yul\":12827:12829   */\n      0x20\n        /* \"#utility.yul\":12816:12825   */\n      dup3\n        /* \"#utility.yul\":12812:12830   */\n      add\n        /* \"#utility.yul\":12804:12830   */\n      swap1\n      pop\n        /* \"#utility.yul\":12876:12885   */\n      dup2\n        /* \"#utility.yul\":12870:12874   */\n      dup2\n        /* \"#utility.yul\":12866:12886   */\n      sub\n        /* \"#utility.yul\":12862:12863   */\n      0x00\n        /* \"#utility.yul\":12851:12860   */\n      dup4\n        /* \"#utility.yul\":12847:12864   */\n      add\n        /* \"#utility.yul\":12840:12887   */\n      mstore\n        /* \"#utility.yul\":12904:13035   */\n      tag_315\n        /* \"#utility.yul\":13030:13034   */\n      dup2\n        /* \"#utility.yul\":12904:13035   */\n      tag_198\n      jump\t// in\n    tag_315:\n        /* \"#utility.yul\":12896:13035   */\n      swap1\n      pop\n        /* \"#utility.yul\":12623:13042   */\n      swap2\n      swap1\n      pop\n      jump\t// out\n        /* \"#utility.yul\":13048:13239   */\n    tag_123:\n        /* \"#utility.yul\":13088:13091   */\n      0x00\n        /* \"#utility.yul\":13107:13127   */\n      tag_317\n        /* \"#utility.yul\":13125:13126   */\n      dup3\n        /* \"#utility.yul\":13107:13127   */\n      tag_177\n      jump\t// in\n    tag_317:\n        /* \"#utility.yul\":13102:13127   */\n      swap2\n      pop\n        /* \"#utility.yul\":13141:13161   */\n      tag_318\n        /* \"#utility.yul\":13159:13160   */\n      dup4\n        /* \"#utility.yul\":13141:13161   */\n      tag_177\n      jump\t// in\n    tag_318:\n        /* \"#utility.yul\":13136:13161   */\n      swap3\n      pop\n        /* \"#utility.yul\":13184:13185   */\n      dup3\n        /* \"#utility.yul\":13181:13182   */\n      dup3\n        /* \"#utility.yul\":13177:13186   */\n      add\n        /* \"#utility.yul\":13170:13186   */\n      swap1\n      pop\n        /* \"#utility.yul\":13205:13208   */\n      dup1\n        /* \"#utility.yul\":13202:13203   */\n      dup3\n        /* \"#utility.yul\":13199:13209   */\n      gt\n        /* \"#utility.yul\":13196:13232   */\n      iszero\n      tag_319\n      jumpi\n        /* \"#utility.yul\":13212:13230   */\n      tag_320\n      tag_194\n      jump\t// in\n    tag_320:\n        /* \"#utility.yul\":13196:13232   */\n    tag_319:\n        /* \"#utility.yul\":13048:13239   */\n      swap3\n      swap2\n      pop\n      pop\n      jump\t// out\n        /* \"#utility.yul\":13245:13400   */\n    tag_199:\n        /* \"#utility.yul\":13385:13392   */\n      0x4772616e74000000000000000000000000000000000000000000000000000000\n        /* \"#utility.yul\":13381:13382   */\n      0x00\n        /* \"#utility.yul\":13373:13379   */\n      dup3\n        /* \"#utility.yul\":13369:13383   */\n      add\n        /* \"#utility.yul\":13362:13393   */\n      mstore\n        /* \"#utility.yul\":13245:13400   */\n      pop\n      jump\t// out\n        /* \"#utility.yul\":13406:13771   */\n    tag_200:\n        /* \"#utility.yul\":13548:13551   */\n      0x00\n        /* \"#utility.yul\":13569:13635   */\n      tag_323\n        /* \"#utility.yul\":13633:13634   */\n      0x05\n        /* \"#utility.yul\":13628:13631   */\n      dup4\n        /* \"#utility.yul\":13569:13635   */\n      tag_167\n      jump\t// in\n    tag_323:\n        /* \"#utility.yul\":13562:13635   */\n      swap2\n      pop\n        /* \"#utility.yul\":13644:13737   */\n      tag_324\n        /* \"#utility.yul\":13733:13736   */\n      dup3\n        /* \"#utility.yul\":13644:13737   */\n      tag_199\n      jump\t// in\n    tag_324:\n        /* \"#utility.yul\":13762:13764   */\n      0x20\n        /* \"#utility.yul\":13757:13760   */\n      dup3\n        /* \"#utility.yul\":13753:13765   */\n      add\n        /* \"#utility.yul\":13746:13765   */\n      swap1\n      pop\n        /* \"#utility.yul\":13406:13771   */\n      swap2\n      swap1\n      pop\n      jump\t// out\n        /* \"#utility.yul\":13777:14306   */\n    tag_125:\n        /* \"#utility.yul\":13971:13975   */\n      0x00\n        /* \"#utility.yul\":14009:14011   */\n      0x40\n        /* \"#utility.yul\":13998:14007   */\n      dup3\n        /* \"#utility.yul\":13994:14012   */\n      add\n        /* \"#utility.yul\":13986:14012   */\n      swap1\n      pop\n        /* \"#utility.yul\":14022:14093   */\n      tag_326\n        /* \"#utility.yul\":14090:14091   */\n      0x00\n        /* \"#utility.yul\":14079:14088   */\n      dup4\n        /* \"#utility.yul\":14075:14092   */\n      add\n        /* \"#utility.yul\":14066:14072   */\n      dup5\n        /* \"#utility.yul\":14022:14093   */\n      tag_178\n      jump\t// in\n    tag_326:\n        /* \"#utility.yul\":14140:14149   */\n      dup2\n        /* \"#utility.yul\":14134:14138   */\n      dup2\n        /* \"#utility.yul\":14130:14150   */\n      sub\n        /* \"#utility.yul\":14125:14127   */\n      0x20\n        /* \"#utility.yul\":14114:14123   */\n      dup4\n        /* \"#utility.yul\":14110:14128   */\n      add\n        /* \"#utility.yul\":14103:14151   */\n      mstore\n        /* \"#utility.yul\":14168:14299   */\n      tag_327\n        /* \"#utility.yul\":14294:14298   */\n      dup2\n        /* \"#utility.yul\":14168:14299   */\n      tag_200\n      jump\t// in\n    tag_327:\n        /* \"#utility.yul\":14160:14299   */\n      swap1\n      pop\n        /* \"#utility.yul\":13777:14306   */\n      swap3\n      swap2\n      pop\n      pop\n      jump\t// out\n        /* \"#utility.yul\":14312:14493   */\n    tag_201:\n        /* \"#utility.yul\":14452:14485   */\n      0x43616e6e6f74207472616e7366657220746f207a65726f206164647265737300\n        /* \"#utility.yul\":14448:14449   */\n      0x00\n        /* \"#utility.yul\":14440:14446   */\n      dup3\n        /* \"#utility.yul\":14436:14450   */\n      add\n        /* \"#utility.yul\":14429:14486   */\n      mstore\n        /* \"#utility.yul\":14312:14493   */\n      pop\n      jump\t// out\n        /* \"#utility.yul\":14499:14865   */\n    tag_202:\n        /* \"#utility.yul\":14641:14644   */\n      0x00\n        /* \"#utility.yul\":14662:14729   */\n      tag_330\n        /* \"#utility.yul\":14726:14728   */\n      0x1f\n        /* \"#utility.yul\":14721:14724   */\n      dup4\n        /* \"#utility.yul\":14662:14729   */\n      tag_167\n      jump\t// in\n    tag_330:\n        /* \"#utility.yul\":14655:14729   */\n      swap2\n      pop\n        /* \"#utility.yul\":14738:14831   */\n      tag_331\n        /* \"#utility.yul\":14827:14830   */\n      dup3\n        /* \"#utility.yul\":14738:14831   */\n      tag_201\n      jump\t// in\n    tag_331:\n        /* \"#utility.yul\":14856:14858   */\n      0x20\n        /* \"#utility.yul\":14851:14854   */\n      dup3\n        /* \"#utility.yul\":14847:14859   */\n      add\n        /* \"#utility.yul\":14840:14859   */\n      swap1\n      pop\n        /* \"#utility.yul\":14499:14865   */\n      swap2\n      swap1\n      pop\n      jump\t// out\n        /* \"#utility.yul\":14871:15290   */\n    tag_132:\n        /* \"#utility.yul\":15037:15041   */\n      0x00\n        /* \"#utility.yul\":15075:15077   */\n      0x20\n        /* \"#utility.yul\":15064:15073   */\n      dup3\n        /* \"#utility.yul\":15060:15078   */\n      add\n        /* \"#utility.yul\":15052:15078   */\n      swap1\n      pop\n        /* \"#utility.yul\":15124:15133   */\n      dup2\n        /* \"#utility.yul\":15118:15122   */\n      dup2\n        /* \"#utility.yul\":15114:15134   */\n      sub\n        /* \"#utility.yul\":15110:15111   */\n      0x00\n        /* \"#utility.yul\":15099:15108   */\n      dup4\n        /* \"#utility.yul\":15095:15112   */\n      add\n        /* \"#utility.yul\":15088:15135   */\n      mstore\n        /* \"#utility.yul\":15152:15283   */\n      tag_333\n        /* \"#utility.yul\":15278:15282   */\n      dup2\n        /* \"#utility.yul\":15152:15283   */\n      tag_202\n      jump\t// in\n    tag_333:\n        /* \"#utility.yul\":15144:15283   */\n      swap1\n      pop\n        /* \"#utility.yul\":14871:15290   */\n      swap2\n      swap1\n      pop\n      jump\t// out\n        /* \"#utility.yul\":15296:15473   */\n    tag_203:\n        /* \"#utility.yul\":15436:15465   */\n      0x43616e6e6f742073656e6420746f207a65726f20616464726573730000000000\n        /* \"#utility.yul\":15432:15433   */\n      0x00\n        /* \"#utility.yul\":15424:15430   */\n      dup3\n        /* \"#utility.yul\":15420:15434   */\n      add\n        /* \"#utility.yul\":15413:15466   */\n      mstore\n        /* \"#utility.yul\":15296:15473   */\n      pop\n      jump\t// out\n        /* \"#utility.yul\":15479:15845   */\n    tag_204:\n        /* \"#utility.yul\":15621:15624   */\n      0x00\n        /* \"#utility.yul\":15642:15709   */\n      tag_336\n        /* \"#utility.yul\":15706:15708   */\n      0x1b\n        /* \"#utility.yul\":15701:15704   */\n      dup4\n        /* \"#utility.yul\":15642:15709   */\n      tag_167\n      jump\t// in\n    tag_336:\n        /* \"#utility.yul\":15635:15709   */\n      swap2\n      pop\n        /* \"#utility.yul\":15718:15811   */\n      tag_337\n        /* \"#utility.yul\":15807:15810   */\n      dup3\n        /* \"#utility.yul\":15718:15811   */\n      tag_203\n      jump\t// in\n    tag_337:\n        /* \"#utility.yul\":15836:15838   */\n      0x20\n        /* \"#utility.yul\":15831:15834   */\n      dup3\n        /* \"#utility.yul\":15827:15839   */\n      add\n        /* \"#utility.yul\":15820:15839   */\n      swap1\n      pop\n        /* \"#utility.yul\":15479:15845   */\n      swap2\n      swap1\n      pop\n      jump\t// out\n        /* \"#utility.yul\":15851:16270   */\n    tag_145:\n        /* \"#utility.yul\":16017:16021   */\n      0x00\n        /* \"#utility.yul\":16055:16057   */\n      0x20\n        /* \"#utility.yul\":16044:16053   */\n      dup3\n        /* \"#utility.yul\":16040:16058   */\n      add\n        /* \"#utility.yul\":16032:16058   */\n      swap1\n      pop\n        /* \"#utility.yul\":16104:16113   */\n      dup2\n        /* \"#utility.yul\":16098:16102   */\n      dup2\n        /* \"#utility.yul\":16094:16114   */\n      sub\n        /* \"#utility.yul\":16090:16091   */\n      0x00\n        /* \"#utility.yul\":16079:16088   */\n      dup4\n        /* \"#utility.yul\":16075:16092   */\n      add\n        /* \"#utility.yul\":16068:16115   */\n      mstore\n        /* \"#utility.yul\":16132:16263   */\n      tag_339\n        /* \"#utility.yul\":16258:16262   */\n      dup2\n        /* \"#utility.yul\":16132:16263   */\n      tag_204\n      jump\t// in\n    tag_339:\n        /* \"#utility.yul\":16124:16263   */\n      swap1\n      pop\n        /* \"#utility.yul\":15851:16270   */\n      swap2\n      swap1\n      pop\n      jump\t// out\n        /* \"#utility.yul\":16276:16449   */\n    tag_205:\n        /* \"#utility.yul\":16416:16441   */\n      0x43616e6e6f742073656e6420746f20796f757273656c66000000000000000000\n        /* \"#utility.yul\":16412:16413   */\n      0x00\n        /* \"#utility.yul\":16404:16410   */\n      dup3\n        /* \"#utility.yul\":16400:16414   */\n      add\n        /* \"#utility.yul\":16393:16442   */\n      mstore\n        /* \"#utility.yul\":16276:16449   */\n      pop\n      jump\t// out\n        /* \"#utility.yul\":16455:16821   */\n    tag_206:\n        /* \"#utility.yul\":16597:16600   */\n      0x00\n        /* \"#utility.yul\":16618:16685   */\n      tag_342\n        /* \"#utility.yul\":16682:16684   */\n      0x17\n        /* \"#utility.yul\":16677:16680   */\n      dup4\n        /* \"#utility.yul\":16618:16685   */\n      tag_167\n      jump\t// in\n    tag_342:\n        /* \"#utility.yul\":16611:16685   */\n      swap2\n      pop\n        /* \"#utility.yul\":16694:16787   */\n      tag_343\n        /* \"#utility.yul\":16783:16786   */\n      dup3\n        /* \"#utility.yul\":16694:16787   */\n      tag_205\n      jump\t// in\n    tag_343:\n        /* \"#utility.yul\":16812:16814   */\n      0x20\n        /* \"#utility.yul\":16807:16810   */\n      dup3\n        /* \"#utility.yul\":16803:16815   */\n      add\n        /* \"#utility.yul\":16796:16815   */\n      swap1\n      pop\n        /* \"#utility.yul\":16455:16821   */\n      swap2\n      swap1\n      pop\n      jump\t// out\n        /* \"#utility.yul\":16827:17246   */\n    tag_148:\n        /* \"#utility.yul\":16993:16997   */\n      0x00\n        /* \"#utility.yul\":17031:17033   */\n      0x20\n        /* \"#utility.yul\":17020:17029   */\n      dup3\n        /* \"#utility.yul\":17016:17034   */\n      add\n        /* \"#utility.yul\":17008:17034   */\n      swap1\n      pop\n        /* \"#utility.yul\":17080:17089   */\n      dup2\n        /* \"#utility.yul\":17074:17078   */\n      dup2\n        /* \"#utility.yul\":17070:17090   */\n      sub\n        /* \"#utility.yul\":17066:17067   */\n      0x00\n        /* \"#utility.yul\":17055:17064   */\n      dup4\n        /* \"#utility.yul\":17051:17068   */\n      add\n        /* \"#utility.yul\":17044:17091   */\n      mstore\n        /* \"#utility.yul\":17108:17239   */\n      tag_345\n        /* \"#utility.yul\":17234:17238   */\n      dup2\n        /* \"#utility.yul\":17108:17239   */\n      tag_206\n      jump\t// in\n    tag_345:\n        /* \"#utility.yul\":17100:17239   */\n      swap1\n      pop\n        /* \"#utility.yul\":16827:17246   */\n      swap2\n      swap1\n      pop\n      jump\t// out\n        /* \"#utility.yul\":17252:17410   */\n    tag_207:\n        /* \"#utility.yul\":17392:17402   */\n      0x5472616e73666572000000000000000000000000000000000000000000000000\n        /* \"#utility.yul\":17388:17389   */\n      0x00\n        /* \"#utility.yul\":17380:17386   */\n      dup3\n        /* \"#utility.yul\":17376:17390   */\n      add\n        /* \"#utility.yul\":17369:17403   */\n      mstore\n        /* \"#utility.yul\":17252:17410   */\n      pop\n      jump\t// out\n        /* \"#utility.yul\":17416:17781   */\n    tag_208:\n        /* \"#utility.yul\":17558:17561   */\n      0x00\n        /* \"#utility.yul\":17579:17645   */\n      tag_348\n        /* \"#utility.yul\":17643:17644   */\n      0x08\n        /* \"#utility.yul\":17638:17641   */\n      dup4\n        /* \"#utility.yul\":17579:17645   */\n      tag_167\n      jump\t// in\n    tag_348:\n        /* \"#utility.yul\":17572:17645   */\n      swap2\n      pop\n        /* \"#utility.yul\":17654:17747   */\n      tag_349\n        /* \"#utility.yul\":17743:17746   */\n      dup3\n        /* \"#utility.yul\":17654:17747   */\n      tag_207\n      jump\t// in\n    tag_349:\n        /* \"#utility.yul\":17772:17774   */\n      0x20\n        /* \"#utility.yul\":17767:17770   */\n      dup3\n        /* \"#utility.yul\":17763:17775   */\n      add\n        /* \"#utility.yul\":17756:17775   */\n      swap1\n      pop\n        /* \"#utility.yul\":17416:17781   */\n      swap2\n      swap1\n      pop\n      jump\t// out\n        /* \"#utility.yul\":17787:18316   */\n    tag_154:\n        /* \"#utility.yul\":17981:17985   */\n      0x00\n        /* \"#utility.yul\":18019:18021   */\n      0x40\n        /* \"#utility.yul\":18008:18017   */\n      dup3\n        /* \"#utility.yul\":18004:18022   */\n      add\n        /* \"#utility.yul\":17996:18022   */\n      swap1\n      pop\n        /* \"#utility.yul\":18032:18103   */\n      tag_351\n        /* \"#utility.yul\":18100:18101   */\n      0x00\n        /* \"#utility.yul\":18089:18098   */\n      dup4\n        /* \"#utility.yul\":18085:18102   */\n      add\n        /* \"#utility.yul\":18076:18082   */\n      dup5\n        /* \"#utility.yul\":18032:18103   */\n      tag_178\n      jump\t// in\n    tag_351:\n        /* \"#utility.yul\":18150:18159   */\n      dup2\n        /* \"#utility.yul\":18144:18148   */\n      dup2\n        /* \"#utility.yul\":18140:18160   */\n      sub\n        /* \"#utility.yul\":18135:18137   */\n      0x20\n        /* \"#utility.yul\":18124:18133   */\n      dup4\n        /* \"#utility.yul\":18120:18138   */\n      add\n        /* \"#utility.yul\":18113:18161   */\n      mstore\n        /* \"#utility.yul\":18178:18309   */\n      tag_352\n        /* \"#utility.yul\":18304:18308   */\n      dup2\n        /* \"#utility.yul\":18178:18309   */\n      tag_208\n      jump\t// in\n    tag_352:\n        /* \"#utility.yul\":18170:18309   */\n      swap1\n      pop\n        /* \"#utility.yul\":17787:18316   */\n      swap3\n      swap2\n      pop\n      pop\n      jump\t// out\n        /* \"#utility.yul\":18322:18476   */\n    tag_209:\n        /* \"#utility.yul\":18462:18468   */\n      0x4d696e7400000000000000000000000000000000000000000000000000000000\n        /* \"#utility.yul\":18458:18459   */\n      0x00\n        /* \"#utility.yul\":18450:18456   */\n      dup3\n        /* \"#utility.yul\":18446:18460   */\n      add\n        /* \"#utility.yul\":18439:18469   */\n      mstore\n        /* \"#utility.yul\":18322:18476   */\n      pop\n      jump\t// out\n        /* \"#utility.yul\":18482:18847   */\n    tag_210:\n        /* \"#utility.yul\":18624:18627   */\n      0x00\n        /* \"#utility.yul\":18645:18711   */\n      tag_355\n        /* \"#utility.yul\":18709:18710   */\n      0x04\n        /* \"#utility.yul\":18704:18707   */\n      dup4\n        /* \"#utility.yul\":18645:18711   */\n      tag_167\n      jump\t// in\n    tag_355:\n        /* \"#utility.yul\":18638:18711   */\n      swap2\n      pop\n        /* \"#utility.yul\":18720:18813   */\n      tag_356\n        /* \"#utility.yul\":18809:18812   */\n      dup3\n        /* \"#utility.yul\":18720:18813   */\n      tag_209\n      jump\t// in\n    tag_356:\n        /* \"#utility.yul\":18838:18840   */\n      0x20\n        /* \"#utility.yul\":18833:18836   */\n      dup3\n        /* \"#utility.yul\":18829:18841   */\n      add\n        /* \"#utility.yul\":18822:18841   */\n      swap1\n      pop\n        /* \"#utility.yul\":18482:18847   */\n      swap2\n      swap1\n      pop\n      jump\t// out\n        /* \"#utility.yul\":18853:19382   */\n    tag_166:\n        /* \"#utility.yul\":19047:19051   */\n      0x00\n        /* \"#utility.yul\":19085:19087   */\n      0x40\n        /* \"#utility.yul\":19074:19083   */\n      dup3\n        /* \"#utility.yul\":19070:19088   */\n      add\n        /* \"#utility.yul\":19062:19088   */\n      swap1\n      pop\n        /* \"#utility.yul\":19098:19169   */\n      tag_358\n        /* \"#utility.yul\":19166:19167   */\n      0x00\n        /* \"#utility.yul\":19155:19164   */\n      dup4\n        /* \"#utility.yul\":19151:19168   */\n      add\n        /* \"#utility.yul\":19142:19148   */\n      dup5\n        /* \"#utility.yul\":19098:19169   */\n      tag_178\n      jump\t// in\n    tag_358:\n        /* \"#utility.yul\":19216:19225   */\n      dup2\n        /* \"#utility.yul\":19210:19214   */\n      dup2\n        /* \"#utility.yul\":19206:19226   */\n      sub\n        /* \"#utility.yul\":19201:19203   */\n      0x20\n        /* \"#utility.yul\":19190:19199   */\n      dup4\n        /* \"#utility.yul\":19186:19204   */\n      add\n        /* \"#utility.yul\":19179:19227   */\n      mstore\n        /* \"#utility.yul\":19244:19375   */\n      tag_359\n        /* \"#utility.yul\":19370:19374   */\n      dup2\n        /* \"#utility.yul\":19244:19375   */\n      tag_210\n      jump\t// in\n    tag_359:\n        /* \"#utility.yul\":19236:19375   */\n      swap1\n      pop\n        /* \"#utility.yul\":18853:19382   */\n      swap3\n      swap2\n      pop\n      pop\n      jump\t// out\n\n    auxdata: 0xa264697066735822122046499b76d50a87ce51d5729c04cdcf3ff7f3ac651f0472718147c507bdcae43664736f6c634300081a0033\n}\n",
				"bytecode": {
					"linkReferences": {},
					"object": "60806040526103e86003553480156014575f80fd5b50335f806101000a81548173ffffffffffffffffffffffffffffffffffffffff021916908373ffffffffffffffffffffffffffffffffffffffff16021790555061271060015f3373ffffffffffffffffffffffffffffffffffffffff1673ffffffffffffffffffffffffffffffffffffffff1681526020019081526020015f2081905550611af0806100a55f395ff3fe60806040526004361061009f575f3560e01c8063e51364fd11610063578063e51364fd146101f8578063e688996c14610234578063f19605d61461025c578063f2fde38b14610286578063f8b79895146102ae578063fa59571f146102d6576100df565b80633d6dde821461011a5780633fce58ee1461015657806364bfa5461461017e5780638da5cb5b146101a6578063dcd4f961146101d0576100df565b366100df576040517f08c379a00000000000000000000000000000000000000000000000000000000081526004016100d690611251565b60405180910390fd5b6040517f08c379a000000000000000000000000000000000000000000000000000000000815260040161011190611251565b60405180910390fd5b348015610125575f80fd5b50610140600480360381019061013b91906112cd565b6102fe565b60405161014d9190611310565b60405180910390f35b348015610161575f80fd5b5061017c600480360381019061017791906112cd565b610344565b005b348015610189575f80fd5b506101a4600480360381019061019f9190611353565b6104b8565b005b3480156101b1575f80fd5b506101ba61058f565b6040516101c7919061138d565b60405180910390f35b3480156101db575f80fd5b506101f660048036038101906101f19190611353565b6105b2565b005b348015610203575f80fd5b5061021e600480360381019061021991906112cd565b6107fa565b60405161022b9190611310565b60405180910390f35b34801561023f575f80fd5b5061025a600480360381019061025591906113a6565b61080f565b005b348015610267575f80fd5b50610270610ad1565b60405161027d9190611310565b60405180910390f35b348015610291575f80fd5b506102ac60048036038101906102a791906112cd565b610ad7565b005b3480156102b9575f80fd5b506102d460048036038101906102cf91906113a6565b610c93565b005b3480156102e1575f80fd5b506102fc60048036038101906102f79190611353565b61100b565b005b5f60015f8373ffffffffffffffffffffffffffffffffffffffff1673ffffffffffffffffffffffffffffffffffffffff1681526020019081526020015f20549050919050565b5f8054906101000a900473ffffffffffffffffffffffffffffffffffffffff1673ffffffffffffffffffffffffffffffffffffffff163373ffffffffffffffffffffffffffffffffffffffff16146103d1576040517f08c379a00000000000000000000000000000000000000000000000000000000081526004016103c89061142e565b60405180910390fd5b5f60015f8373ffffffffffffffffffffffffffffffffffffffff1673ffffffffffffffffffffffffffffffffffffffff1681526020019081526020015f20819055505f73ffffffffffffffffffffffffffffffffffffffff168173ffffffffffffffffffffffffffffffffffffffff167f90e478cc849d235624f0935f41fbbe7861a594ce506e5840e92e107406a7123e60015f8573ffffffffffffffffffffffffffffffffffffffff1673ffffffffffffffffffffffffffffffffffffffff1681526020019081526020015f20546040516104ad9190611496565b60405180910390a350565b5f8054906101000a900473ffffffffffffffffffffffffffffffffffffffff1673ffffffffffffffffffffffffffffffffffffffff163373ffffffffffffffffffffffffffffffffffffffff1614610545576040517f08c379a000000000000000000000000000000000000000000000000000000000815260040161053c9061142e565b60405180910390fd5b5f6003549050816003819055507f9084289eabaa2837ead6e96e56f4e7ce025cc4d9a938c05e4f006a6520b975d881836040516105839291906114c2565b60405180910390a15050565b5f8054906101000a900473ffffffffffffffffffffffffffffffffffffffff1681565b60025f9054906101000a900460ff1615610601576040517f08c379a00000000000000000000000000000000000000000000000000000000081526004016105f890611559565b60405180910390fd5b600160025f6101000a81548160ff021916908315150217905550808060015f3373ffffffffffffffffffffffffffffffffffffffff1673ffffffffffffffffffffffffffffffffffffffff1681526020019081526020015f2054101561069c576040517f08c379a0000000000000000000000000000000000000000000000000000000008152600401610693906115c1565b60405180910390fd5b816003548111156106e2576040517f08c379a00000000000000000000000000000000000000000000000000000000081526004016106d990611629565b60405180910390fd5b5f8311610724576040517f08c379a000000000000000000000000000000000000000000000000000000000815260040161071b90611691565b60405180910390fd5b8260015f3373ffffffffffffffffffffffffffffffffffffffff1673ffffffffffffffffffffffffffffffffffffffff1681526020019081526020015f205f82825461077091906116dc565b925050819055505f73ffffffffffffffffffffffffffffffffffffffff163373ffffffffffffffffffffffffffffffffffffffff167f90e478cc849d235624f0935f41fbbe7861a594ce506e5840e92e107406a7123e856040516107d49190611759565b60405180910390a350505f60025f6101000a81548160ff02191690831515021790555050565b6001602052805f5260405f205f915090505481565b5f8054906101000a900473ffffffffffffffffffffffffffffffffffffffff1673ffffffffffffffffffffffffffffffffffffffff163373ffffffffffffffffffffffffffffffffffffffff161461089c576040517f08c379a00000000000000000000000000000000000000000000000000000000081526004016108939061142e565b60405180910390fd5b60025f9054906101000a900460ff16156108eb576040517f08c379a00000000000000000000000000000000000000000000000000000000081526004016108e290611559565b60405180910390fd5b600160025f6101000a81548160ff0219169083151502179055508060035481111561094b576040517f08c379a000000000000000000000000000000000000000000000000000000000815260040161094290611629565b60405180910390fd5b5f73ffffffffffffffffffffffffffffffffffffffff168373ffffffffffffffffffffffffffffffffffffffff16036109b9576040517f08c379a00000000000000000000000000000000000000000000000000000000081526004016109b0906117cf565b60405180910390fd5b5f82116109fb576040517f08c379a00000000000000000000000000000000000000000000000000000000081526004016109f290611691565b60405180910390fd5b8160015f8573ffffffffffffffffffffffffffffffffffffffff1673ffffffffffffffffffffffffffffffffffffffff1681526020019081526020015f205f828254610a4791906117ed565b925050819055508273ffffffffffffffffffffffffffffffffffffffff163073ffffffffffffffffffffffffffffffffffffffff167f90e478cc849d235624f0935f41fbbe7861a594ce506e5840e92e107406a7123e84604051610aab919061186a565b60405180910390a3505f60025f6101000a81548160ff0219169083151502179055505050565b60035481565b5f8054906101000a900473ffffffffffffffffffffffffffffffffffffffff1673ffffffffffffffffffffffffffffffffffffffff163373ffffffffffffffffffffffffffffffffffffffff1614610b64576040517f08c379a0000000000000000000000000000000000000000000000000000000008152600401610b5b9061142e565b60405180910390fd5b5f73ffffffffffffffffffffffffffffffffffffffff168173ffffffffffffffffffffffffffffffffffffffff1603610bd2576040517f08c379a0000000000000000000000000000000000000000000000000000000008152600401610bc9906118e0565b60405180910390fd5b5f805f9054906101000a900473ffffffffffffffffffffffffffffffffffffffff169050815f806101000a81548173ffffffffffffffffffffffffffffffffffffffff021916908373ffffffffffffffffffffffffffffffffffffffff1602179055508173ffffffffffffffffffffffffffffffffffffffff168173ffffffffffffffffffffffffffffffffffffffff167fb532073b38c83145e3e5135377a08bf9aab55bc0fd7c1179cd4fb995d2a5159c60405160405180910390a35050565b60025f9054906101000a900460ff1615610ce2576040517f08c379a0000000000000000000000000000000000000000000000000000000008152600401610cd990611559565b60405180910390fd5b600160025f6101000a81548160ff021916908315150217905550808060015f3373ffffffffffffffffffffffffffffffffffffffff1673ffffffffffffffffffffffffffffffffffffffff1681526020019081526020015f20541015610d7d576040517f08c379a0000000000000000000000000000000000000000000000000000000008152600401610d74906115c1565b60405180910390fd5b81600354811115610dc3576040517f08c379a0000000000000000000000000000000000000000000000000000000008152600401610dba90611629565b60405180910390fd5b5f73ffffffffffffffffffffffffffffffffffffffff168473ffffffffffffffffffffffffffffffffffffffff1603610e31576040517f08c379a0000000000000000000000000000000000000000000000000000000008152600401610e2890611948565b60405180910390fd5b3373ffffffffffffffffffffffffffffffffffffffff168473ffffffffffffffffffffffffffffffffffffffff1603610e9f576040517f08c379a0000000000000000000000000000000000000000000000000000000008152600401610e96906119b0565b60405180910390fd5b5f8311610ee1576040517f08c379a0000000000000000000000000000000000000000000000000000000008152600401610ed890611691565b60405180910390fd5b8260015f3373ffffffffffffffffffffffffffffffffffffffff1673ffffffffffffffffffffffffffffffffffffffff1681526020019081526020015f205f828254610f2d91906116dc565b925050819055508260015f8673ffffffffffffffffffffffffffffffffffffffff1673ffffffffffffffffffffffffffffffffffffffff1681526020019081526020015f205f828254610f8091906117ed565b925050819055508373ffffffffffffffffffffffffffffffffffffffff163373ffffffffffffffffffffffffffffffffffffffff167f90e478cc849d235624f0935f41fbbe7861a594ce506e5840e92e107406a7123e85604051610fe49190611a18565b60405180910390a350505f60025f6101000a81548160ff0219169083151502179055505050565b60025f9054906101000a900460ff161561105a576040517f08c379a000000000000000000000000000000000000000000000000000000000815260040161105190611559565b60405180910390fd5b600160025f6101000a81548160ff021916908315150217905550806003548111156110ba576040517f08c379a00000000000000000000000000000000000000000000000000000000081526004016110b190611629565b60405180910390fd5b5f82116110fc576040517f08c379a00000000000000000000000000000000000000000000000000000000081526004016110f390611691565b60405180910390fd5b8160015f3373ffffffffffffffffffffffffffffffffffffffff1673ffffffffffffffffffffffffffffffffffffffff1681526020019081526020015f205f82825461114891906117ed565b925050819055503373ffffffffffffffffffffffffffffffffffffffff165f73ffffffffffffffffffffffffffffffffffffffff167f90e478cc849d235624f0935f41fbbe7861a594ce506e5840e92e107406a7123e846040516111ac9190611a8e565b60405180910390a3505f60025f6101000a81548160ff02191690831515021790555050565b5f82825260208201905092915050565b7f4e6f207265616c2045544820706c6561736521202d207468697320697320616c5f8201527f6c2066616b650000000000000000000000000000000000000000000000000000602082015250565b5f61123b6026836111d1565b9150611246826111e1565b604082019050919050565b5f6020820190508181035f8301526112688161122f565b9050919050565b5f80fd5b5f73ffffffffffffffffffffffffffffffffffffffff82169050919050565b5f61129c82611273565b9050919050565b6112ac81611292565b81146112b6575f80fd5b50565b5f813590506112c7816112a3565b92915050565b5f602082840312156112e2576112e161126f565b5b5f6112ef848285016112b9565b91505092915050565b5f819050919050565b61130a816112f8565b82525050565b5f6020820190506113235f830184611301565b92915050565b611332816112f8565b811461133c575f80fd5b50565b5f8135905061134d81611329565b92915050565b5f602082840312156113685761136761126f565b5b5f6113758482850161133f565b91505092915050565b61138781611292565b82525050565b5f6020820190506113a05f83018461137e565b92915050565b5f80604083850312156113bc576113bb61126f565b5b5f6113c9858286016112b9565b92505060206113da8582860161133f565b9150509250929050565b7f4e6f742074686520636f6e7472616374206f776e6572000000000000000000005f82015250565b5f6114186016836111d1565b9150611423826113e4565b602082019050919050565b5f6020820190508181035f8301526114458161140c565b9050919050565b7f52657365740000000000000000000000000000000000000000000000000000005f82015250565b5f6114806005836111d1565b915061148b8261144c565b602082019050919050565b5f6040820190506114a95f830184611301565b81810360208301526114ba81611474565b905092915050565b5f6040820190506114d55f830185611301565b6114e26020830184611301565b9392505050565b7f5265656e7472616e63792070726f74656374696f6e3a20636f6e7472616374205f8201527f6973206c6f636b65640000000000000000000000000000000000000000000000602082015250565b5f6115436029836111d1565b915061154e826114e9565b604082019050919050565b5f6020820190508181035f83015261157081611537565b9050919050565b7f496e73756666696369656e742073696d756c617465642062616c616e636500005f82015250565b5f6115ab601e836111d1565b91506115b682611577565b602082019050919050565b5f6020820190508181035f8301526115d88161159f565b9050919050565b7f416d6f756e742065786365656473207472616e73616374696f6e206c696d69745f82015250565b5f6116136020836111d1565b915061161e826115df565b602082019050919050565b5f6020820190508181035f83015261164081611607565b9050919050565b7f416d6f756e74206d7573742062652067726561746572207468616e20300000005f82015250565b5f61167b601d836111d1565b915061168682611647565b602082019050919050565b5f6020820190508181035f8301526116a88161166f565b9050919050565b7f4e487b71000000000000000000000000000000000000000000000000000000005f52601160045260245ffd5b5f6116e6826112f8565b91506116f1836112f8565b9250828203905081811115611709576117086116af565b5b92915050565b7f4275726e000000000000000000000000000000000000000000000000000000005f82015250565b5f6117436004836111d1565b915061174e8261170f565b602082019050919050565b5f60408201905061176c5f830184611301565b818103602083015261177d81611737565b905092915050565b7f43616e6e6f74206772616e7420746f207a65726f2061646472657373000000005f82015250565b5f6117b9601c836111d1565b91506117c482611785565b602082019050919050565b5f6020820190508181035f8301526117e6816117ad565b9050919050565b5f6117f7826112f8565b9150611802836112f8565b925082820190508082111561181a576118196116af565b5b92915050565b7f4772616e740000000000000000000000000000000000000000000000000000005f82015250565b5f6118546005836111d1565b915061185f82611820565b602082019050919050565b5f60408201905061187d5f830184611301565b818103602083015261188e81611848565b905092915050565b7f43616e6e6f74207472616e7366657220746f207a65726f2061646472657373005f82015250565b5f6118ca601f836111d1565b91506118d582611896565b602082019050919050565b5f6020820190508181035f8301526118f7816118be565b9050919050565b7f43616e6e6f742073656e6420746f207a65726f206164647265737300000000005f82015250565b5f611932601b836111d1565b915061193d826118fe565b602082019050919050565b5f6020820190508181035f83015261195f81611926565b9050919050565b7f43616e6e6f742073656e6420746f20796f757273656c660000000000000000005f82015250565b5f61199a6017836111d1565b91506119a582611966565b602082019050919050565b5f6020820190508181035f8301526119c78161198e565b9050919050565b7f5472616e736665720000000000000000000000000000000000000000000000005f82015250565b5f611a026008836111d1565b9150611a0d826119ce565b602082019050919050565b5f604082019050611a2b5f830184611301565b8181036020830152611a3c816119f6565b905092915050565b7f4d696e74000000000000000000000000000000000000000000000000000000005f82015250565b5f611a786004836111d1565b9150611a8382611a44565b602082019050919050565b5f604082019050611aa15f830184611301565b8181036020830152611ab281611a6c565b90509291505056fea264697066735822122046499b76d50a87ce51d5729c04cdcf3ff7f3ac651f0472718147c507bdcae43664736f6c634300081a0033",
					"opcodes": "PUSH1 0x80 PUSH1 0x40 MSTORE PUSH2 0x3E8 PUSH1 0x3 SSTORE CALLVALUE DUP1 ISZERO PUSH1 0x14 JUMPI PUSH0 DUP1 REVERT JUMPDEST POP CALLER PUSH0 DUP1 PUSH2 0x100 EXP DUP2 SLOAD DUP2 PUSH20 0xFFFFFFFFFFFFFFFFFFFFFFFFFFFFFFFFFFFFFFFF MUL NOT AND SWAP1 DUP4 PUSH20 0xFFFFFFFFFFFFFFFFFFFFFFFFFFFFFFFFFFFFFFFF AND MUL OR SWAP1 SSTORE POP PUSH2 0x2710 PUSH1 0x1 PUSH0 CALLER PUSH20 0xFFFFFFFFFFFFFFFFFFFFFFFFFFFFFFFFFFFFFFFF AND PUSH20 0xFFFFFFFFFFFFFFFFFFFFFFFFFFFFFFFFFFFFFFFF AND DUP2 MSTORE PUSH1 0x20 ADD SWAP1 DUP2 MSTORE PUSH1 0x20 ADD PUSH0 KECCAK256 DUP2 SWAP1 SSTORE POP PUSH2 0x1AF0 DUP1 PUSH2 0xA5 PUSH0 CODECOPY PUSH0 RETURN INVALID PUSH1 0x80 PUSH1 0x40 MSTORE PUSH1 0x4 CALLDATASIZE LT PUSH2 0x9F JUMPI PUSH0 CALLDATALOAD PUSH1 0xE0 SHR DUP1 PUSH4 0xE51364FD GT PUSH2 0x63 JUMPI DUP1 PUSH4 0xE51364FD EQ PUSH2 0x1F8 JUMPI DUP1 PUSH4 0xE688996C EQ PUSH2 0x234 JUMPI DUP1 PUSH4 0xF19605D6 EQ PUSH2 0x25C JUMPI DUP1 PUSH4 0xF2FDE38B EQ PUSH2 0x286 JUMPI DUP1 PUSH4 0xF8B79895 EQ PUSH2 0x2AE JUMPI DUP1 PUSH4 0xFA59571F EQ PUSH2 0x2D6 JUMPI PUSH2 0xDF JUMP JUMPDEST DUP1 PUSH4 0x3D6DDE82 EQ PUSH2 0x11A JUMPI DUP1 PUSH4 0x3FCE58EE EQ PUSH2 0x156 JUMPI DUP1 PUSH4 0x64BFA546 EQ PUSH2 0x17E JUMPI DUP1 PUSH4 0x8DA5CB5B EQ PUSH2 0x1A6 JUMPI DUP1 PUSH4 0xDCD4F961 EQ PUSH2 0x1D0 JUMPI PUSH2 0xDF JUMP JUMPDEST CALLDATASIZE PUSH2 0xDF JUMPI PUSH1 0x40 MLOAD PUSH32 0x8C379A000000000000000000000000000000000000000000000000000000000 DUP2 MSTORE PUSH1 0x4 ADD PUSH2 0xD6 SWAP1 PUSH2 0x1251 JUMP JUMPDEST PUSH1 0x40 MLOAD DUP1 SWAP2 SUB SWAP1 REVERT JUMPDEST PUSH1 0x40 MLOAD PUSH32 0x8C379A000000000000000000000000000000000000000000000000000000000 DUP2 MSTORE PUSH1 0x4 ADD PUSH2 0x111 SWAP1 PUSH2 0x1251 JUMP JUMPDEST PUSH1 0x40 MLOAD DUP1 SWAP2 SUB SWAP1 REVERT JUMPDEST CALLVALUE DUP1 ISZERO PUSH2 0x125 JUMPI PUSH0 DUP1 REVERT JUMPDEST POP PUSH2 0x140 PUSH1 0x4 DUP1 CALLDATASIZE SUB DUP2 ADD SWAP1 PUSH2 0x13B SWAP2 SWAP1 PUSH2 0x12CD JUMP JUMPDEST PUSH2 0x2FE JUMP JUMPDEST PUSH1 0x40 MLOAD PUSH2 0x14D SWAP2 SWAP1 PUSH2 0x1310 JUMP JUMPDEST PUSH1 0x40 MLOAD DUP1 SWAP2 SUB SWAP1 RETURN JUMPDEST CALLVALUE DUP1 ISZERO PUSH2 0x161 JUMPI PUSH0 DUP1 REVERT JUMPDEST POP PUSH2 0x17C PUSH1 0x4 DUP1 CALLDATASIZE SUB DUP2 ADD SWAP1 PUSH2 0x177 SWAP2 SWAP1 PUSH2 0x12CD JUMP JUMPDEST PUSH2 0x344 JUMP JUMPDEST STOP JUMPDEST CALLVALUE DUP1 ISZERO PUSH2 0x189 JUMPI PUSH0 DUP1 REVERT JUMPDEST POP PUSH2 0x1A4 PUSH1 0x4 DUP1 CALLDATASIZE SUB DUP2 ADD SWAP1 PUSH2 0x19F SWAP2 SWAP1 PUSH2 0x1353 JUMP JUMPDEST PUSH2 0x4B8 JUMP JUMPDEST STOP JUMPDEST CALLVALUE DUP1 ISZERO PUSH2 0x1B1 JUMPI PUSH0 DUP1 REVERT JUMPDEST POP PUSH2 0x1BA PUSH2 0x58F JUMP JUMPDEST PUSH1 0x40 MLOAD PUSH2 0x1C7 SWAP2 SWAP1 PUSH2 0x138D JUMP JUMPDEST PUSH1 0x40 MLOAD DUP1 SWAP2 SUB SWAP1 RETURN JUMPDEST CALLVALUE DUP1 ISZERO PUSH2 0x1DB JUMPI PUSH0 DUP1 REVERT JUMPDEST POP PUSH2 0x1F6 PUSH1 0x4 DUP1 CALLDATASIZE SUB DUP2 ADD SWAP1 PUSH2 0x1F1 SWAP2 SWAP1 PUSH2 0x1353 JUMP JUMPDEST PUSH2 0x5B2 JUMP JUMPDEST STOP JUMPDEST CALLVALUE DUP1 ISZERO PUSH2 0x203 JUMPI PUSH0 DUP1 REVERT JUMPDEST POP PUSH2 0x21E PUSH1 0x4 DUP1 CALLDATASIZE SUB DUP2 ADD SWAP1 PUSH2 0x219 SWAP2 SWAP1 PUSH2 0x12CD JUMP JUMPDEST PUSH2 0x7FA JUMP JUMPDEST PUSH1 0x40 MLOAD PUSH2 0x22B SWAP2 SWAP1 PUSH2 0x1310 JUMP JUMPDEST PUSH1 0x40 MLOAD DUP1 SWAP2 SUB SWAP1 RETURN JUMPDEST CALLVALUE DUP1 ISZERO PUSH2 0x23F JUMPI PUSH0 DUP1 REVERT JUMPDEST POP PUSH2 0x25A PUSH1 0x4 DUP1 CALLDATASIZE SUB DUP2 ADD SWAP1 PUSH2 0x255 SWAP2 SWAP1 PUSH2 0x13A6 JUMP JUMPDEST PUSH2 0x80F JUMP JUMPDEST STOP JUMPDEST CALLVALUE DUP1 ISZERO PUSH2 0x267 JUMPI PUSH0 DUP1 REVERT JUMPDEST POP PUSH2 0x270 PUSH2 0xAD1 JUMP JUMPDEST PUSH1 0x40 MLOAD PUSH2 0x27D SWAP2 SWAP1 PUSH2 0x1310 JUMP JUMPDEST PUSH1 0x40 MLOAD DUP1 SWAP2 SUB SWAP1 RETURN JUMPDEST CALLVALUE DUP1 ISZERO PUSH2 0x291 JUMPI PUSH0 DUP1 REVERT JUMPDEST POP PUSH2 0x2AC PUSH1 0x4 DUP1 CALLDATASIZE SUB DUP2 ADD SWAP1 PUSH2 0x2A7 SWAP2 SWAP1 PUSH2 0x12CD JUMP JUMPDEST PUSH2 0xAD7 JUMP JUMPDEST STOP JUMPDEST CALLVALUE DUP1 ISZERO PUSH2 0x2B9 JUMPI PUSH0 DUP1 REVERT JUMPDEST POP PUSH2 0x2D4 PUSH1 0x4 DUP1 CALLDATASIZE SUB DUP2 ADD SWAP1 PUSH2 0x2CF SWAP2 SWAP1 PUSH2 0x13A6 JUMP JUMPDEST PUSH2 0xC93 JUMP JUMPDEST STOP JUMPDEST CALLVALUE DUP1 ISZERO PUSH2 0x2E1 JUMPI PUSH0 DUP1 REVERT JUMPDEST POP PUSH2 0x2FC PUSH1 0x4 DUP1 CALLDATASIZE SUB DUP2 ADD SWAP1 PUSH2 0x2F7 SWAP2 SWAP1 PUSH2 0x1353 JUMP JUMPDEST PUSH2 0x100B JUMP JUMPDEST STOP JUMPDEST PUSH0 PUSH1 0x1 PUSH0 DUP4 PUSH20 0xFFFFFFFFFFFFFFFFFFFFFFFFFFFFFFFFFFFFFFFF AND PUSH20 0xFFFFFFFFFFFFFFFFFFFFFFFFFFFFFFFFFFFFFFFF AND DUP2 MSTORE PUSH1 0x20 ADD SWAP1 DUP2 MSTORE PUSH1 0x20 ADD PUSH0 KECCAK256 SLOAD SWAP1 POP SWAP2 SWAP1 POP JUMP JUMPDEST PUSH0 DUP1 SLOAD SWAP1 PUSH2 0x100 EXP SWAP1 DIV PUSH20 0xFFFFFFFFFFFFFFFFFFFFFFFFFFFFFFFFFFFFFFFF AND PUSH20 0xFFFFFFFFFFFFFFFFFFFFFFFFFFFFFFFFFFFFFFFF AND CALLER PUSH20 0xFFFFFFFFFFFFFFFFFFFFFFFFFFFFFFFFFFFFFFFF AND EQ PUSH2 0x3D1 JUMPI PUSH1 0x40 MLOAD PUSH32 0x8C379A000000000000000000000000000000000000000000000000000000000 DUP2 MSTORE PUSH1 0x4 ADD PUSH2 0x3C8 SWAP1 PUSH2 0x142E JUMP JUMPDEST PUSH1 0x40 MLOAD DUP1 SWAP2 SUB SWAP1 REVERT JUMPDEST PUSH0 PUSH1 0x1 PUSH0 DUP4 PUSH20 0xFFFFFFFFFFFFFFFFFFFFFFFFFFFFFFFFFFFFFFFF AND PUSH20 0xFFFFFFFFFFFFFFFFFFFFFFFFFFFFFFFFFFFFFFFF AND DUP2 MSTORE PUSH1 0x20 ADD SWAP1 DUP2 MSTORE PUSH1 0x20 ADD PUSH0 KECCAK256 DUP2 SWAP1 SSTORE POP PUSH0 PUSH20 0xFFFFFFFFFFFFFFFFFFFFFFFFFFFFFFFFFFFFFFFF AND DUP2 PUSH20 0xFFFFFFFFFFFFFFFFFFFFFFFFFFFFFFFFFFFFFFFF AND PUSH32 0x90E478CC849D235624F0935F41FBBE7861A594CE506E5840E92E107406A7123E PUSH1 0x1 PUSH0 DUP6 PUSH20 0xFFFFFFFFFFFFFFFFFFFFFFFFFFFFFFFFFFFFFFFF AND PUSH20 0xFFFFFFFFFFFFFFFFFFFFFFFFFFFFFFFFFFFFFFFF AND DUP2 MSTORE PUSH1 0x20 ADD SWAP1 DUP2 MSTORE PUSH1 0x20 ADD PUSH0 KECCAK256 SLOAD PUSH1 0x40 MLOAD PUSH2 0x4AD SWAP2 SWAP1 PUSH2 0x1496 JUMP JUMPDEST PUSH1 0x40 MLOAD DUP1 SWAP2 SUB SWAP1 LOG3 POP JUMP JUMPDEST PUSH0 DUP1 SLOAD SWAP1 PUSH2 0x100 EXP SWAP1 DIV PUSH20 0xFFFFFFFFFFFFFFFFFFFFFFFFFFFFFFFFFFFFFFFF AND PUSH20 0xFFFFFFFFFFFFFFFFFFFFFFFFFFFFFFFFFFFFFFFF AND CALLER PUSH20 0xFFFFFFFFFFFFFFFFFFFFFFFFFFFFFFFFFFFFFFFF AND EQ PUSH2 0x545 JUMPI PUSH1 0x40 MLOAD PUSH32 0x8C379A000000000000000000000000000000000000000000000000000000000 DUP2 MSTORE PUSH1 0x4 ADD PUSH2 0x53C SWAP1 PUSH2 0x142E JUMP JUMPDEST PUSH1 0x40 MLOAD DUP1 SWAP2 SUB SWAP1 REVERT JUMPDEST PUSH0 PUSH1 0x3 SLOAD SWAP1 POP DUP2 PUSH1 0x3 DUP2 SWAP1 SSTORE POP PUSH32 0x9084289EABAA2837EAD6E96E56F4E7CE025CC4D9A938C05E4F006A6520B975D8 DUP2 DUP4 PUSH1 0x40 MLOAD PUSH2 0x583 SWAP3 SWAP2 SWAP1 PUSH2 0x14C2 JUMP JUMPDEST PUSH1 0x40 MLOAD DUP1 SWAP2 SUB SWAP1 LOG1 POP POP JUMP JUMPDEST PUSH0 DUP1 SLOAD SWAP1 PUSH2 0x100 EXP SWAP1 DIV PUSH20 0xFFFFFFFFFFFFFFFFFFFFFFFFFFFFFFFFFFFFFFFF AND DUP2 JUMP JUMPDEST PUSH1 0x2 PUSH0 SWAP1 SLOAD SWAP1 PUSH2 0x100 EXP SWAP1 DIV PUSH1 0xFF AND ISZERO PUSH2 0x601 JUMPI PUSH1 0x40 MLOAD PUSH32 0x8C379A000000000000000000000000000000000000000000000000000000000 DUP2 MSTORE PUSH1 0x4 ADD PUSH2 0x5F8 SWAP1 PUSH2 0x1559 JUMP JUMPDEST PUSH1 0x40 MLOAD DUP1 SWAP2 SUB SWAP1 REVERT JUMPDEST PUSH1 0x1 PUSH1 0x2 PUSH0 PUSH2 0x100 EXP DUP2 SLOAD DUP2 PUSH1 0xFF MUL NOT AND SWAP1 DUP4 ISZERO ISZERO MUL OR SWAP1 SSTORE POP DUP1 DUP1 PUSH1 0x1 PUSH0 CALLER PUSH20 0xFFFFFFFFFFFFFFFFFFFFFFFFFFFFFFFFFFFFFFFF AND PUSH20 0xFFFFFFFFFFFFFFFFFFFFFFFFFFFFFFFFFFFFFFFF AND DUP2 MSTORE PUSH1 0x20 ADD SWAP1 DUP2 MSTORE PUSH1 0x20 ADD PUSH0 KECCAK256 SLOAD LT ISZERO PUSH2 0x69C JUMPI PUSH1 0x40 MLOAD PUSH32 0x8C379A000000000000000000000000000000000000000000000000000000000 DUP2 MSTORE PUSH1 0x4 ADD PUSH2 0x693 SWAP1 PUSH2 0x15C1 JUMP JUMPDEST PUSH1 0x40 MLOAD DUP1 SWAP2 SUB SWAP1 REVERT JUMPDEST DUP2 PUSH1 0x3 SLOAD DUP2 GT ISZERO PUSH2 0x6E2 JUMPI PUSH1 0x40 MLOAD PUSH32 0x8C379A000000000000000000000000000000000000000000000000000000000 DUP2 MSTORE PUSH1 0x4 ADD PUSH2 0x6D9 SWAP1 PUSH2 0x1629 JUMP JUMPDEST PUSH1 0x40 MLOAD DUP1 SWAP2 SUB SWAP1 REVERT JUMPDEST PUSH0 DUP4 GT PUSH2 0x724 JUMPI PUSH1 0x40 MLOAD PUSH32 0x8C379A000000000000000000000000000000000000000000000000000000000 DUP2 MSTORE PUSH1 0x4 ADD PUSH2 0x71B SWAP1 PUSH2 0x1691 JUMP JUMPDEST PUSH1 0x40 MLOAD DUP1 SWAP2 SUB SWAP1 REVERT JUMPDEST DUP3 PUSH1 0x1 PUSH0 CALLER PUSH20 0xFFFFFFFFFFFFFFFFFFFFFFFFFFFFFFFFFFFFFFFF AND PUSH20 0xFFFFFFFFFFFFFFFFFFFFFFFFFFFFFFFFFFFFFFFF AND DUP2 MSTORE PUSH1 0x20 ADD SWAP1 DUP2 MSTORE PUSH1 0x20 ADD PUSH0 KECCAK256 PUSH0 DUP3 DUP3 SLOAD PUSH2 0x770 SWAP2 SWAP1 PUSH2 0x16DC JUMP JUMPDEST SWAP3 POP POP DUP2 SWAP1 SSTORE POP PUSH0 PUSH20 0xFFFFFFFFFFFFFFFFFFFFFFFFFFFFFFFFFFFFFFFF AND CALLER PUSH20 0xFFFFFFFFFFFFFFFFFFFFFFFFFFFFFFFFFFFFFFFF AND PUSH32 0x90E478CC849D235624F0935F41FBBE7861A594CE506E5840E92E107406A7123E DUP6 PUSH1 0x40 MLOAD PUSH2 0x7D4 SWAP2 SWAP1 PUSH2 0x1759 JUMP JUMPDEST PUSH1 0x40 MLOAD DUP1 SWAP2 SUB SWAP1 LOG3 POP POP PUSH0 PUSH1 0x2 PUSH0 PUSH2 0x100 EXP DUP2 SLOAD DUP2 PUSH1 0xFF MUL NOT AND SWAP1 DUP4 ISZERO ISZERO MUL OR SWAP1 SSTORE POP POP JUMP JUMPDEST PUSH1 0x1 PUSH1 0x20 MSTORE DUP1 PUSH0 MSTORE PUSH1 0x40 PUSH0 KECCAK256 PUSH0 SWAP2 POP SWAP1 POP SLOAD DUP2 JUMP JUMPDEST PUSH0 DUP1 SLOAD SWAP1 PUSH2 0x100 EXP SWAP1 DIV PUSH20 0xFFFFFFFFFFFFFFFFFFFFFFFFFFFFFFFFFFFFFFFF AND PUSH20 0xFFFFFFFFFFFFFFFFFFFFFFFFFFFFFFFFFFFFFFFF AND CALLER PUSH20 0xFFFFFFFFFFFFFFFFFFFFFFFFFFFFFFFFFFFFFFFF AND EQ PUSH2 0x89C JUMPI PUSH1 0x40 MLOAD PUSH32 0x8C379A000000000000000000000000000000000000000000000000000000000 DUP2 MSTORE PUSH1 0x4 ADD PUSH2 0x893 SWAP1 PUSH2 0x142E JUMP JUMPDEST PUSH1 0x40 MLOAD DUP1 SWAP2 SUB SWAP1 REVERT JUMPDEST PUSH1 0x2 PUSH0 SWAP1 SLOAD SWAP1 PUSH2 0x100 EXP SWAP1 DIV PUSH1 0xFF AND ISZERO PUSH2 0x8EB JUMPI PUSH1 0x40 MLOAD PUSH32 0x8C379A000000000000000000000000000000000000000000000000000000000 DUP2 MSTORE PUSH1 0x4 ADD PUSH2 0x8E2 SWAP1 PUSH2 0x1559 JUMP JUMPDEST PUSH1 0x40 MLOAD DUP1 SWAP2 SUB SWAP1 REVERT JUMPDEST PUSH1 0x1 PUSH1 0x2 PUSH0 PUSH2 0x100 EXP DUP2 SLOAD DUP2 PUSH1 0xFF MUL NOT AND SWAP1 DUP4 ISZERO ISZERO MUL OR SWAP1 SSTORE POP DUP1 PUSH1 0x3 SLOAD DUP2 GT ISZERO PUSH2 0x94B JUMPI PUSH1 0x40 MLOAD PUSH32 0x8C379A000000000000000000000000000000000000000000000000000000000 DUP2 MSTORE PUSH1 0x4 ADD PUSH2 0x942 SWAP1 PUSH2 0x1629 JUMP JUMPDEST PUSH1 0x40 MLOAD DUP1 SWAP2 SUB SWAP1 REVERT JUMPDEST PUSH0 PUSH20 0xFFFFFFFFFFFFFFFFFFFFFFFFFFFFFFFFFFFFFFFF AND DUP4 PUSH20 0xFFFFFFFFFFFFFFFFFFFFFFFFFFFFFFFFFFFFFFFF AND SUB PUSH2 0x9B9 JUMPI PUSH1 0x40 MLOAD PUSH32 0x8C379A000000000000000000000000000000000000000000000000000000000 DUP2 MSTORE PUSH1 0x4 ADD PUSH2 0x9B0 SWAP1 PUSH2 0x17CF JUMP JUMPDEST PUSH1 0x40 MLOAD DUP1 SWAP2 SUB SWAP1 REVERT JUMPDEST PUSH0 DUP3 GT PUSH2 0x9FB JUMPI PUSH1 0x40 MLOAD PUSH32 0x8C379A000000000000000000000000000000000000000000000000000000000 DUP2 MSTORE PUSH1 0x4 ADD PUSH2 0x9F2 SWAP1 PUSH2 0x1691 JUMP JUMPDEST PUSH1 0x40 MLOAD DUP1 SWAP2 SUB SWAP1 REVERT JUMPDEST DUP2 PUSH1 0x1 PUSH0 DUP6 PUSH20 0xFFFFFFFFFFFFFFFFFFFFFFFFFFFFFFFFFFFFFFFF AND PUSH20 0xFFFFFFFFFFFFFFFFFFFFFFFFFFFFFFFFFFFFFFFF AND DUP2 MSTORE PUSH1 0x20 ADD SWAP1 DUP2 MSTORE PUSH1 0x20 ADD PUSH0 KECCAK256 PUSH0 DUP3 DUP3 SLOAD PUSH2 0xA47 SWAP2 SWAP1 PUSH2 0x17ED JUMP JUMPDEST SWAP3 POP POP DUP2 SWAP1 SSTORE POP DUP3 PUSH20 0xFFFFFFFFFFFFFFFFFFFFFFFFFFFFFFFFFFFFFFFF AND ADDRESS PUSH20 0xFFFFFFFFFFFFFFFFFFFFFFFFFFFFFFFFFFFFFFFF AND PUSH32 0x90E478CC849D235624F0935F41FBBE7861A594CE506E5840E92E107406A7123E DUP5 PUSH1 0x40 MLOAD PUSH2 0xAAB SWAP2 SWAP1 PUSH2 0x186A JUMP JUMPDEST PUSH1 0x40 MLOAD DUP1 SWAP2 SUB SWAP1 LOG3 POP PUSH0 PUSH1 0x2 PUSH0 PUSH2 0x100 EXP DUP2 SLOAD DUP2 PUSH1 0xFF MUL NOT AND SWAP1 DUP4 ISZERO ISZERO MUL OR SWAP1 SSTORE POP POP POP JUMP JUMPDEST PUSH1 0x3 SLOAD DUP2 JUMP JUMPDEST PUSH0 DUP1 SLOAD SWAP1 PUSH2 0x100 EXP SWAP1 DIV PUSH20 0xFFFFFFFFFFFFFFFFFFFFFFFFFFFFFFFFFFFFFFFF AND PUSH20 0xFFFFFFFFFFFFFFFFFFFFFFFFFFFFFFFFFFFFFFFF AND CALLER PUSH20 0xFFFFFFFFFFFFFFFFFFFFFFFFFFFFFFFFFFFFFFFF AND EQ PUSH2 0xB64 JUMPI PUSH1 0x40 MLOAD PUSH32 0x8C379A000000000000000000000000000000000000000000000000000000000 DUP2 MSTORE PUSH1 0x4 ADD PUSH2 0xB5B SWAP1 PUSH2 0x142E JUMP JUMPDEST PUSH1 0x40 MLOAD DUP1 SWAP2 SUB SWAP1 REVERT JUMPDEST PUSH0 PUSH20 0xFFFFFFFFFFFFFFFFFFFFFFFFFFFFFFFFFFFFFFFF AND DUP2 PUSH20 0xFFFFFFFFFFFFFFFFFFFFFFFFFFFFFFFFFFFFFFFF AND SUB PUSH2 0xBD2 JUMPI PUSH1 0x40 MLOAD PUSH32 0x8C379A000000000000000000000000000000000000000000000000000000000 DUP2 MSTORE PUSH1 0x4 ADD PUSH2 0xBC9 SWAP1 PUSH2 0x18E0 JUMP JUMPDEST PUSH1 0x40 MLOAD DUP1 SWAP2 SUB SWAP1 REVERT JUMPDEST PUSH0 DUP1 PUSH0 SWAP1 SLOAD SWAP1 PUSH2 0x100 EXP SWAP1 DIV PUSH20 0xFFFFFFFFFFFFFFFFFFFFFFFFFFFFFFFFFFFFFFFF AND SWAP1 POP DUP2 PUSH0 DUP1 PUSH2 0x100 EXP DUP2 SLOAD DUP2 PUSH20 0xFFFFFFFFFFFFFFFFFFFFFFFFFFFFFFFFFFFFFFFF MUL NOT AND SWAP1 DUP4 PUSH20 0xFFFFFFFFFFFFFFFFFFFFFFFFFFFFFFFFFFFFFFFF AND MUL OR SWAP1 SSTORE POP DUP2 PUSH20 0xFFFFFFFFFFFFFFFFFFFFFFFFFFFFFFFFFFFFFFFF AND DUP2 PUSH20 0xFFFFFFFFFFFFFFFFFFFFFFFFFFFFFFFFFFFFFFFF AND PUSH32 0xB532073B38C83145E3E5135377A08BF9AAB55BC0FD7C1179CD4FB995D2A5159C PUSH1 0x40 MLOAD PUSH1 0x40 MLOAD DUP1 SWAP2 SUB SWAP1 LOG3 POP POP JUMP JUMPDEST PUSH1 0x2 PUSH0 SWAP1 SLOAD SWAP1 PUSH2 0x100 EXP SWAP1 DIV PUSH1 0xFF AND ISZERO PUSH2 0xCE2 JUMPI PUSH1 0x40 MLOAD PUSH32 0x8C379A000000000000000000000000000000000000000000000000000000000 DUP2 MSTORE PUSH1 0x4 ADD PUSH2 0xCD9 SWAP1 PUSH2 0x1559 JUMP JUMPDEST PUSH1 0x40 MLOAD DUP1 SWAP2 SUB SWAP1 REVERT JUMPDEST PUSH1 0x1 PUSH1 0x2 PUSH0 PUSH2 0x100 EXP DUP2 SLOAD DUP2 PUSH1 0xFF MUL NOT AND SWAP1 DUP4 ISZERO ISZERO MUL OR SWAP1 SSTORE POP DUP1 DUP1 PUSH1 0x1 PUSH0 CALLER PUSH20 0xFFFFFFFFFFFFFFFFFFFFFFFFFFFFFFFFFFFFFFFF AND PUSH20 0xFFFFFFFFFFFFFFFFFFFFFFFFFFFFFFFFFFFFFFFF AND DUP2 MSTORE PUSH1 0x20 ADD SWAP1 DUP2 MSTORE PUSH1 0x20 ADD PUSH0 KECCAK256 SLOAD LT ISZERO PUSH2 0xD7D JUMPI PUSH1 0x40 MLOAD PUSH32 0x8C379A000000000000000000000000000000000000000000000000000000000 DUP2 MSTORE PUSH1 0x4 ADD PUSH2 0xD74 SWAP1 PUSH2 0x15C1 JUMP JUMPDEST PUSH1 0x40 MLOAD DUP1 SWAP2 SUB SWAP1 REVERT JUMPDEST DUP2 PUSH1 0x3 SLOAD DUP2 GT ISZERO PUSH2 0xDC3 JUMPI PUSH1 0x40 MLOAD PUSH32 0x8C379A000000000000000000000000000000000000000000000000000000000 DUP2 MSTORE PUSH1 0x4 ADD PUSH2 0xDBA SWAP1 PUSH2 0x1629 JUMP JUMPDEST PUSH1 0x40 MLOAD DUP1 SWAP2 SUB SWAP1 REVERT JUMPDEST PUSH0 PUSH20 0xFFFFFFFFFFFFFFFFFFFFFFFFFFFFFFFFFFFFFFFF AND DUP5 PUSH20 0xFFFFFFFFFFFFFFFFFFFFFFFFFFFFFFFFFFFFFFFF AND SUB PUSH2 0xE31 JUMPI PUSH1 0x40 MLOAD PUSH32 0x8C379A000000000000000000000000000000000000000000000000000000000 DUP2 MSTORE PUSH1 0x4 ADD PUSH2 0xE28 SWAP1 PUSH2 0x1948 JUMP JUMPDEST PUSH1 0x40 MLOAD DUP1 SWAP2 SUB SWAP1 REVERT JUMPDEST CALLER PUSH20 0xFFFFFFFFFFFFFFFFFFFFFFFFFFFFFFFFFFFFFFFF AND DUP5 PUSH20 0xFFFFFFFFFFFFFFFFFFFFFFFFFFFFFFFFFFFFFFFF AND SUB PUSH2 0xE9F JUMPI PUSH1 0x40 MLOAD PUSH32 0x8C379A000000000000000000000000000000000000000000000000000000000 DUP2 MSTORE PUSH1 0x4 ADD PUSH2 0xE96 SWAP1 PUSH2 0x19B0 JUMP JUMPDEST PUSH1 0x40 MLOAD DUP1 SWAP2 SUB SWAP1 REVERT JUMPDEST PUSH0 DUP4 GT PUSH2 0xEE1 JUMPI PUSH1 0x40 MLOAD PUSH32 0x8C379A000000000000000000000000000000000000000000000000000000000 DUP2 MSTORE PUSH1 0x4 ADD PUSH2 0xED8 SWAP1 PUSH2 0x1691 JUMP JUMPDEST PUSH1 0x40 MLOAD DUP1 SWAP2 SUB SWAP1 REVERT JUMPDEST DUP3 PUSH1 0x1 PUSH0 CALLER PUSH20 0xFFFFFFFFFFFFFFFFFFFFFFFFFFFFFFFFFFFFFFFF AND PUSH20 0xFFFFFFFFFFFFFFFFFFFFFFFFFFFFFFFFFFFFFFFF AND DUP2 MSTORE PUSH1 0x20 ADD SWAP1 DUP2 MSTORE PUSH1 0x20 ADD PUSH0 KECCAK256 PUSH0 DUP3 DUP3 SLOAD PUSH2 0xF2D SWAP2 SWAP1 PUSH2 0x16DC JUMP JUMPDEST SWAP3 POP POP DUP2 SWAP1 SSTORE POP DUP3 PUSH1 0x1 PUSH0 DUP7 PUSH20 0xFFFFFFFFFFFFFFFFFFFFFFFFFFFFFFFFFFFFFFFF AND PUSH20 0xFFFFFFFFFFFFFFFFFFFFFFFFFFFFFFFFFFFFFFFF AND DUP2 MSTORE PUSH1 0x20 ADD SWAP1 DUP2 MSTORE PUSH1 0x20 ADD PUSH0 KECCAK256 PUSH0 DUP3 DUP3 SLOAD PUSH2 0xF80 SWAP2 SWAP1 PUSH2 0x17ED JUMP JUMPDEST SWAP3 POP POP DUP2 SWAP1 SSTORE POP DUP4 PUSH20 0xFFFFFFFFFFFFFFFFFFFFFFFFFFFFFFFFFFFFFFFF AND CALLER PUSH20 0xFFFFFFFFFFFFFFFFFFFFFFFFFFFFFFFFFFFFFFFF AND PUSH32 0x90E478CC849D235624F0935F41FBBE7861A594CE506E5840E92E107406A7123E DUP6 PUSH1 0x40 MLOAD PUSH2 0xFE4 SWAP2 SWAP1 PUSH2 0x1A18 JUMP JUMPDEST PUSH1 0x40 MLOAD DUP1 SWAP2 SUB SWAP1 LOG3 POP POP PUSH0 PUSH1 0x2 PUSH0 PUSH2 0x100 EXP DUP2 SLOAD DUP2 PUSH1 0xFF MUL NOT AND SWAP1 DUP4 ISZERO ISZERO MUL OR SWAP1 SSTORE POP POP POP JUMP JUMPDEST PUSH1 0x2 PUSH0 SWAP1 SLOAD SWAP1 PUSH2 0x100 EXP SWAP1 DIV PUSH1 0xFF AND ISZERO PUSH2 0x105A JUMPI PUSH1 0x40 MLOAD PUSH32 0x8C379A000000000000000000000000000000000000000000000000000000000 DUP2 MSTORE PUSH1 0x4 ADD PUSH2 0x1051 SWAP1 PUSH2 0x1559 JUMP JUMPDEST PUSH1 0x40 MLOAD DUP1 SWAP2 SUB SWAP1 REVERT JUMPDEST PUSH1 0x1 PUSH1 0x2 PUSH0 PUSH2 0x100 EXP DUP2 SLOAD DUP2 PUSH1 0xFF MUL NOT AND SWAP1 DUP4 ISZERO ISZERO MUL OR SWAP1 SSTORE POP DUP1 PUSH1 0x3 SLOAD DUP2 GT ISZERO PUSH2 0x10BA JUMPI PUSH1 0x40 MLOAD PUSH32 0x8C379A000000000000000000000000000000000000000000000000000000000 DUP2 MSTORE PUSH1 0x4 ADD PUSH2 0x10B1 SWAP1 PUSH2 0x1629 JUMP JUMPDEST PUSH1 0x40 MLOAD DUP1 SWAP2 SUB SWAP1 REVERT JUMPDEST PUSH0 DUP3 GT PUSH2 0x10FC JUMPI PUSH1 0x40 MLOAD PUSH32 0x8C379A000000000000000000000000000000000000000000000000000000000 DUP2 MSTORE PUSH1 0x4 ADD PUSH2 0x10F3 SWAP1 PUSH2 0x1691 JUMP JUMPDEST PUSH1 0x40 MLOAD DUP1 SWAP2 SUB SWAP1 REVERT JUMPDEST DUP2 PUSH1 0x1 PUSH0 CALLER PUSH20 0xFFFFFFFFFFFFFFFFFFFFFFFFFFFFFFFFFFFFFFFF AND PUSH20 0xFFFFFFFFFFFFFFFFFFFFFFFFFFFFFFFFFFFFFFFF AND DUP2 MSTORE PUSH1 0x20 ADD SWAP1 DUP2 MSTORE PUSH1 0x20 ADD PUSH0 KECCAK256 PUSH0 DUP3 DUP3 SLOAD PUSH2 0x1148 SWAP2 SWAP1 PUSH2 0x17ED JUMP JUMPDEST SWAP3 POP POP DUP2 SWAP1 SSTORE POP CALLER PUSH20 0xFFFFFFFFFFFFFFFFFFFFFFFFFFFFFFFFFFFFFFFF AND PUSH0 PUSH20 0xFFFFFFFFFFFFFFFFFFFFFFFFFFFFFFFFFFFFFFFF AND PUSH32 0x90E478CC849D235624F0935F41FBBE7861A594CE506E5840E92E107406A7123E DUP5 PUSH1 0x40 MLOAD PUSH2 0x11AC SWAP2 SWAP1 PUSH2 0x1A8E JUMP JUMPDEST PUSH1 0x40 MLOAD DUP1 SWAP2 SUB SWAP1 LOG3 POP PUSH0 PUSH1 0x2 PUSH0 PUSH2 0x100 EXP DUP2 SLOAD DUP2 PUSH1 0xFF MUL NOT AND SWAP1 DUP4 ISZERO ISZERO MUL OR SWAP1 SSTORE POP POP JUMP JUMPDEST PUSH0 DUP3 DUP3 MSTORE PUSH1 0x20 DUP3 ADD SWAP1 POP SWAP3 SWAP2 POP POP JUMP JUMPDEST PUSH32 0x4E6F207265616C2045544820706C6561736521202D207468697320697320616C PUSH0 DUP3 ADD MSTORE PUSH32 0x6C2066616B650000000000000000000000000000000000000000000000000000 PUSH1 0x20 DUP3 ADD MSTORE POP JUMP JUMPDEST PUSH0 PUSH2 0x123B PUSH1 0x26 DUP4 PUSH2 0x11D1 JUMP JUMPDEST SWAP2 POP PUSH2 0x1246 DUP3 PUSH2 0x11E1 JUMP JUMPDEST PUSH1 0x40 DUP3 ADD SWAP1 POP SWAP2 SWAP1 POP JUMP JUMPDEST PUSH0 PUSH1 0x20 DUP3 ADD SWAP1 POP DUP2 DUP2 SUB PUSH0 DUP4 ADD MSTORE PUSH2 0x1268 DUP2 PUSH2 0x122F JUMP JUMPDEST SWAP1 POP SWAP2 SWAP1 POP JUMP JUMPDEST PUSH0 DUP1 REVERT JUMPDEST PUSH0 PUSH20 0xFFFFFFFFFFFFFFFFFFFFFFFFFFFFFFFFFFFFFFFF DUP3 AND SWAP1 POP SWAP2 SWAP1 POP JUMP JUMPDEST PUSH0 PUSH2 0x129C DUP3 PUSH2 0x1273 JUMP JUMPDEST SWAP1 POP SWAP2 SWAP1 POP JUMP JUMPDEST PUSH2 0x12AC DUP2 PUSH2 0x1292 JUMP JUMPDEST DUP2 EQ PUSH2 0x12B6 JUMPI PUSH0 DUP1 REVERT JUMPDEST POP JUMP JUMPDEST PUSH0 DUP2 CALLDATALOAD SWAP1 POP PUSH2 0x12C7 DUP2 PUSH2 0x12A3 JUMP JUMPDEST SWAP3 SWAP2 POP POP JUMP JUMPDEST PUSH0 PUSH1 0x20 DUP3 DUP5 SUB SLT ISZERO PUSH2 0x12E2 JUMPI PUSH2 0x12E1 PUSH2 0x126F JUMP JUMPDEST JUMPDEST PUSH0 PUSH2 0x12EF DUP5 DUP3 DUP6 ADD PUSH2 0x12B9 JUMP JUMPDEST SWAP2 POP POP SWAP3 SWAP2 POP POP JUMP JUMPDEST PUSH0 DUP2 SWAP1 POP SWAP2 SWAP1 POP JUMP JUMPDEST PUSH2 0x130A DUP2 PUSH2 0x12F8 JUMP JUMPDEST DUP3 MSTORE POP POP JUMP JUMPDEST PUSH0 PUSH1 0x20 DUP3 ADD SWAP1 POP PUSH2 0x1323 PUSH0 DUP4 ADD DUP5 PUSH2 0x1301 JUMP JUMPDEST SWAP3 SWAP2 POP POP JUMP JUMPDEST PUSH2 0x1332 DUP2 PUSH2 0x12F8 JUMP JUMPDEST DUP2 EQ PUSH2 0x133C JUMPI PUSH0 DUP1 REVERT JUMPDEST POP JUMP JUMPDEST PUSH0 DUP2 CALLDATALOAD SWAP1 POP PUSH2 0x134D DUP2 PUSH2 0x1329 JUMP JUMPDEST SWAP3 SWAP2 POP POP JUMP JUMPDEST PUSH0 PUSH1 0x20 DUP3 DUP5 SUB SLT ISZERO PUSH2 0x1368 JUMPI PUSH2 0x1367 PUSH2 0x126F JUMP JUMPDEST JUMPDEST PUSH0 PUSH2 0x1375 DUP5 DUP3 DUP6 ADD PUSH2 0x133F JUMP JUMPDEST SWAP2 POP POP SWAP3 SWAP2 POP POP JUMP JUMPDEST PUSH2 0x1387 DUP2 PUSH2 0x1292 JUMP JUMPDEST DUP3 MSTORE POP POP JUMP JUMPDEST PUSH0 PUSH1 0x20 DUP3 ADD SWAP1 POP PUSH2 0x13A0 PUSH0 DUP4 ADD DUP5 PUSH2 0x137E JUMP JUMPDEST SWAP3 SWAP2 POP POP JUMP JUMPDEST PUSH0 DUP1 PUSH1 0x40 DUP4 DUP6 SUB SLT ISZERO PUSH2 0x13BC JUMPI PUSH2 0x13BB PUSH2 0x126F JUMP JUMPDEST JUMPDEST PUSH0 PUSH2 0x13C9 DUP6 DUP3 DUP7 ADD PUSH2 0x12B9 JUMP JUMPDEST SWAP3 POP POP PUSH1 0x20 PUSH2 0x13DA DUP6 DUP3 DUP7 ADD PUSH2 0x133F JUMP JUMPDEST SWAP2 POP POP SWAP3 POP SWAP3 SWAP1 POP JUMP JUMPDEST PUSH32 0x4E6F742074686520636F6E7472616374206F776E657200000000000000000000 PUSH0 DUP3 ADD MSTORE POP JUMP JUMPDEST PUSH0 PUSH2 0x1418 PUSH1 0x16 DUP4 PUSH2 0x11D1 JUMP JUMPDEST SWAP2 POP PUSH2 0x1423 DUP3 PUSH2 0x13E4 JUMP JUMPDEST PUSH1 0x20 DUP3 ADD SWAP1 POP SWAP2 SWAP1 POP JUMP JUMPDEST PUSH0 PUSH1 0x20 DUP3 ADD SWAP1 POP DUP2 DUP2 SUB PUSH0 DUP4 ADD MSTORE PUSH2 0x1445 DUP2 PUSH2 0x140C JUMP JUMPDEST SWAP1 POP SWAP2 SWAP1 POP JUMP JUMPDEST PUSH32 0x5265736574000000000000000000000000000000000000000000000000000000 PUSH0 DUP3 ADD MSTORE POP JUMP JUMPDEST PUSH0 PUSH2 0x1480 PUSH1 0x5 DUP4 PUSH2 0x11D1 JUMP JUMPDEST SWAP2 POP PUSH2 0x148B DUP3 PUSH2 0x144C JUMP JUMPDEST PUSH1 0x20 DUP3 ADD SWAP1 POP SWAP2 SWAP1 POP JUMP JUMPDEST PUSH0 PUSH1 0x40 DUP3 ADD SWAP1 POP PUSH2 0x14A9 PUSH0 DUP4 ADD DUP5 PUSH2 0x1301 JUMP JUMPDEST DUP2 DUP2 SUB PUSH1 0x20 DUP4 ADD MSTORE PUSH2 0x14BA DUP2 PUSH2 0x1474 JUMP JUMPDEST SWAP1 POP SWAP3 SWAP2 POP POP JUMP JUMPDEST PUSH0 PUSH1 0x40 DUP3 ADD SWAP1 POP PUSH2 0x14D5 PUSH0 DUP4 ADD DUP6 PUSH2 0x1301 JUMP JUMPDEST PUSH2 0x14E2 PUSH1 0x20 DUP4 ADD DUP5 PUSH2 0x1301 JUMP JUMPDEST SWAP4 SWAP3 POP POP POP JUMP JUMPDEST PUSH32 0x5265656E7472616E63792070726F74656374696F6E3A20636F6E747261637420 PUSH0 DUP3 ADD MSTORE PUSH32 0x6973206C6F636B65640000000000000000000000000000000000000000000000 PUSH1 0x20 DUP3 ADD MSTORE POP JUMP JUMPDEST PUSH0 PUSH2 0x1543 PUSH1 0x29 DUP4 PUSH2 0x11D1 JUMP JUMPDEST SWAP2 POP PUSH2 0x154E DUP3 PUSH2 0x14E9 JUMP JUMPDEST PUSH1 0x40 DUP3 ADD SWAP1 POP SWAP2 SWAP1 POP JUMP JUMPDEST PUSH0 PUSH1 0x20 DUP3 ADD SWAP1 POP DUP2 DUP2 SUB PUSH0 DUP4 ADD MSTORE PUSH2 0x1570 DUP2 PUSH2 0x1537 JUMP JUMPDEST SWAP1 POP SWAP2 SWAP1 POP JUMP JUMPDEST PUSH32 0x496E73756666696369656E742073696D756C617465642062616C616E63650000 PUSH0 DUP3 ADD MSTORE POP JUMP JUMPDEST PUSH0 PUSH2 0x15AB PUSH1 0x1E DUP4 PUSH2 0x11D1 JUMP JUMPDEST SWAP2 POP PUSH2 0x15B6 DUP3 PUSH2 0x1577 JUMP JUMPDEST PUSH1 0x20 DUP3 ADD SWAP1 POP SWAP2 SWAP1 POP JUMP JUMPDEST PUSH0 PUSH1 0x20 DUP3 ADD SWAP1 POP DUP2 DUP2 SUB PUSH0 DUP4 ADD MSTORE PUSH2 0x15D8 DUP2 PUSH2 0x159F JUMP JUMPDEST SWAP1 POP SWAP2 SWAP1 POP JUMP JUMPDEST PUSH32 0x416D6F756E742065786365656473207472616E73616374696F6E206C696D6974 PUSH0 DUP3 ADD MSTORE POP JUMP JUMPDEST PUSH0 PUSH2 0x1613 PUSH1 0x20 DUP4 PUSH2 0x11D1 JUMP JUMPDEST SWAP2 POP PUSH2 0x161E DUP3 PUSH2 0x15DF JUMP JUMPDEST PUSH1 0x20 DUP3 ADD SWAP1 POP SWAP2 SWAP1 POP JUMP JUMPDEST PUSH0 PUSH1 0x20 DUP3 ADD SWAP1 POP DUP2 DUP2 SUB PUSH0 DUP4 ADD MSTORE PUSH2 0x1640 DUP2 PUSH2 0x1607 JUMP JUMPDEST SWAP1 POP SWAP2 SWAP1 POP JUMP JUMPDEST PUSH32 0x416D6F756E74206D7573742062652067726561746572207468616E2030000000 PUSH0 DUP3 ADD MSTORE POP JUMP JUMPDEST PUSH0 PUSH2 0x167B PUSH1 0x1D DUP4 PUSH2 0x11D1 JUMP JUMPDEST SWAP2 POP PUSH2 0x1686 DUP3 PUSH2 0x1647 JUMP JUMPDEST PUSH1 0x20 DUP3 ADD SWAP1 POP SWAP2 SWAP1 POP JUMP JUMPDEST PUSH0 PUSH1 0x20 DUP3 ADD SWAP1 POP DUP2 DUP2 SUB PUSH0 DUP4 ADD MSTORE PUSH2 0x16A8 DUP2 PUSH2 0x166F JUMP JUMPDEST SWAP1 POP SWAP2 SWAP1 POP JUMP JUMPDEST PUSH32 0x4E487B7100000000000000000000000000000000000000000000000000000000 PUSH0 MSTORE PUSH1 0x11 PUSH1 0x4 MSTORE PUSH1 0x24 PUSH0 REVERT JUMPDEST PUSH0 PUSH2 0x16E6 DUP3 PUSH2 0x12F8 JUMP JUMPDEST SWAP2 POP PUSH2 0x16F1 DUP4 PUSH2 0x12F8 JUMP JUMPDEST SWAP3 POP DUP3 DUP3 SUB SWAP1 POP DUP2 DUP2 GT ISZERO PUSH2 0x1709 JUMPI PUSH2 0x1708 PUSH2 0x16AF JUMP JUMPDEST JUMPDEST SWAP3 SWAP2 POP POP JUMP JUMPDEST PUSH32 0x4275726E00000000000000000000000000000000000000000000000000000000 PUSH0 DUP3 ADD MSTORE POP JUMP JUMPDEST PUSH0 PUSH2 0x1743 PUSH1 0x4 DUP4 PUSH2 0x11D1 JUMP JUMPDEST SWAP2 POP PUSH2 0x174E DUP3 PUSH2 0x170F JUMP JUMPDEST PUSH1 0x20 DUP3 ADD SWAP1 POP SWAP2 SWAP1 POP JUMP JUMPDEST PUSH0 PUSH1 0x40 DUP3 ADD SWAP1 POP PUSH2 0x176C PUSH0 DUP4 ADD DUP5 PUSH2 0x1301 JUMP JUMPDEST DUP2 DUP2 SUB PUSH1 0x20 DUP4 ADD MSTORE PUSH2 0x177D DUP2 PUSH2 0x1737 JUMP JUMPDEST SWAP1 POP SWAP3 SWAP2 POP POP JUMP JUMPDEST PUSH32 0x43616E6E6F74206772616E7420746F207A65726F206164647265737300000000 PUSH0 DUP3 ADD MSTORE POP JUMP JUMPDEST PUSH0 PUSH2 0x17B9 PUSH1 0x1C DUP4 PUSH2 0x11D1 JUMP JUMPDEST SWAP2 POP PUSH2 0x17C4 DUP3 PUSH2 0x1785 JUMP JUMPDEST PUSH1 0x20 DUP3 ADD SWAP1 POP SWAP2 SWAP1 POP JUMP JUMPDEST PUSH0 PUSH1 0x20 DUP3 ADD SWAP1 POP DUP2 DUP2 SUB PUSH0 DUP4 ADD MSTORE PUSH2 0x17E6 DUP2 PUSH2 0x17AD JUMP JUMPDEST SWAP1 POP SWAP2 SWAP1 POP JUMP JUMPDEST PUSH0 PUSH2 0x17F7 DUP3 PUSH2 0x12F8 JUMP JUMPDEST SWAP2 POP PUSH2 0x1802 DUP4 PUSH2 0x12F8 JUMP JUMPDEST SWAP3 POP DUP3 DUP3 ADD SWAP1 POP DUP1 DUP3 GT ISZERO PUSH2 0x181A JUMPI PUSH2 0x1819 PUSH2 0x16AF JUMP JUMPDEST JUMPDEST SWAP3 SWAP2 POP POP JUMP JUMPDEST PUSH32 0x4772616E74000000000000000000000000000000000000000000000000000000 PUSH0 DUP3 ADD MSTORE POP JUMP JUMPDEST PUSH0 PUSH2 0x1854 PUSH1 0x5 DUP4 PUSH2 0x11D1 JUMP JUMPDEST SWAP2 POP PUSH2 0x185F DUP3 PUSH2 0x1820 JUMP JUMPDEST PUSH1 0x20 DUP3 ADD SWAP1 POP SWAP2 SWAP1 POP JUMP JUMPDEST PUSH0 PUSH1 0x40 DUP3 ADD SWAP1 POP PUSH2 0x187D PUSH0 DUP4 ADD DUP5 PUSH2 0x1301 JUMP JUMPDEST DUP2 DUP2 SUB PUSH1 0x20 DUP4 ADD MSTORE PUSH2 0x188E DUP2 PUSH2 0x1848 JUMP JUMPDEST SWAP1 POP SWAP3 SWAP2 POP POP JUMP JUMPDEST PUSH32 0x43616E6E6F74207472616E7366657220746F207A65726F206164647265737300 PUSH0 DUP3 ADD MSTORE POP JUMP JUMPDEST PUSH0 PUSH2 0x18CA PUSH1 0x1F DUP4 PUSH2 0x11D1 JUMP JUMPDEST SWAP2 POP PUSH2 0x18D5 DUP3 PUSH2 0x1896 JUMP JUMPDEST PUSH1 0x20 DUP3 ADD SWAP1 POP SWAP2 SWAP1 POP JUMP JUMPDEST PUSH0 PUSH1 0x20 DUP3 ADD SWAP1 POP DUP2 DUP2 SUB PUSH0 DUP4 ADD MSTORE PUSH2 0x18F7 DUP2 PUSH2 0x18BE JUMP JUMPDEST SWAP1 POP SWAP2 SWAP1 POP JUMP JUMPDEST PUSH32 0x43616E6E6F742073656E6420746F207A65726F20616464726573730000000000 PUSH0 DUP3 ADD MSTORE POP JUMP JUMPDEST PUSH0 PUSH2 0x1932 PUSH1 0x1B DUP4 PUSH2 0x11D1 JUMP JUMPDEST SWAP2 POP PUSH2 0x193D DUP3 PUSH2 0x18FE JUMP JUMPDEST PUSH1 0x20 DUP3 ADD SWAP1 POP SWAP2 SWAP1 POP JUMP JUMPDEST PUSH0 PUSH1 0x20 DUP3 ADD SWAP1 POP DUP2 DUP2 SUB PUSH0 DUP4 ADD MSTORE PUSH2 0x195F DUP2 PUSH2 0x1926 JUMP JUMPDEST SWAP1 POP SWAP2 SWAP1 POP JUMP JUMPDEST PUSH32 0x43616E6E6F742073656E6420746F20796F757273656C66000000000000000000 PUSH0 DUP3 ADD MSTORE POP JUMP JUMPDEST PUSH0 PUSH2 0x199A PUSH1 0x17 DUP4 PUSH2 0x11D1 JUMP JUMPDEST SWAP2 POP PUSH2 0x19A5 DUP3 PUSH2 0x1966 JUMP JUMPDEST PUSH1 0x20 DUP3 ADD SWAP1 POP SWAP2 SWAP1 POP JUMP JUMPDEST PUSH0 PUSH1 0x20 DUP3 ADD SWAP1 POP DUP2 DUP2 SUB PUSH0 DUP4 ADD MSTORE PUSH2 0x19C7 DUP2 PUSH2 0x198E JUMP JUMPDEST SWAP1 POP SWAP2 SWAP1 POP JUMP JUMPDEST PUSH32 0x5472616E73666572000000000000000000000000000000000000000000000000 PUSH0 DUP3 ADD MSTORE POP JUMP JUMPDEST PUSH0 PUSH2 0x1A02 PUSH1 0x8 DUP4 PUSH2 0x11D1 JUMP JUMPDEST SWAP2 POP PUSH2 0x1A0D DUP3 PUSH2 0x19CE JUMP JUMPDEST PUSH1 0x20 DUP3 ADD SWAP1 POP SWAP2 SWAP1 POP JUMP JUMPDEST PUSH0 PUSH1 0x40 DUP3 ADD SWAP1 POP PUSH2 0x1A2B PUSH0 DUP4 ADD DUP5 PUSH2 0x1301 JUMP JUMPDEST DUP2 DUP2 SUB PUSH1 0x20 DUP4 ADD MSTORE PUSH2 0x1A3C DUP2 PUSH2 0x19F6 JUMP JUMPDEST SWAP1 POP SWAP3 SWAP2 POP POP JUMP JUMPDEST PUSH32 0x4D696E7400000000000000000000000000000000000000000000000000000000 PUSH0 DUP3 ADD MSTORE POP JUMP JUMPDEST PUSH0 PUSH2 0x1A78 PUSH1 0x4 DUP4 PUSH2 0x11D1 JUMP JUMPDEST SWAP2 POP PUSH2 0x1A83 DUP3 PUSH2 0x1A44 JUMP JUMPDEST PUSH1 0x20 DUP3 ADD SWAP1 POP SWAP2 SWAP1 POP JUMP JUMPDEST PUSH0 PUSH1 0x40 DUP3 ADD SWAP1 POP PUSH2 0x1AA1 PUSH0 DUP4 ADD DUP5 PUSH2 0x1301 JUMP JUMPDEST DUP2 DUP2 SUB PUSH1 0x20 DUP4 ADD MSTORE PUSH2 0x1AB2 DUP2 PUSH2 0x1A6C JUMP JUMPDEST SWAP1 POP SWAP3 SWAP2 POP POP JUMP INVALID LOG2 PUSH5 0x6970667358 0x22 SLT KECCAK256 CHAINID BLOBHASH SWAP12 PUSH23 0xD50A87CE51D5729C04CDCF3FF7F3AC651F0472718147C5 SMOD 0xBD 0xCA 0xE4 CALLDATASIZE PUSH5 0x736F6C6343 STOP ADDMOD BYTE STOP CALLER "
				},
				"gasEstimates": {
					"creation": {
						"codeDepositCost": "1379200",
						"executionCost": "70008",
						"totalCost": "1449208"
					},
					"external": {
						"": "507",
						"burnSimulatedEther(uint256)": "infinite",
						"checkSimulatedBalance(address)": "2830",
						"grantSimulatedEther(address,uint256)": "infinite",
						"mintSimulatedEther(uint256)": "infinite",
						"owner()": "2572",
						"resetSimulatedBalance(address)": "12849",
						"setTransactionLimit(uint256)": "infinite",
						"simulatedBalances(address)": "2802",
						"transactionLimit()": "2469",
						"transferOwnership(address)": "30673",
						"transferSimulatedEther(address,uint256)": "infinite"
					}
				},
				"methodIdentifiers": {
					"burnSimulatedEther(uint256)": "dcd4f961",
					"checkSimulatedBalance(address)": "3d6dde82",
					"grantSimulatedEther(address,uint256)": "e688996c",
					"mintSimulatedEther(uint256)": "fa59571f",
					"owner()": "8da5cb5b",
					"resetSimulatedBalance(address)": "3fce58ee",
					"setTransactionLimit(uint256)": "64bfa546",
					"simulatedBalances(address)": "e51364fd",
					"transactionLimit()": "f19605d6",
					"transferOwnership(address)": "f2fde38b",
					"transferSimulatedEther(address,uint256)": "f8b79895"
				}
			},
			"storageLayout": {
				"storage": [
					{
						"astId": 4,
						"contract": "Project/simulated-transactions.sol:SimulatedTransactions",
						"label": "owner",
						"offset": 0,
						"slot": "0",
						"type": "t_address"
					},
					{
						"astId": 8,
						"contract": "Project/simulated-transactions.sol:SimulatedTransactions",
						"label": "simulatedBalances",
						"offset": 0,
						"slot": "1",
						"type": "t_mapping(t_address,t_uint256)"
					},
					{
						"astId": 32,
						"contract": "Project/simulated-transactions.sol:SimulatedTransactions",
						"label": "locked",
						"offset": 0,
						"slot": "2",
						"type": "t_bool"
					},
					{
						"astId": 35,
						"contract": "Project/simulated-transactions.sol:SimulatedTransactions",
						"label": "transactionLimit",
						"offset": 0,
						"slot": "3",
						"type": "t_uint256"
					}
				],
				"types": {
					"t_address": {
						"encoding": "inplace",
						"label": "address",
						"numberOfBytes": "20"
					},
					"t_bool": {
						"encoding": "inplace",
						"label": "bool",
						"numberOfBytes": "1"
					},
					"t_mapping(t_address,t_uint256)": {
						"encoding": "mapping",
						"key": "t_address",
						"label": "mapping(address => uint256)",
						"numberOfBytes": "32",
						"value": "t_uint256"
					},
					"t_uint256": {
						"encoding": "inplace",
						"label": "uint256",
						"numberOfBytes": "32"
					}
				}
			},
			"userdoc": {
				"kind": "user",
				"methods": {},
				"version": 1
			}
		}
	}
}